{
  "_format": "hh-sol-artifact-1",
  "contractName": "MockQIEOracle",
  "sourceName": "contracts/IQIEOracle.sol",
  "abi": [
    {
      "inputs": [],
      "stateMutability": "nonpayable",
      "type": "constructor"
    },
    {
      "inputs": [
        {
          "internalType": "string",
          "name": "pair",
          "type": "string"
        },
        {
          "internalType": "uint256",
          "name": "timestamp",
          "type": "uint256"
        }
      ],
      "name": "getHistoricalPrice",
      "outputs": [
        {
          "internalType": "int256",
          "name": "price",
          "type": "int256"
        }
      ],
      "stateMutability": "view",
      "type": "function"
    },
    {
      "inputs": [
        {
          "internalType": "string",
          "name": "pair",
          "type": "string"
        }
      ],
      "name": "getLatestPrice",
      "outputs": [
        {
          "internalType": "int256",
          "name": "price",
          "type": "int256"
        },
        {
          "internalType": "uint256",
          "name": "timestamp",
          "type": "uint256"
        }
      ],
      "stateMutability": "view",
      "type": "function"
    },
    {
      "inputs": [
        {
          "internalType": "string",
          "name": "pair",
          "type": "string"
        },
        {
          "internalType": "uint256",
          "name": "maxAge",
          "type": "uint256"
        }
      ],
      "name": "isFresh",
      "outputs": [
        {
          "internalType": "bool",
          "name": "",
          "type": "bool"
        }
      ],
      "stateMutability": "view",
      "type": "function"
    },
    {
      "inputs": [],
      "name": "owner",
      "outputs": [
        {
          "internalType": "address",
          "name": "",
          "type": "address"
        }
      ],
      "stateMutability": "view",
      "type": "function"
    },
    {
      "inputs": [
        {
          "internalType": "string",
          "name": "pair",
          "type": "string"
        },
        {
          "internalType": "int256",
          "name": "price",
          "type": "int256"
        }
      ],
      "name": "updatePrice",
      "outputs": [],
      "stateMutability": "nonpayable",
      "type": "function"
    }
  ],
  "bytecode": "0x604060808152346101eb57600180546001600160a01b031916331781556100246101f0565b906008825260209167105492504bd554d160c21b83820152816100456101f0565b916302faf0808352848301904282528587519180519060005b8281106101d657505082908101600081520301902092518355519101556100836101f0565b60078152661155120bd554d160ca1b838201528161009f6101f0565b91642e90edd0008352848301904282528587519180519060005b8281106101c157505082908101600081520301902092518355519101556100de6101f0565b60078152661253948bd554d160ca1b83820152816100fa6101f0565b9162124f808352848301904282528587519180519060005b8281106101ac57505082908101600081520301902092518355519101556101376101f0565b9160088352670a48abe929c888ab60c31b818401526101546101f0565b926306422c40845281840191428352855182819351908360005b838110610197575050508101600081520301902092518355519101555161039290816102268239f35b8281018201518782015286945085910161016e565b81810184015185820152889650899301610112565b818101840151858201528896508993016100b9565b8181018401518582015288965089930161005e565b600080fd5b60408051919082016001600160401b0381118382101761020f57604052565b634e487b7160e01b600052604160045260246000fdfe60406080815260048036101561001457600080fd5b6000803560e01c80632a632795146101a85780638da5cb5b1461017f57806394fa3e361461015b578063a1c6dded146100fa5763f66a1b711461005657600080fd5b346100f75760203660031901126100f75781359067ffffffffffffffff82116100f7575061008a61008f9136908401610289565b610323565b6001610099610253565b91805483520154916020820192808452156100be575051905182519182526020820152f35b606490602085519162461bcd60e51b835282015260136024820152725072696365206e6f7420617661696c61626c6560681b6044820152fd5b80fd5b50823461015757610117906020610110366102f1565b9390610323565b6001610121610253565b918054835201549182910152420392428411610144575060209350519111158152f35b634e487b7160e01b815260118552602490fd5b5080fd5b50823461015757602090610177610171366102f1565b50610323565b549051908152f35b50823461015757816003193601126101575760015490516001600160a01b039091168152602090f35b5091903461024f578160031936011261024f57803567ffffffffffffffff811161024b576101d99036908301610289565b6001549092906001600160a01b0316330361021b57505060016101fa610253565b9160243583526102106020840191428352610323565b925183555191015580f35b906020606492519162461bcd60e51b8352820152600a60248201526927b7363c9037bbb732b960b11b6044820152fd5b8380fd5b8280fd5b604051906040820182811067ffffffffffffffff82111761027357604052565b634e487b7160e01b600052604160045260246000fd5b81601f820112156102ec5780359067ffffffffffffffff928383116102735760405193601f8401601f19908116603f011685019081118582101761027357604052828452602083830101116102ec57816000926020809301838601378301015290565b600080fd5b60406003198201126102ec576004359067ffffffffffffffff82116102ec5761031c91600401610289565b9060243590565b604051908181519160005b8381106103475750506020918101600081520301902090565b6020828201810151868301528593500161032e56fea26469706673582212209da40bda02c6551a530cbea5c9eaa8d09a08903eded7da3b89d839eed45066b564736f6c63430008140033",
  "linkReferences": {},
  "deployedLinkReferences": {}
}