{
  "_format": "hh-sol-artifact-1",
  "contractName": "SimpleOracle",
  "sourceName": "contracts/SimpleOracle.sol",
  "abi": [
    {
      "inputs": [],
      "stateMutability": "nonpayable",
      "type": "constructor"
    },
    {
      "anonymous": false,
      "inputs": [
        {
          "indexed": true,
          "internalType": "address",
          "name": "previousOwner",
          "type": "address"
        },
        {
          "indexed": true,
          "internalType": "address",
          "name": "newOwner",
          "type": "address"
        }
      ],
      "name": "OwnershipTransferred",
      "type": "event"
    },
    {
      "anonymous": false,
      "inputs": [
        {
          "indexed": false,
          "internalType": "string",
          "name": "pair",
          "type": "string"
        },
        {
          "indexed": false,
          "internalType": "int256",
          "name": "price",
          "type": "int256"
        },
        {
          "indexed": false,
          "internalType": "uint256",
          "name": "timestamp",
          "type": "uint256"
        }
      ],
      "name": "PriceUpdated",
      "type": "event"
    },
    {
      "inputs": [
        {
          "internalType": "string",
          "name": "pair",
          "type": "string"
        }
      ],
      "name": "getLatestPrice",
      "outputs": [
        {
          "internalType": "int256",
          "name": "price",
          "type": "int256"
        },
        {
          "internalType": "uint256",
          "name": "timestamp",
          "type": "uint256"
        }
      ],
      "stateMutability": "view",
      "type": "function"
    },
    {
      "inputs": [],
      "name": "owner",
      "outputs": [
        {
          "internalType": "address",
          "name": "",
          "type": "address"
        }
      ],
      "stateMutability": "view",
      "type": "function"
    },
    {
      "inputs": [
        {
          "internalType": "string",
          "name": "",
          "type": "string"
        }
      ],
      "name": "prices",
      "outputs": [
        {
          "internalType": "int256",
          "name": "",
          "type": "int256"
        }
      ],
      "stateMutability": "view",
      "type": "function"
    },
    {
      "inputs": [],
      "name": "renounceOwnership",
      "outputs": [],
      "stateMutability": "nonpayable",
      "type": "function"
    },
    {
      "inputs": [
        {
          "internalType": "string",
          "name": "",
          "type": "string"
        }
      ],
      "name": "timestamps",
      "outputs": [
        {
          "internalType": "uint256",
          "name": "",
          "type": "uint256"
        }
      ],
      "stateMutability": "view",
      "type": "function"
    },
    {
      "inputs": [
        {
          "internalType": "address",
          "name": "newOwner",
          "type": "address"
        }
      ],
      "name": "transferOwnership",
      "outputs": [],
      "stateMutability": "nonpayable",
      "type": "function"
    },
    {
      "inputs": [
        {
          "internalType": "string",
          "name": "pair",
          "type": "string"
        },
        {
          "internalType": "int256",
          "name": "price",
          "type": "int256"
        }
      ],
      "name": "updatePrice",
      "outputs": [],
      "stateMutability": "nonpayable",
      "type": "function"
    }
  ],
  "bytecode": "0x6080806040523461005b5760008054336001600160a01b0319821681178355916001600160a01b03909116907f8be0079c531659141344cd1fd0a4f28419497f9722a3daafe3b4186f6b6457e09080a361053e90816100618239f35b600080fdfe60406080815260048036101561001457600080fd5b600090813560e01c806315f9b874146103c35780632a632795146102e0578063715018a6146102865780638da5cb5b1461025e578063c3825f4b14610200578063f2fde38b146101325763f66a1b711461006d57600080fd5b3461012e576020918260031936011261012b5781359067ffffffffffffffff821161012b57506100a0903690830161040f565b916100d78185518551908281818901936100bb81838761048d565b810160018152030190205495875193849283925192839161048d565b81016002815203019020549182156100f457508351928352820152f35b60649185519162461bcd60e51b835282015260136024820152725072696365206e6f7420617661696c61626c6560681b6044820152fd5b80fd5b5080fd5b5082346101fc5760203660031901126101fc576001600160a01b038235818116939192908490036101f8576101656104b0565b83156101a657505082546001600160a01b0319811683178455167f8be0079c531659141344cd1fd0a4f28419497f9722a3daafe3b4186f6b6457e08380a380f35b906020608492519162461bcd60e51b8352820152602660248201527f4f776e61626c653a206e6577206f776e657220697320746865207a65726f206160448201526564647265737360d01b6064820152fd5b8480fd5b8280fd5b5091903461012b57602036600319011261012b5782359067ffffffffffffffff821161012b5750602061023a819461024c9336910161040f565b8184519382858094519384920161048d565b81016001815203019020549051908152f35b82843461012e578160031936011261012e57905490516001600160a01b039091168152602090f35b823461012b578060031936011261012b5761029f6104b0565b80546001600160a01b03198116825581906001600160a01b03167f8be0079c531659141344cd1fd0a4f28419497f9722a3daafe3b4186f6b6457e08280a380f35b508290346101fc57816003193601126101fc5780359067ffffffffffffffff82116103bf577f53c1b871b1718d284523b404ad4bbb5c3f884d934597f710071f2530109ad516926103396080926103a59436910161040f565b90602435906103466104b0565b805191808451936020818188019661035f81838a61048d565b81016001815203019020558151845161037981838761048d565b81019060028252602081429303019020558151958694606086525180948160608801528787019061048d565b60208401524290830152601f01601f19168101030190a180f35b8380fd5b5091903461012b57602036600319011261012b5782359067ffffffffffffffff821161012b5750602061023a81946103fd9336910161040f565b81016002815203019020549051908152f35b81601f820112156104725780359067ffffffffffffffff928383116104775760405193601f8401601f19908116603f0116850190811185821017610477576040528284526020838301011161047257816000926020809301838601378301015290565b600080fd5b634e487b7160e01b600052604160045260246000fd5b60005b8381106104a05750506000910152565b8181015183820152602001610490565b6000546001600160a01b031633036104c457565b606460405162461bcd60e51b815260206004820152602060248201527f4f776e61626c653a2063616c6c6572206973206e6f7420746865206f776e65726044820152fdfea2646970667358221220a4774b409ffaf387d892249e66f4dfb93ae11946c14850af878f8132a83b4c7764736f6c63430008140033",
  "linkReferences": {},
  "deployedLinkReferences": {}
}