{
  "_format": "hh-sol-artifact-1",
  "contractName": "AriaToken",
  "sourceName": "contracts/AriaToken.sol",
  "abi": [
    {
      "inputs": [],
      "stateMutability": "nonpayable",
      "type": "constructor"
    },
    {
      "anonymous": false,
      "inputs": [
        {
          "indexed": true,
          "internalType": "address",
          "name": "owner",
          "type": "address"
        },
        {
          "indexed": true,
          "internalType": "address",
          "name": "spender",
          "type": "address"
        },
        {
          "indexed": false,
          "internalType": "uint256",
          "name": "value",
          "type": "uint256"
        }
      ],
      "name": "Approval",
      "type": "event"
    },
    {
      "anonymous": false,
      "inputs": [
        {
          "indexed": true,
          "internalType": "address",
          "name": "previousOwner",
          "type": "address"
        },
        {
          "indexed": true,
          "internalType": "address",
          "name": "newOwner",
          "type": "address"
        }
      ],
      "name": "OwnershipTransferred",
      "type": "event"
    },
    {
      "anonymous": false,
      "inputs": [
        {
          "indexed": true,
          "internalType": "address",
          "name": "from",
          "type": "address"
        },
        {
          "indexed": true,
          "internalType": "address",
          "name": "to",
          "type": "address"
        },
        {
          "indexed": false,
          "internalType": "uint256",
          "name": "value",
          "type": "uint256"
        }
      ],
      "name": "Transfer",
      "type": "event"
    },
    {
      "inputs": [
        {
          "internalType": "address",
          "name": "owner",
          "type": "address"
        },
        {
          "internalType": "address",
          "name": "spender",
          "type": "address"
        }
      ],
      "name": "allowance",
      "outputs": [
        {
          "internalType": "uint256",
          "name": "",
          "type": "uint256"
        }
      ],
      "stateMutability": "view",
      "type": "function"
    },
    {
      "inputs": [
        {
          "internalType": "address",
          "name": "spender",
          "type": "address"
        },
        {
          "internalType": "uint256",
          "name": "amount",
          "type": "uint256"
        }
      ],
      "name": "approve",
      "outputs": [
        {
          "internalType": "bool",
          "name": "",
          "type": "bool"
        }
      ],
      "stateMutability": "nonpayable",
      "type": "function"
    },
    {
      "inputs": [
        {
          "internalType": "address",
          "name": "account",
          "type": "address"
        }
      ],
      "name": "balanceOf",
      "outputs": [
        {
          "internalType": "uint256",
          "name": "",
          "type": "uint256"
        }
      ],
      "stateMutability": "view",
      "type": "function"
    },
    {
      "inputs": [],
      "name": "decimals",
      "outputs": [
        {
          "internalType": "uint8",
          "name": "",
          "type": "uint8"
        }
      ],
      "stateMutability": "view",
      "type": "function"
    },
    {
      "inputs": [
        {
          "internalType": "address",
          "name": "spender",
          "type": "address"
        },
        {
          "internalType": "uint256",
          "name": "subtractedValue",
          "type": "uint256"
        }
      ],
      "name": "decreaseAllowance",
      "outputs": [
        {
          "internalType": "bool",
          "name": "",
          "type": "bool"
        }
      ],
      "stateMutability": "nonpayable",
      "type": "function"
    },
    {
      "inputs": [
        {
          "internalType": "address",
          "name": "spender",
          "type": "address"
        },
        {
          "internalType": "uint256",
          "name": "addedValue",
          "type": "uint256"
        }
      ],
      "name": "increaseAllowance",
      "outputs": [
        {
          "internalType": "bool",
          "name": "",
          "type": "bool"
        }
      ],
      "stateMutability": "nonpayable",
      "type": "function"
    },
    {
      "inputs": [],
      "name": "mintFromETH",
      "outputs": [],
      "stateMutability": "payable",
      "type": "function"
    },
    {
      "inputs": [],
      "name": "name",
      "outputs": [
        {
          "internalType": "string",
          "name": "",
          "type": "string"
        }
      ],
      "stateMutability": "view",
      "type": "function"
    },
    {
      "inputs": [],
      "name": "owner",
      "outputs": [
        {
          "internalType": "address",
          "name": "",
          "type": "address"
        }
      ],
      "stateMutability": "view",
      "type": "function"
    },
    {
      "inputs": [],
      "name": "rate",
      "outputs": [
        {
          "internalType": "uint256",
          "name": "",
          "type": "uint256"
        }
      ],
      "stateMutability": "view",
      "type": "function"
    },
    {
      "inputs": [],
      "name": "renounceOwnership",
      "outputs": [],
      "stateMutability": "nonpayable",
      "type": "function"
    },
    {
      "inputs": [],
      "name": "symbol",
      "outputs": [
        {
          "internalType": "string",
          "name": "",
          "type": "string"
        }
      ],
      "stateMutability": "view",
      "type": "function"
    },
    {
      "inputs": [],
      "name": "totalSupply",
      "outputs": [
        {
          "internalType": "uint256",
          "name": "",
          "type": "uint256"
        }
      ],
      "stateMutability": "view",
      "type": "function"
    },
    {
      "inputs": [
        {
          "internalType": "address",
          "name": "to",
          "type": "address"
        },
        {
          "internalType": "uint256",
          "name": "amount",
          "type": "uint256"
        }
      ],
      "name": "transfer",
      "outputs": [
        {
          "internalType": "bool",
          "name": "",
          "type": "bool"
        }
      ],
      "stateMutability": "nonpayable",
      "type": "function"
    },
    {
      "inputs": [
        {
          "internalType": "address",
          "name": "from",
          "type": "address"
        },
        {
          "internalType": "address",
          "name": "to",
          "type": "address"
        },
        {
          "internalType": "uint256",
          "name": "amount",
          "type": "uint256"
        }
      ],
      "name": "transferFrom",
      "outputs": [
        {
          "internalType": "bool",
          "name": "",
          "type": "bool"
        }
      ],
      "stateMutability": "nonpayable",
      "type": "function"
    },
    {
      "inputs": [
        {
          "internalType": "address",
          "name": "newOwner",
          "type": "address"
        }
      ],
      "name": "transferOwnership",
      "outputs": [],
      "stateMutability": "nonpayable",
      "type": "function"
    },
    {
      "inputs": [],
      "name": "withdrawETH",
      "outputs": [],
      "stateMutability": "nonpayable",
      "type": "function"
    }
  ],
  "bytecode": "0x608060405234620003f85762000014620003fd565b6020634172696160e01b818301526200002c620003fd565b634152494160e01b82820152825190926001600160401b03808311620002f85760038054936001938486811c96168015620003ed575b87871014620003d7578190601f9687811162000381575b5087908783116001146200031a576000926200030e575b505060001982841b1c191690841b1781555b8551918211620002f85760049586548481811c91168015620002ed575b87821014620002d8578581116200028d575b508590858411600114620002225793839491849260009562000216575b50501b92600019911b1c19161783555b60058054336001600160a01b0319821681179092556040519291906001600160a01b03167f8be0079c531659141344cd1fd0a4f28419497f9722a3daafe3b4186f6b6457e0600080a3620186a06006553315620001d95750506002546a52b7d2dcc80cd2e400000092838201809211620001c457506000917fddf252ad1be2c89b69c2b068fc378daa952ba7f163c4a11628f55a4df523b3ef91600255338352828152604083208481540190556040519384523393a3604051610c329081620004228239f35b601190634e487b7160e01b6000525260246000fd5b6064928462461bcd60e51b845283015260248201527f45524332303a206d696e7420746f20746865207a65726f2061646472657373006044820152fd5b015193503880620000ee565b9190601f198416928860005284886000209460005b8a898383106200027557505050106200025a575b50505050811b018355620000fe565b01519060f884600019921b161c19169055388080806200024b565b86860151895590970196948501948893500162000237565b87600052866000208680860160051c820192898710620002ce575b0160051c019085905b828110620002c1575050620000d1565b60008155018590620002b1565b92508192620002a8565b602288634e487b7160e01b6000525260246000fd5b90607f1690620000bf565b634e487b7160e01b600052604160045260246000fd5b01519050388062000090565b90869350601f1983169185600052896000209260005b8b8282106200036a575050841162000351575b505050811b018155620000a2565b015160001983861b60f8161c1916905538808062000343565b8385015186558a9790950194938401930162000330565b90915083600052876000208780850160051c8201928a8610620003cd575b918891869594930160051c01915b828110620003bd57505062000079565b60008155859450889101620003ad565b925081926200039f565b634e487b7160e01b600052602260045260246000fd5b95607f169562000062565b600080fd5b60408051919082016001600160401b03811183821017620002f8576040526004825256fe6080604081815260048036101561001557600080fd5b600092833560e01c90816306fdde03146107a257508063095ea7b31461077857806318160ddd1461075957806323b872dd1461068f5780632c4e722e14610670578063313ce56714610654578063395093511461060457806370a08231146105cd578063715018a6146105705780637db802ca1461046a5780638da5cb5b1461044157806395d89b4114610321578063a457c2d71461027a578063a9059cbb14610249578063dd62ed3e14610200578063e086e5ec146101ac5763f2fde38b146100de57600080fd5b346101a85760203660031901126101a8576100f76108e0565b90610100610911565b6001600160a01b03918216928315610156575050600554826bffffffffffffffffffffffff60a01b821617600555167f8be0079c531659141344cd1fd0a4f28419497f9722a3daafe3b4186f6b6457e08380a380f35b906020608492519162461bcd60e51b8352820152602660248201527f4f776e61626c653a206e6577206f776e657220697320746865207a65726f206160448201526564647265737360d01b6064820152fd5b8280fd5b5050346101fc57816003193601126101fc576101c6610911565b8180808060018060a01b036005541647908282156101f3575bf1156101e9575080f35b51903d90823e3d90fd5b506108fc6101df565b5080fd5b5050346101fc57806003193601126101fc578060209261021e6108e0565b6102266108fb565b6001600160a01b0391821683526001865283832091168252845220549051908152f35b5050346101fc57806003193601126101fc576020906102736102696108e0565b602435903361098c565b5160018152f35b50823461031e578260031936011261031e576102946108e0565b918360243592338152600160205281812060018060a01b03861682526020522054908282106102cd576020856102738585038733610afa565b608490602086519162461bcd60e51b8352820152602560248201527f45524332303a2064656372656173656420616c6c6f77616e63652062656c6f77604482015264207a65726f60d81b6064820152fd5b80fd5b509190346101fc57816003193601126101fc57805190828454600181811c90808316928315610437575b60209384841081146104245783885290811561040857506001146103b3575b505050829003601f01601f191682019267ffffffffffffffff8411838510176103a0575082918261039c925282610897565b0390f35b634e487b7160e01b815260418552602490fd5b8787529192508591837f8a35acfbc15ff81a39ae7d344fd709f28e8600b4aa8c65c6b64bfe7fe36bd19b5b8385106103f4575050505083010138808061036a565b8054888601830152930192849082016103de565b60ff1916878501525050151560051b840101905038808061036a565b634e487b7160e01b895260228a52602489fd5b91607f169161034b565b5050346101fc57816003193601126101fc5760055490516001600160a01b039091168152602090f35b5090826003193601126101a8573415610536576006549182340292348404036105235733156104e157506104a082600254610969565b6002553383528260205280832082815401905551908152817fddf252ad1be2c89b69c2b068fc378daa952ba7f163c4a11628f55a4df523b3ef60203393a380f35b6020606492519162461bcd60e51b8352820152601f60248201527f45524332303a206d696e7420746f20746865207a65726f2061646472657373006044820152fd5b634e487b7160e01b845260119052602483fd5b906020606492519162461bcd60e51b8352820152601460248201527353656e642045544820746f20627579204152494160601b6044820152fd5b833461031e578060031936011261031e57610589610911565b600580546001600160a01b0319811690915581906001600160a01b03167f8be0079c531659141344cd1fd0a4f28419497f9722a3daafe3b4186f6b6457e08280a380f35b5050346101fc5760203660031901126101fc5760209181906001600160a01b036105f56108e0565b16815280845220549051908152f35b5050346101fc57806003193601126101fc5761027360209261064d6106276108e0565b338352600186528483206001600160a01b03821684528652918490205460243590610969565b9033610afa565b5050346101fc57816003193601126101fc576020905160128152f35b5050346101fc57816003193601126101fc576020906006549051908152f35b508290346101fc5760603660031901126101fc576106ab6108e0565b6106b36108fb565b91846044359460018060a01b0384168152600160205281812033825260205220549060001982036106ed575b60208661027387878761098c565b848210610716575091839161070b6020969561027395033383610afa565b9193948193506106df565b606490602087519162461bcd60e51b8352820152601d60248201527f45524332303a20696e73756666696369656e7420616c6c6f77616e63650000006044820152fd5b5050346101fc57816003193601126101fc576020906002549051908152f35b5050346101fc57806003193601126101fc576020906102736107986108e0565b6024359033610afa565b84915083346101a857826003193601126101a85782600354600181811c9080831692831561088d575b602093848410811461042457838852908115610871575060011461081b57505050829003601f01601f191682019267ffffffffffffffff8411838510176103a0575082918261039c925282610897565b600387529192508591837fc2575a0e9e593c00f959f8c92f12db2869c3395a3b0502d05e2516446f71f85b5b83851061085d575050505083010185808061036a565b805488860183015293019284908201610847565b60ff1916878501525050151560051b840101905085808061036a565b91607f16916107cb565b6020808252825181830181905290939260005b8281106108cc57505060409293506000838284010152601f8019910116010190565b8181018601518482016040015285016108aa565b600435906001600160a01b03821682036108f657565b600080fd5b602435906001600160a01b03821682036108f657565b6005546001600160a01b0316330361092557565b606460405162461bcd60e51b815260206004820152602060248201527f4f776e61626c653a2063616c6c6572206973206e6f7420746865206f776e65726044820152fd5b9190820180921161097657565b634e487b7160e01b600052601160045260246000fd5b6001600160a01b03908116918215610aa75716918215610a5657600082815280602052604081205491808310610a0257604082827fddf252ad1be2c89b69c2b068fc378daa952ba7f163c4a11628f55a4df523b3ef958760209652828652038282205586815220818154019055604051908152a3565b60405162461bcd60e51b815260206004820152602660248201527f45524332303a207472616e7366657220616d6f756e7420657863656564732062604482015265616c616e636560d01b6064820152608490fd5b60405162461bcd60e51b815260206004820152602360248201527f45524332303a207472616e7366657220746f20746865207a65726f206164647260448201526265737360e81b6064820152608490fd5b60405162461bcd60e51b815260206004820152602560248201527f45524332303a207472616e736665722066726f6d20746865207a65726f206164604482015264647265737360d81b6064820152608490fd5b6001600160a01b03908116918215610bab5716918215610b5b5760207f8c5be1e5ebec7d5bd14f71427d1e84f3dd0314c0f7b2291e5b200ac8c7c3b925918360005260018252604060002085600052825280604060002055604051908152a3565b60405162461bcd60e51b815260206004820152602260248201527f45524332303a20617070726f766520746f20746865207a65726f206164647265604482015261737360f01b6064820152608490fd5b60405162461bcd60e51b8152602060048201526024808201527f45524332303a20617070726f76652066726f6d20746865207a65726f206164646044820152637265737360e01b6064820152608490fdfea26469706673582212203bfd5d16e42d961710604faa75815a584b0b573bfa007cb8bb5d9daf9e6ab5e264736f6c63430008140033",
  "linkReferences": {},
  "deployedLinkReferences": {}
}