{
  "_format": "hh-sol-artifact-1",
  "contractName": "FractionToken",
  "sourceName": "contracts/FractionalNFT.sol",
  "abi": [
    {
      "inputs": [
        {
          "internalType": "string",
          "name": "name",
          "type": "string"
        },
        {
          "internalType": "string",
          "name": "symbol",
          "type": "string"
        },
        {
          "internalType": "uint256",
          "name": "totalSupply",
          "type": "uint256"
        },
        {
          "internalType": "address",
          "name": "recipient",
          "type": "address"
        }
      ],
      "stateMutability": "nonpayable",
      "type": "constructor"
    },
    {
      "anonymous": false,
      "inputs": [
        {
          "indexed": true,
          "internalType": "address",
          "name": "owner",
          "type": "address"
        },
        {
          "indexed": true,
          "internalType": "address",
          "name": "spender",
          "type": "address"
        },
        {
          "indexed": false,
          "internalType": "uint256",
          "name": "value",
          "type": "uint256"
        }
      ],
      "name": "Approval",
      "type": "event"
    },
    {
      "anonymous": false,
      "inputs": [
        {
          "indexed": true,
          "internalType": "address",
          "name": "from",
          "type": "address"
        },
        {
          "indexed": true,
          "internalType": "address",
          "name": "to",
          "type": "address"
        },
        {
          "indexed": false,
          "internalType": "uint256",
          "name": "value",
          "type": "uint256"
        }
      ],
      "name": "Transfer",
      "type": "event"
    },
    {
      "inputs": [
        {
          "internalType": "address",
          "name": "owner",
          "type": "address"
        },
        {
          "internalType": "address",
          "name": "spender",
          "type": "address"
        }
      ],
      "name": "allowance",
      "outputs": [
        {
          "internalType": "uint256",
          "name": "",
          "type": "uint256"
        }
      ],
      "stateMutability": "view",
      "type": "function"
    },
    {
      "inputs": [
        {
          "internalType": "address",
          "name": "spender",
          "type": "address"
        },
        {
          "internalType": "uint256",
          "name": "amount",
          "type": "uint256"
        }
      ],
      "name": "approve",
      "outputs": [
        {
          "internalType": "bool",
          "name": "",
          "type": "bool"
        }
      ],
      "stateMutability": "nonpayable",
      "type": "function"
    },
    {
      "inputs": [
        {
          "internalType": "address",
          "name": "account",
          "type": "address"
        }
      ],
      "name": "balanceOf",
      "outputs": [
        {
          "internalType": "uint256",
          "name": "",
          "type": "uint256"
        }
      ],
      "stateMutability": "view",
      "type": "function"
    },
    {
      "inputs": [
        {
          "internalType": "address",
          "name": "account",
          "type": "address"
        },
        {
          "internalType": "uint256",
          "name": "amount",
          "type": "uint256"
        }
      ],
      "name": "burnFrom",
      "outputs": [],
      "stateMutability": "nonpayable",
      "type": "function"
    },
    {
      "inputs": [],
      "name": "decimals",
      "outputs": [
        {
          "internalType": "uint8",
          "name": "",
          "type": "uint8"
        }
      ],
      "stateMutability": "view",
      "type": "function"
    },
    {
      "inputs": [
        {
          "internalType": "address",
          "name": "spender",
          "type": "address"
        },
        {
          "internalType": "uint256",
          "name": "subtractedValue",
          "type": "uint256"
        }
      ],
      "name": "decreaseAllowance",
      "outputs": [
        {
          "internalType": "bool",
          "name": "",
          "type": "bool"
        }
      ],
      "stateMutability": "nonpayable",
      "type": "function"
    },
    {
      "inputs": [],
      "name": "fractionalNFTContract",
      "outputs": [
        {
          "internalType": "address",
          "name": "",
          "type": "address"
        }
      ],
      "stateMutability": "view",
      "type": "function"
    },
    {
      "inputs": [
        {
          "internalType": "address",
          "name": "spender",
          "type": "address"
        },
        {
          "internalType": "uint256",
          "name": "addedValue",
          "type": "uint256"
        }
      ],
      "name": "increaseAllowance",
      "outputs": [
        {
          "internalType": "bool",
          "name": "",
          "type": "bool"
        }
      ],
      "stateMutability": "nonpayable",
      "type": "function"
    },
    {
      "inputs": [],
      "name": "name",
      "outputs": [
        {
          "internalType": "string",
          "name": "",
          "type": "string"
        }
      ],
      "stateMutability": "view",
      "type": "function"
    },
    {
      "inputs": [],
      "name": "symbol",
      "outputs": [
        {
          "internalType": "string",
          "name": "",
          "type": "string"
        }
      ],
      "stateMutability": "view",
      "type": "function"
    },
    {
      "inputs": [],
      "name": "totalSupply",
      "outputs": [
        {
          "internalType": "uint256",
          "name": "",
          "type": "uint256"
        }
      ],
      "stateMutability": "view",
      "type": "function"
    },
    {
      "inputs": [
        {
          "internalType": "address",
          "name": "to",
          "type": "address"
        },
        {
          "internalType": "uint256",
          "name": "amount",
          "type": "uint256"
        }
      ],
      "name": "transfer",
      "outputs": [
        {
          "internalType": "bool",
          "name": "",
          "type": "bool"
        }
      ],
      "stateMutability": "nonpayable",
      "type": "function"
    },
    {
      "inputs": [
        {
          "internalType": "address",
          "name": "from",
          "type": "address"
        },
        {
          "internalType": "address",
          "name": "to",
          "type": "address"
        },
        {
          "internalType": "uint256",
          "name": "amount",
          "type": "uint256"
        }
      ],
      "name": "transferFrom",
      "outputs": [
        {
          "internalType": "bool",
          "name": "",
          "type": "bool"
        }
      ],
      "stateMutability": "nonpayable",
      "type": "function"
    }
  ],
  "bytecode": "0x604060a0815234620004275762000f56803803806200001e816200042c565b9283398101608082820312620004275781516001600160401b0392908381116200042757826200005091830162000452565b92602092838301519082821162000427576200006e91840162000452565b906060868401519301519460018060a01b0386168096036200042757805191808311620003275760038054936001938486811c961680156200041c575b8987101462000406578190601f96878111620003b0575b50899087831160011462000349576000926200033d575b505060001982841b1c191690841b1781555b8451918211620003275760049485548481811c911680156200031c575b898210146200030757858111620002bc575b508790858411600114620002515793839491849260009562000245575b50501b92600019911b1c19161782555b33608052670de0b6b3a76400009283810293818504149015171562000230578415620001ee575060025490828201809211620001d9575060025560008381528083528481208054830190558451918252917fddf252ad1be2c89b69c2b068fc378daa952ba7f163c4a11628f55a4df523b3ef91a351610a919081620004c5823960805181818161030b01526103640152f35b601190634e487b7160e01b6000525260246000fd5b855162461bcd60e51b815291820184905260248201527f45524332303a206d696e7420746f20746865207a65726f206164647265737300604482015260649150fd5b601182634e487b7160e01b6000525260246000fd5b01519350388062000137565b9190601f1984169287600052848a6000209460005b8c89838310620002a4575050501062000289575b50505050811b01825562000147565b01519060f884600019921b161c19169055388080806200027a565b86860151895590970196948501948893500162000266565b86600052886000208680860160051c8201928b8710620002fd575b0160051c019085905b828110620002f05750506200011a565b60008155018590620002e0565b92508192620002d7565b602287634e487b7160e01b6000525260246000fd5b90607f169062000108565b634e487b7160e01b600052604160045260246000fd5b015190503880620000d9565b90869350601f19831691856000528b6000209260005b8d82821062000399575050841162000380575b505050811b018155620000eb565b015160001983861b60f8161c1916905538808062000372565b8385015186558a979095019493840193016200035f565b90915083600052896000208780850160051c8201928c8610620003fc575b918891869594930160051c01915b828110620003ec575050620000c2565b60008155859450889101620003dc565b92508192620003ce565b634e487b7160e01b600052602260045260246000fd5b95607f1695620000ab565b600080fd5b6040519190601f01601f191682016001600160401b038111838210176200032757604052565b919080601f84011215620004275782516001600160401b038111620003275760209062000488601f8201601f191683016200042c565b92818452828287010111620004275760005b818110620004b057508260009394955001015290565b85810183015184820184015282016200049a56fe608060408181526004918236101561001657600080fd5b600092833560e01c91826306fdde031461069557508163095ea7b31461066b57816318160ddd1461064c57816323b872dd14610582578163313ce5671461056657816339509351146104ff57816370a08231146104c857816379cc67901461033a5781638a71affd146102f657816395d89b41146101d7578163a457c2d71461012f57508063a9059cbb146100ff5763dd62ed3e146100b457600080fd5b346100fb57806003193601126100fb57806020926100d06107ba565b6100d86107d5565b6001600160a01b0391821683526001865283832091168252845220549051908152f35b5080fd5b50346100fb57806003193601126100fb5760209061012861011e6107ba565b60243590336107eb565b5160018152f35b905082346101d457826003193601126101d45761014a6107ba565b918360243592338152600160205281812060018060a01b0386168252602052205490828210610183576020856101288585038733610959565b608490602086519162461bcd60e51b8352820152602560248201527f45524332303a2064656372656173656420616c6c6f77616e63652062656c6f77604482015264207a65726f60d81b6064820152fd5b80fd5b8383346100fb57816003193601126100fb57805190828454600181811c908083169283156102ec575b60209384841081146102d9578388529081156102bd5750600114610268575b505050829003601f01601f191682019267ffffffffffffffff8411838510176102555750829182610251925282610771565b0390f35b634e487b7160e01b815260418552602490fd5b8787529192508591837f8a35acfbc15ff81a39ae7d344fd709f28e8600b4aa8c65c6b64bfe7fe36bd19b5b8385106102a9575050505083010185808061021f565b805488860183015293019284908201610293565b60ff1916878501525050151560051b840101905085808061021f565b634e487b7160e01b895260228a52602489fd5b91607f1691610200565b5050346100fb57816003193601126100fb57517f00000000000000000000000000000000000000000000000000000000000000006001600160a01b03168152602090f35b839150346100fb57826003193601126100fb576103556107ba565b602435906001600160a01b03907f0000000000000000000000000000000000000000000000000000000000000000821633036104855716918215610438578284528360205284842054908282106103ea57508184957fddf252ad1be2c89b69c2b068fc378daa952ba7f163c4a11628f55a4df523b3ef936020938688528785520381872055816002540360025551908152a380f35b608490602087519162461bcd60e51b8352820152602260248201527f45524332303a206275726e20616d6f756e7420657863656564732062616c616e604482015261636560f01b6064820152fd5b608490602086519162461bcd60e51b8352820152602160248201527f45524332303a206275726e2066726f6d20746865207a65726f206164647265736044820152607360f81b6064820152fd5b855162461bcd60e51b8152602081860152601b60248201527f4f6e6c79204672616374696f6e616c4e46542063616e206275726e00000000006044820152606490fd5b5050346100fb5760203660031901126100fb5760209181906001600160a01b036104f06107ba565b16815280845220549051908152f35b8284346101d457816003193601126101d4576105196107ba565b338252600160209081528383206001600160a01b038316845290528282205460243581019290831061055357602084610128858533610959565b634e487b7160e01b815260118552602490fd5b5050346100fb57816003193601126100fb576020905160128152f35b839150346100fb5760603660031901126100fb5761059e6107ba565b6105a66107d5565b91846044359460018060a01b0384168152600160205281812033825260205220549060001982036105e0575b6020866101288787876107eb565b84821061060957509183916105fe6020969561012895033383610959565b9193948193506105d2565b606490602087519162461bcd60e51b8352820152601d60248201527f45524332303a20696e73756666696369656e7420616c6c6f77616e63650000006044820152fd5b5050346100fb57816003193601126100fb576020906002549051908152f35b5050346100fb57806003193601126100fb5760209061012861068b6107ba565b6024359033610959565b8490843461076d578260031936011261076d5782600354600181811c90808316928315610763575b60209384841081146102d9578388529081156102bd575060011461070d57505050829003601f01601f191682019267ffffffffffffffff8411838510176102555750829182610251925282610771565b600387529192508591837fc2575a0e9e593c00f959f8c92f12db2869c3395a3b0502d05e2516446f71f85b5b83851061074f575050505083010185808061021f565b805488860183015293019284908201610739565b91607f16916106bd565b8280fd5b6020808252825181830181905290939260005b8281106107a657505060409293506000838284010152601f8019910116010190565b818101860151848201604001528501610784565b600435906001600160a01b03821682036107d057565b600080fd5b602435906001600160a01b03821682036107d057565b6001600160a01b0390811691821561090657169182156108b55760008281528060205260408120549180831061086157604082827fddf252ad1be2c89b69c2b068fc378daa952ba7f163c4a11628f55a4df523b3ef958760209652828652038282205586815220818154019055604051908152a3565b60405162461bcd60e51b815260206004820152602660248201527f45524332303a207472616e7366657220616d6f756e7420657863656564732062604482015265616c616e636560d01b6064820152608490fd5b60405162461bcd60e51b815260206004820152602360248201527f45524332303a207472616e7366657220746f20746865207a65726f206164647260448201526265737360e81b6064820152608490fd5b60405162461bcd60e51b815260206004820152602560248201527f45524332303a207472616e736665722066726f6d20746865207a65726f206164604482015264647265737360d81b6064820152608490fd5b6001600160a01b03908116918215610a0a57169182156109ba5760207f8c5be1e5ebec7d5bd14f71427d1e84f3dd0314c0f7b2291e5b200ac8c7c3b925918360005260018252604060002085600052825280604060002055604051908152a3565b60405162461bcd60e51b815260206004820152602260248201527f45524332303a20617070726f766520746f20746865207a65726f206164647265604482015261737360f01b6064820152608490fd5b60405162461bcd60e51b8152602060048201526024808201527f45524332303a20617070726f76652066726f6d20746865207a65726f206164646044820152637265737360e01b6064820152608490fdfea2646970667358221220be4c4094552f5606540e1a3e2de2234bdf63b6f3e85df10b378c84c69cea807164736f6c63430008140033",
  "linkReferences": {},
  "deployedLinkReferences": {}
}