{
  "_format": "hh-sol-artifact-1",
  "contractName": "FractionalNFT",
  "sourceName": "contracts/FractionalNFT.sol",
  "abi": [
    {
      "inputs": [],
      "stateMutability": "nonpayable",
      "type": "constructor"
    },
    {
      "anonymous": false,
      "inputs": [
        {
          "indexed": true,
          "internalType": "uint256",
          "name": "fractionalId",
          "type": "uint256"
        },
        {
          "indexed": true,
          "internalType": "uint256",
          "name": "nftTokenId",
          "type": "uint256"
        },
        {
          "indexed": true,
          "internalType": "address",
          "name": "nftContract",
          "type": "address"
        },
        {
          "indexed": false,
          "internalType": "address",
          "name": "fractionToken",
          "type": "address"
        },
        {
          "indexed": false,
          "internalType": "uint256",
          "name": "totalSupply",
          "type": "uint256"
        },
        {
          "indexed": false,
          "internalType": "address",
          "name": "creator",
          "type": "address"
        }
      ],
      "name": "AssetFractionalized",
      "type": "event"
    },
    {
      "anonymous": false,
      "inputs": [
        {
          "indexed": true,
          "internalType": "uint256",
          "name": "fractionalId",
          "type": "uint256"
        },
        {
          "indexed": true,
          "internalType": "address",
          "name": "redeemer",
          "type": "address"
        },
        {
          "indexed": false,
          "internalType": "uint256",
          "name": "nftTokenId",
          "type": "uint256"
        }
      ],
      "name": "AssetRedeemed",
      "type": "event"
    },
    {
      "anonymous": false,
      "inputs": [
        {
          "indexed": true,
          "internalType": "address",
          "name": "previousOwner",
          "type": "address"
        },
        {
          "indexed": true,
          "internalType": "address",
          "name": "newOwner",
          "type": "address"
        }
      ],
      "name": "OwnershipTransferred",
      "type": "event"
    },
    {
      "anonymous": false,
      "inputs": [
        {
          "indexed": true,
          "internalType": "uint256",
          "name": "fractionalId",
          "type": "uint256"
        },
        {
          "indexed": true,
          "internalType": "address",
          "name": "burner",
          "type": "address"
        },
        {
          "indexed": false,
          "internalType": "uint256",
          "name": "amount",
          "type": "uint256"
        }
      ],
      "name": "TokensBurned",
      "type": "event"
    },
    {
      "inputs": [
        {
          "internalType": "address",
          "name": "nftContract",
          "type": "address"
        },
        {
          "internalType": "uint256",
          "name": "nftTokenId",
          "type": "uint256"
        },
        {
          "internalType": "uint256",
          "name": "tokenSupply",
          "type": "uint256"
        },
        {
          "internalType": "string",
          "name": "tokenName",
          "type": "string"
        },
        {
          "internalType": "string",
          "name": "tokenSymbol",
          "type": "string"
        }
      ],
      "name": "fractionalizeNFT",
      "outputs": [
        {
          "internalType": "uint256",
          "name": "",
          "type": "uint256"
        }
      ],
      "stateMutability": "nonpayable",
      "type": "function"
    },
    {
      "inputs": [
        {
          "internalType": "uint256",
          "name": "",
          "type": "uint256"
        }
      ],
      "name": "fractionalizedAssets",
      "outputs": [
        {
          "internalType": "uint256",
          "name": "nftTokenId",
          "type": "uint256"
        },
        {
          "internalType": "address",
          "name": "nftContract",
          "type": "address"
        },
        {
          "internalType": "address",
          "name": "fractionToken",
          "type": "address"
        },
        {
          "internalType": "uint256",
          "name": "totalSupply",
          "type": "uint256"
        },
        {
          "internalType": "address",
          "name": "creator",
          "type": "address"
        },
        {
          "internalType": "bool",
          "name": "isActive",
          "type": "bool"
        },
        {
          "internalType": "uint256",
          "name": "createdAt",
          "type": "uint256"
        },
        {
          "internalType": "string",
          "name": "tokenName",
          "type": "string"
        },
        {
          "internalType": "string",
          "name": "tokenSymbol",
          "type": "string"
        }
      ],
      "stateMutability": "view",
      "type": "function"
    },
    {
      "inputs": [],
      "name": "fractionalizedCount",
      "outputs": [
        {
          "internalType": "uint256",
          "name": "",
          "type": "uint256"
        }
      ],
      "stateMutability": "view",
      "type": "function"
    },
    {
      "inputs": [
        {
          "internalType": "address",
          "name": "nftContract",
          "type": "address"
        },
        {
          "internalType": "uint256",
          "name": "nftTokenId",
          "type": "uint256"
        }
      ],
      "name": "getFractionTokenAddress",
      "outputs": [
        {
          "internalType": "address",
          "name": "",
          "type": "address"
        }
      ],
      "stateMutability": "view",
      "type": "function"
    },
    {
      "inputs": [
        {
          "internalType": "uint256",
          "name": "fractionalId",
          "type": "uint256"
        }
      ],
      "name": "getFractionalAsset",
      "outputs": [
        {
          "components": [
            {
              "internalType": "uint256",
              "name": "nftTokenId",
              "type": "uint256"
            },
            {
              "internalType": "address",
              "name": "nftContract",
              "type": "address"
            },
            {
              "internalType": "address",
              "name": "fractionToken",
              "type": "address"
            },
            {
              "internalType": "uint256",
              "name": "totalSupply",
              "type": "uint256"
            },
            {
              "internalType": "address",
              "name": "creator",
              "type": "address"
            },
            {
              "internalType": "bool",
              "name": "isActive",
              "type": "bool"
            },
            {
              "internalType": "uint256",
              "name": "createdAt",
              "type": "uint256"
            },
            {
              "internalType": "string",
              "name": "tokenName",
              "type": "string"
            },
            {
              "internalType": "string",
              "name": "tokenSymbol",
              "type": "string"
            }
          ],
          "internalType": "struct FractionalNFT.FractionalAsset",
          "name": "",
          "type": "tuple"
        }
      ],
      "stateMutability": "view",
      "type": "function"
    },
    {
      "inputs": [
        {
          "internalType": "address",
          "name": "nftContract",
          "type": "address"
        },
        {
          "internalType": "uint256",
          "name": "nftTokenId",
          "type": "uint256"
        }
      ],
      "name": "isFractionalized",
      "outputs": [
        {
          "internalType": "bool",
          "name": "",
          "type": "bool"
        }
      ],
      "stateMutability": "view",
      "type": "function"
    },
    {
      "inputs": [
        {
          "internalType": "address",
          "name": "",
          "type": "address"
        },
        {
          "internalType": "uint256",
          "name": "",
          "type": "uint256"
        }
      ],
      "name": "nftToFractionalId",
      "outputs": [
        {
          "internalType": "uint256",
          "name": "",
          "type": "uint256"
        }
      ],
      "stateMutability": "view",
      "type": "function"
    },
    {
      "inputs": [],
      "name": "owner",
      "outputs": [
        {
          "internalType": "address",
          "name": "",
          "type": "address"
        }
      ],
      "stateMutability": "view",
      "type": "function"
    },
    {
      "inputs": [
        {
          "internalType": "uint256",
          "name": "fractionalId",
          "type": "uint256"
        }
      ],
      "name": "redeemNFT",
      "outputs": [],
      "stateMutability": "nonpayable",
      "type": "function"
    },
    {
      "inputs": [],
      "name": "renounceOwnership",
      "outputs": [],
      "stateMutability": "nonpayable",
      "type": "function"
    },
    {
      "inputs": [
        {
          "internalType": "address",
          "name": "newOwner",
          "type": "address"
        }
      ],
      "name": "transferOwnership",
      "outputs": [],
      "stateMutability": "nonpayable",
      "type": "function"
    }
  ],
  "bytecode": "0x6080806040523461005e57600160008181558154336001600160a01b0319821681179093556001600160a01b0316907f8be0079c531659141344cd1fd0a4f28419497f9722a3daafe3b4186f6b6457e09080a361229690816100648239f35b600080fdfe60808060405260043610156200001457600080fd5b600090813560e01c908163185fcc2c1462000fba57508063354dd82d1462000f1b5780633982ee0c1462000e5757806358dc2cdb1462000bc757806361d698c31462000ba7578063715018a61462000b4557806375f0f223146200036c5780638da5cb5b1462000341578063d6c234a814620001b2578063dd6bacc3146200017a5763f2fde38b14620000a657600080fd5b34620001775760203660031901126200017757620000c362000ffe565b620000cd62001213565b6001600160a01b039081169081156200012357600154826bffffffffffffffffffffffff60a01b821617600155167f8be0079c531659141344cd1fd0a4f28419497f9722a3daafe3b4186f6b6457e0600080a380f35b60405162461bcd60e51b815260206004820152602660248201527f4f776e61626c653a206e6577206f776e657220697320746865207a65726f206160448201526564647265737360d01b6064820152608490fd5b80fd5b50346200017757604036600319011262000177576020620001a86200019e62000ffe565b60243590620012c3565b6040519015158152f35b503462000177576020366003190112620001775760406200033d9160606101008351620001df8162001082565b838152836020820152838582015283838201528360808201528360a08201528360c08201528260e0820152015260043581526002602052206200029a6007604051926200022c8462001082565b8054845260018101546001600160a01b039081166020860152600282015481166040860152600382015460608601526004820154908116608086015260a090811c60ff16151590850152600581015460c08501526200028e60068201620010c3565b60e085015201620010c3565b610100820152604051918291602083528051602084015260018060a01b03602082015116604084015260018060a01b0360408201511660608401526060810151608084015260018060a01b0360808201511660a084015260a0810151151560c084015260c081015160e084015260e08101516101006200032861012092838388015261014087019062001175565b92015190601f19858403019085015262001175565b0390f35b503462000177578060031936011262000177576001546040516001600160a01b039091168152602090f35b5034620001775760a036600319011262000177576200038a62000ffe565b60643567ffffffffffffffff811162000b4157620003ad903690600401620011b7565b9160843567ffffffffffffffff811162000a4657620003d1903690600401620011b7565b90620003dc6200126c565b6001600160a01b0383161562000b05576044351562000acb5783511562000a905781511562000a53576040516331a9108f60e11b81526024803560048301526020908290816001600160a01b0388165afa9081156200098157829162000a06575b50336001600160a01b0390911603620009d1576001600160a01b038316815260036020908152604080832060243584529091528120546200098c576001600160a01b0383163b1562000177576040516323b872dd60e01b8152336004820152306024808301919091523560448201528181606481836001600160a01b0389165af18015620009815790829162000969575b5050604051610f568082019082821067ffffffffffffffff83111762000855579082916200130b8339608081526200051d6200050e608083018962001175565b82810360208401528662001175565b906044356040820152606033910152039082f080156200095c57600454926000198414620009485760018401600455604051956200055b8762001082565b602435875260018060a01b038616602088015260018060a01b03831660408801526044356060880152336080880152600160a08801524260c088015260e087015261010086015260018301825260026020526040822094805186556001860160018060a01b03602083015116906bffffffffffffffffffffffff60a01b9182825416179055600287019060018060a01b0360408401511690825416179055606081015160038701556004860160018060a01b0360808301511681549060ff60a01b60a0850151151560a01b16916affffffffffffffffffffff60a81b161717905560c0810151600587015560e081015180519067ffffffffffffffff821162000934576200066d60068901546200101a565b601f8111620008eb575b50602090601f8311600114620008755761010093929186918362000869575b50508160011b916000199060031b1c19161760068801555b01519384519567ffffffffffffffff87116200085557620006d360078201546200101a565b601f81116200080c575b5060209687601f82116001146200079b5790806007926001989988926200078f575b5050600019600383901b1c191690871b179101555b838060a01b0381168352600386526040832060243584528652838501604084205560405191848060a01b0316825260443586830152336040830152838060a01b031690602435907fa37793983b6cc0efad37d47a6326c7ae43039ed02f25a6c273dd7d777fdd11a4606086880192a455600160405191018152f35b015190503880620006ff565b60078301865288862097865b601f1984168110620007f457509160019798889260079483601f19811610620007da575b505050811b0191015562000714565b015160001960f88460031b161c19169055388080620007cb565b91988a600181928c8501518155019a019201620007a7565b60078201855260208520601f890160051c810160208a106200084d575b601f830160051c8201811062000841575050620006dd565b86815560010162000829565b508062000829565b634e487b7160e01b84526041600452602484fd5b01519050388062000696565b906006890186526020862091865b601f1985168110620008d257509183916001936101009695601f19811610620008b8575b505050811b016006880155620006ae565b015160001960f88460031b161c19169055388080620008a7565b9192602060018192868501518155019401920162000883565b60068901865260208620601f840160051c8101602085106200092c575b601f830160051c820181106200092057505062000677565b87815560010162000908565b508062000908565b634e487b7160e01b85526041600452602485fd5b634e487b7160e01b83526011600452602483fd5b50604051903d90823e3d90fd5b620009749062001057565b62000177578038620004ce565b6040513d84823e3d90fd5b60405162461bcd60e51b815260206004820152601a60248201527f4e465420616c7265616479206672616374696f6e616c697a65640000000000006044820152606490fd5b60405162461bcd60e51b815260206004820152600d60248201526c2737ba1027232a1037bbb732b960991b6044820152606490fd5b90506020813d60201162000a4a575b8162000a2460209383620010a0565b8101031262000a4657516001600160a01b038116810362000a4657386200043d565b5080fd5b3d915062000a15565b60405162461bcd60e51b8152602060048201526015602482015274151bdad95b881cde5b589bdb081c995c5d5a5c9959605a1b6044820152606490fd5b60405162461bcd60e51b8152602060048201526013602482015272151bdad95b881b985b59481c995c5d5a5c9959606a1b6044820152606490fd5b60405162461bcd60e51b81526020600482015260126024820152710537570706c79206d757374206265203e20360741b6044820152606490fd5b60405162461bcd60e51b8152602060048201526014602482015273125b9d985b1a59081391950818dbdb9d1c9858dd60621b6044820152606490fd5b8280fd5b5034620001775780600319360112620001775762000b6262001213565b600180546001600160a01b031981169091556000906001600160a01b03167f8be0079c531659141344cd1fd0a4f28419497f9722a3daafe3b4186f6b6457e08280a380f35b503462000177578060031936011262000177576020600454604051908152f35b5034620001775760208060031936011262000a465760043562000be96200126c565b80835260028252604083206004810160ff815460a01c161562000e1f5760028201546001600160a01b0391908216801562000de1576040516370a0823160e01b8152336004820152908682602481845afa91821562000dd657889262000d9d575b50600385015480920362000d6257908188923b1562000b415760448392604051948593849263079cc67960e41b845233600485015260248401525af1801562000d575762000d3f575b50805460ff60a01b19169055600182015482548692909116803b1562000b41576040516323b872dd60e01b8152306004820152336024820152604481019290925282908290606490829084905af18015620009815762000d23575b50505460405190815233927f22ef9db570288059f173980fa92b801ff0910545fde98e7d1a4ca74c1d92373f91a36001815580f35b62000d2e9062001057565b62000d3b57833862000cee565b8380fd5b62000d4e909691929662001057565b94903862000c93565b6040513d89823e3d90fd5b60405162461bcd60e51b81526004810188905260136024820152724d757374206f776e20616c6c20746f6b656e7360681b6044820152606490fd5b9091508681813d831162000dce575b62000db88183620010a0565b8101031262000dca5751903862000c4a565b8780fd5b503d62000dac565b6040513d8a823e3d90fd5b60405162461bcd60e51b815260048101879052601660248201527524b73b30b634b210333930b1ba34b7b7103a37b5b2b760511b6044820152606490fd5b60405162461bcd60e51b815260048101859052601060248201526f4173736574206e6f742061637469766560801b6044820152606490fd5b5034620001775760203660031901126200017757604090600435815260026020522080546200033d60018060a01b0362000f0b8160018601541694826002820154169260ff60038301549160048401549060058501549362000eca600762000ec260068901620010c3565b9701620010c3565b976040519b8c9b8c5260208c015260408b015260608a01528116608089015260a01c16151560a087015260c08601526101208060e087015285019062001175565b9083820361010085015262001175565b50346200017757604036600319011262000177576001600160a01b038062000f4262000ffe565b1682526003602052604082206024358352602052604082205491821562000f7c576040816020946002935282855220015416604051908152f35b60405162461bcd60e51b8152602060048201526016602482015275139195081b9bdd08199c9858dd1a5bdb985b1a5e995960521b6044820152606490fd5b90503462000a4657604036600319011262000a46576020916040906001600160a01b0362000fe762000ffe565b168152600384528181206024358252845220548152f35b600435906001600160a01b03821682036200101557565b600080fd5b90600182811c921680156200104c575b60208310146200103657565b634e487b7160e01b600052602260045260246000fd5b91607f16916200102a565b67ffffffffffffffff81116200106c57604052565b634e487b7160e01b600052604160045260246000fd5b610120810190811067ffffffffffffffff8211176200106c57604052565b90601f8019910116810190811067ffffffffffffffff8211176200106c57604052565b9060405191826000825492620010d9846200101a565b90818452600194858116908160001462001150575060011462001109575b50506200110792500383620010a0565b565b9093915060005260209081600020936000915b818310620011375750506200110793508201013880620010f7565b855488840185015294850194879450918301916200111c565b9150506200110794506020925060ff191682840152151560051b8201013880620010f7565b919082519283825260005b848110620011a2575050826000602080949584010152601f8019910116010190565b60208183018101518483018201520162001180565b81601f82011215620010155780359067ffffffffffffffff82116200106c5760405192620011f0601f8401601f191660200185620010a0565b828452602083830101116200101557816000926020809301838601378301015290565b6001546001600160a01b031633036200122857565b606460405162461bcd60e51b815260206004820152602060248201527f4f776e61626c653a2063616c6c6572206973206e6f7420746865206f776e65726044820152fd5b6002600054146200127e576002600055565b60405162461bcd60e51b815260206004820152601f60248201527f5265656e7472616e637947756172643a207265656e7472616e742063616c6c006044820152606490fd5b6001600160a01b03166000908152600360209081526040808320938352929052908120548015620013065781526002602052604090206004015460a01c60ff1690565b509056fe604060a0815234620004275762000f56803803806200001e816200042c565b9283398101608082820312620004275781516001600160401b0392908381116200042757826200005091830162000452565b92602092838301519082821162000427576200006e91840162000452565b906060868401519301519460018060a01b0386168096036200042757805191808311620003275760038054936001938486811c961680156200041c575b8987101462000406578190601f96878111620003b0575b50899087831160011462000349576000926200033d575b505060001982841b1c191690841b1781555b8451918211620003275760049485548481811c911680156200031c575b898210146200030757858111620002bc575b508790858411600114620002515793839491849260009562000245575b50501b92600019911b1c19161782555b33608052670de0b6b3a76400009283810293818504149015171562000230578415620001ee575060025490828201809211620001d9575060025560008381528083528481208054830190558451918252917fddf252ad1be2c89b69c2b068fc378daa952ba7f163c4a11628f55a4df523b3ef91a351610a919081620004c5823960805181818161030b01526103640152f35b601190634e487b7160e01b6000525260246000fd5b855162461bcd60e51b815291820184905260248201527f45524332303a206d696e7420746f20746865207a65726f206164647265737300604482015260649150fd5b601182634e487b7160e01b6000525260246000fd5b01519350388062000137565b9190601f1984169287600052848a6000209460005b8c89838310620002a4575050501062000289575b50505050811b01825562000147565b01519060f884600019921b161c19169055388080806200027a565b86860151895590970196948501948893500162000266565b86600052886000208680860160051c8201928b8710620002fd575b0160051c019085905b828110620002f05750506200011a565b60008155018590620002e0565b92508192620002d7565b602287634e487b7160e01b6000525260246000fd5b90607f169062000108565b634e487b7160e01b600052604160045260246000fd5b015190503880620000d9565b90869350601f19831691856000528b6000209260005b8d82821062000399575050841162000380575b505050811b018155620000eb565b015160001983861b60f8161c1916905538808062000372565b8385015186558a979095019493840193016200035f565b90915083600052896000208780850160051c8201928c8610620003fc575b918891869594930160051c01915b828110620003ec575050620000c2565b60008155859450889101620003dc565b92508192620003ce565b634e487b7160e01b600052602260045260246000fd5b95607f1695620000ab565b600080fd5b6040519190601f01601f191682016001600160401b038111838210176200032757604052565b919080601f84011215620004275782516001600160401b038111620003275760209062000488601f8201601f191683016200042c565b92818452828287010111620004275760005b818110620004b057508260009394955001015290565b85810183015184820184015282016200049a56fe608060408181526004918236101561001657600080fd5b600092833560e01c91826306fdde031461069557508163095ea7b31461066b57816318160ddd1461064c57816323b872dd14610582578163313ce5671461056657816339509351146104ff57816370a08231146104c857816379cc67901461033a5781638a71affd146102f657816395d89b41146101d7578163a457c2d71461012f57508063a9059cbb146100ff5763dd62ed3e146100b457600080fd5b346100fb57806003193601126100fb57806020926100d06107ba565b6100d86107d5565b6001600160a01b0391821683526001865283832091168252845220549051908152f35b5080fd5b50346100fb57806003193601126100fb5760209061012861011e6107ba565b60243590336107eb565b5160018152f35b905082346101d457826003193601126101d45761014a6107ba565b918360243592338152600160205281812060018060a01b0386168252602052205490828210610183576020856101288585038733610959565b608490602086519162461bcd60e51b8352820152602560248201527f45524332303a2064656372656173656420616c6c6f77616e63652062656c6f77604482015264207a65726f60d81b6064820152fd5b80fd5b8383346100fb57816003193601126100fb57805190828454600181811c908083169283156102ec575b60209384841081146102d9578388529081156102bd5750600114610268575b505050829003601f01601f191682019267ffffffffffffffff8411838510176102555750829182610251925282610771565b0390f35b634e487b7160e01b815260418552602490fd5b8787529192508591837f8a35acfbc15ff81a39ae7d344fd709f28e8600b4aa8c65c6b64bfe7fe36bd19b5b8385106102a9575050505083010185808061021f565b805488860183015293019284908201610293565b60ff1916878501525050151560051b840101905085808061021f565b634e487b7160e01b895260228a52602489fd5b91607f1691610200565b5050346100fb57816003193601126100fb57517f00000000000000000000000000000000000000000000000000000000000000006001600160a01b03168152602090f35b839150346100fb57826003193601126100fb576103556107ba565b602435906001600160a01b03907f0000000000000000000000000000000000000000000000000000000000000000821633036104855716918215610438578284528360205284842054908282106103ea57508184957fddf252ad1be2c89b69c2b068fc378daa952ba7f163c4a11628f55a4df523b3ef936020938688528785520381872055816002540360025551908152a380f35b608490602087519162461bcd60e51b8352820152602260248201527f45524332303a206275726e20616d6f756e7420657863656564732062616c616e604482015261636560f01b6064820152fd5b608490602086519162461bcd60e51b8352820152602160248201527f45524332303a206275726e2066726f6d20746865207a65726f206164647265736044820152607360f81b6064820152fd5b855162461bcd60e51b8152602081860152601b60248201527f4f6e6c79204672616374696f6e616c4e46542063616e206275726e00000000006044820152606490fd5b5050346100fb5760203660031901126100fb5760209181906001600160a01b036104f06107ba565b16815280845220549051908152f35b8284346101d457816003193601126101d4576105196107ba565b338252600160209081528383206001600160a01b038316845290528282205460243581019290831061055357602084610128858533610959565b634e487b7160e01b815260118552602490fd5b5050346100fb57816003193601126100fb576020905160128152f35b839150346100fb5760603660031901126100fb5761059e6107ba565b6105a66107d5565b91846044359460018060a01b0384168152600160205281812033825260205220549060001982036105e0575b6020866101288787876107eb565b84821061060957509183916105fe6020969561012895033383610959565b9193948193506105d2565b606490602087519162461bcd60e51b8352820152601d60248201527f45524332303a20696e73756666696369656e7420616c6c6f77616e63650000006044820152fd5b5050346100fb57816003193601126100fb576020906002549051908152f35b5050346100fb57806003193601126100fb5760209061012861068b6107ba565b6024359033610959565b8490843461076d578260031936011261076d5782600354600181811c90808316928315610763575b60209384841081146102d9578388529081156102bd575060011461070d57505050829003601f01601f191682019267ffffffffffffffff8411838510176102555750829182610251925282610771565b600387529192508591837fc2575a0e9e593c00f959f8c92f12db2869c3395a3b0502d05e2516446f71f85b5b83851061074f575050505083010185808061021f565b805488860183015293019284908201610739565b91607f16916106bd565b8280fd5b6020808252825181830181905290939260005b8281106107a657505060409293506000838284010152601f8019910116010190565b818101860151848201604001528501610784565b600435906001600160a01b03821682036107d057565b600080fd5b602435906001600160a01b03821682036107d057565b6001600160a01b0390811691821561090657169182156108b55760008281528060205260408120549180831061086157604082827fddf252ad1be2c89b69c2b068fc378daa952ba7f163c4a11628f55a4df523b3ef958760209652828652038282205586815220818154019055604051908152a3565b60405162461bcd60e51b815260206004820152602660248201527f45524332303a207472616e7366657220616d6f756e7420657863656564732062604482015265616c616e636560d01b6064820152608490fd5b60405162461bcd60e51b815260206004820152602360248201527f45524332303a207472616e7366657220746f20746865207a65726f206164647260448201526265737360e81b6064820152608490fd5b60405162461bcd60e51b815260206004820152602560248201527f45524332303a207472616e736665722066726f6d20746865207a65726f206164604482015264647265737360d81b6064820152608490fd5b6001600160a01b03908116918215610a0a57169182156109ba5760207f8c5be1e5ebec7d5bd14f71427d1e84f3dd0314c0f7b2291e5b200ac8c7c3b925918360005260018252604060002085600052825280604060002055604051908152a3565b60405162461bcd60e51b815260206004820152602260248201527f45524332303a20617070726f766520746f20746865207a65726f206164647265604482015261737360f01b6064820152608490fd5b60405162461bcd60e51b8152602060048201526024808201527f45524332303a20617070726f76652066726f6d20746865207a65726f206164646044820152637265737360e01b6064820152608490fdfea2646970667358221220be4c4094552f5606540e1a3e2de2234bdf63b6f3e85df10b378c84c69cea807164736f6c63430008140033a264697066735822122059f21d58bc5841c1c046fc31230a017a26f7454b48a754951fef4664165eebe864736f6c63430008140033",
  "linkReferences": {},
  "deployedLinkReferences": {}
}