{"contracts/QIEOracleTestnet.sol":{"QIEOracleTestnet":{"abi":[{"inputs":[{"internalType":"string","name":"_description","type":"string"},{"internalType":"uint8","name":"_decimals","type":"uint8"}],"stateMutability":"nonpayable","type":"constructor"},{"anonymous":false,"inputs":[{"indexed":true,"internalType":"int256","name":"current","type":"int256"},{"indexed":true,"internalType":"uint256","name":"roundId","type":"uint256"},{"indexed":false,"internalType":"uint256","name":"updatedAt","type":"uint256"}],"name":"AnswerUpdated","type":"event"},{"anonymous":false,"inputs":[{"indexed":true,"internalType":"address","name":"previousOwner","type":"address"},{"indexed":true,"internalType":"address","name":"newOwner","type":"address"}],"name":"OwnershipTransferred","type":"event"},{"inputs":[],"name":"decimals","outputs":[{"internalType":"uint8","name":"","type":"uint8"}],"stateMutability":"view","type":"function"},{"inputs":[],"name":"description","outputs":[{"internalType":"string","name":"","type":"string"}],"stateMutability":"view","type":"function"},{"inputs":[{"internalType":"uint80","name":"_roundId","type":"uint80"}],"name":"getRoundData","outputs":[{"internalType":"uint80","name":"roundId","type":"uint80"},{"internalType":"int256","name":"answer","type":"int256"},{"internalType":"uint256","name":"startedAt","type":"uint256"},{"internalType":"uint256","name":"updatedAt","type":"uint256"},{"internalType":"uint80","name":"answeredInRound","type":"uint80"}],"stateMutability":"view","type":"function"},{"inputs":[],"name":"latestRound","outputs":[{"internalType":"uint80","name":"","type":"uint80"}],"stateMutability":"view","type":"function"},{"inputs":[],"name":"latestRoundData","outputs":[{"internalType":"uint80","name":"roundId","type":"uint80"},{"internalType":"int256","name":"answer","type":"int256"},{"internalType":"uint256","name":"startedAt","type":"uint256"},{"internalType":"uint256","name":"updatedAt","type":"uint256"},{"internalType":"uint80","name":"answeredInRound","type":"uint80"}],"stateMutability":"view","type":"function"},{"inputs":[],"name":"owner","outputs":[{"internalType":"address","name":"","type":"address"}],"stateMutability":"view","type":"function"},{"inputs":[],"name":"renounceOwnership","outputs":[],"stateMutability":"nonpayable","type":"function"},{"inputs":[{"internalType":"uint80","name":"","type":"uint80"}],"name":"rounds","outputs":[{"internalType":"int256","name":"answer","type":"int256"},{"internalType":"uint256","name":"startedAt","type":"uint256"},{"internalType":"uint256","name":"updatedAt","type":"uint256"},{"internalType":"uint80","name":"answeredInRound","type":"uint80"}],"stateMutability":"view","type":"function"},{"inputs":[{"internalType":"address","name":"newOwner","type":"address"}],"name":"transferOwnership","outputs":[],"stateMutability":"nonpayable","type":"function"},{"inputs":[{"internalType":"int256","name":"_answer","type":"int256"}],"name":"updateAnswer","outputs":[],"stateMutability":"nonpayable","type":"function"},{"inputs":[],"name":"version","outputs":[{"internalType":"uint256","name":"","type":"uint256"}],"stateMutability":"view","type":"function"}],"evm":{"bytecode":{"linkReferences":{},"object":"608060405234610269576109d88038038061001981610282565b9283398101906040818303126102695780516001600160401b03929083811161026957820191601f938285850112156102695783519181831161025357602092601f199561006c85888a85011601610282565b95828752858383010111610269579084929160005b82811061026e575050826000918701015201519260ff841684036102695760008054336001600160a01b0319821681178355916001600160a01b03909116907f8be0079c531659141344cd1fd0a4f28419497f9722a3daafe3b4186f6b6457e09080a38051918211610253576003928354956001968781811c91168015610249575b83821014610233578881116101ed575b508197841160011461017e5750506aff0000000000000000000094958291600092610173575b505060001982841b1c191690851b1790555b6002549260045560501b169060018060581b0319161760025560405161073090816102a88239f35b015190503880610139565b83979291971684600052876000209760005b8281106101d857505091869791846aff00000000000000000000989594106101c0575b505050811b01905561014b565b015160001983861b60f8161c191690553880806101b3565b848401518a5598880198938101938101610190565b85600052826000208980870160051c82019285881061022a575b0160051c019088905b82811061021e575050610113565b60008155018890610210565b92508192610207565b634e487b7160e01b600052602260045260246000fd5b90607f1690610103565b634e487b7160e01b600052604160045260246000fd5b600080fd5b818101850151888201860152869401610081565b6040519190601f01601f191682016001600160401b038111838210176102535760405256fe60806040908082526004908136101561001757600080fd5b600090813560e01c9081632ede662f1461060e57508063313ce567146105e957806354fd4d50146105ca578063668a0f02146105a2578063715018a6146105485780637284e416146103ea5780638da5cb5b146103c25780639a6fc8f514610326578063a87a20ce14610248578063f2fde38b1461017a5763feaf968c1461009e57600080fd5b346101775780600319360112610177576001600160501b03908160025416928315610142575061013e9184828560609452600160205220908551956100e287610670565b825496878152600184015492836020830152600360028601549586858501520154169485910152519586958693608093969591929660a08601976001600160501b03809516875260208701526040860152606085015216910152565b0390f35b606490602086519162461bcd60e51b8352820152600f60248201526e139bc819185d18481c1c995cd95b9d608a1b6044820152fd5b80fd5b509134610244576020366003190112610244576001600160a01b03823581811693919290849003610240576101ad6106a2565b83156101ee57505082546001600160a01b0319811683178455167f8be0079c531659141344cd1fd0a4f28419497f9722a3daafe3b4186f6b6457e08380a380f35b906020608492519162461bcd60e51b8352820152602660248201527f4f776e61626c653a206e6577206f776e657220697320746865207a65726f206160448201526564647265737360d01b6064820152fd5b8480fd5b8280fd5b50919034610244576020366003190112610244578035906102676106a2565b6002546001600160501b0391828216908382146103135750916020918160017f0559884fd3a460db3073b7fc896cc77986f16e378210ded43186175bf646fc5f95011690816001600160501b03198092161760025582600388516102ca81610670565b8881528681014281528a82019042825260608301968088528d52600189528b8d20925183555160018301555160028201550192511690825416179055600254169351428152a380f35b634e487b7160e01b875260119052602486fd5b5090346103be5760203660031901126103be578035916001600160501b03918284169081850361024457811515806103b0575b1561037d575091848261013e9460609452600160205220908551956100e287610670565b606490602087519162461bcd60e51b8352820152600d60248201526c125b9d985b1a59081c9bdd5b99609a1b6044820152fd5b508360025416821115610359565b5080fd5b5082346103be57816003193601126103be57905490516001600160a01b039091168152602090f35b50913461024457826003193601126102445780518360035460019581871c87831697881561053e575b6020938483108a1461052b57848798999a848952918260001461050f5750506001146104bb575b5050601f801995869203011683019583871067ffffffffffffffff8811176104a8575085929391838652818452845191828186015281955b8387106104905750508394508582601f949501015201168101030190f35b86810182015189880189015295810195889550610472565b634e487b7160e01b835260419052602482fd5b600385528492507fc2575a0e9e593c00f959f8c92f12db2869c3395a3b0502d05e2516446f71f85b5b8284106104f95750505083018101388061043a565b80548885018601528796509284019281016104e4565b925093505060ff191682860152151560051b840101388061043a565b634e487b7160e01b865260228952602486fd5b90607f1690610413565b50346101775780600319360112610177576105616106a2565b80546001600160a01b03198116825581906001600160a01b03167f8be0079c531659141344cd1fd0a4f28419497f9722a3daafe3b4186f6b6457e08280a380f35b5082346103be57816003193601126103be576020906001600160501b03600254169051908152f35b5091903461024457826003193601126102445760209250549051908152f35b5082346103be57816003193601126103be5760209060ff60025460501c169051908152f35b905083833461066c57602036600319011261066c5735906001600160501b0391828116809103610240578482916080965260016020522090815492600183015490600360028501549401541693855260208501528301526060820152f35b8380fd5b6080810190811067ffffffffffffffff82111761068c57604052565b634e487b7160e01b600052604160045260246000fd5b6000546001600160a01b031633036106b657565b606460405162461bcd60e51b815260206004820152602060248201527f4f776e61626c653a2063616c6c6572206973206e6f7420746865206f776e65726044820152fdfea2646970667358221220bcfa5cfe92e25392e4d8c8f312b443d44d460ea818cc4cf80ca701d2cca9f12764736f6c63430008140033","opcodes":"PUSH1 0x80 PUSH1 0x40 MSTORE CALLVALUE PUSH2 0x269 JUMPI PUSH2 0x9D8 DUP1 CODESIZE SUB DUP1 PUSH2 0x19 DUP2 PUSH2 0x282 JUMP JUMPDEST SWAP3 DUP4 CODECOPY DUP2 ADD SWAP1 PUSH1 0x40 DUP2 DUP4 SUB SLT PUSH2 0x269 JUMPI DUP1 MLOAD PUSH1 0x1 PUSH1 0x1 PUSH1 0x40 SHL SUB SWAP3 SWAP1 DUP4 DUP2 GT PUSH2 0x269 JUMPI DUP3 ADD SWAP2 PUSH1 0x1F SWAP4 DUP3 DUP6 DUP6 ADD SLT ISZERO PUSH2 0x269 JUMPI DUP4 MLOAD SWAP2 DUP2 DUP4 GT PUSH2 0x253 JUMPI PUSH1 0x20 SWAP3 PUSH1 0x1F NOT SWAP6 PUSH2 0x6C DUP6 DUP9 DUP11 DUP6 ADD AND ADD PUSH2 0x282 JUMP JUMPDEST SWAP6 DUP3 DUP8 MSTORE DUP6 DUP4 DUP4 ADD ADD GT PUSH2 0x269 JUMPI SWAP1 DUP5 SWAP3 SWAP2 PUSH1 0x0 JUMPDEST DUP3 DUP2 LT PUSH2 0x26E JUMPI POP POP DUP3 PUSH1 0x0 SWAP2 DUP8 ADD ADD MSTORE ADD MLOAD SWAP3 PUSH1 0xFF DUP5 AND DUP5 SUB PUSH2 0x269 JUMPI PUSH1 0x0 DUP1 SLOAD CALLER PUSH1 0x1 PUSH1 0x1 PUSH1 0xA0 SHL SUB NOT DUP3 AND DUP2 OR DUP4 SSTORE SWAP2 PUSH1 0x1 PUSH1 0x1 PUSH1 0xA0 SHL SUB SWAP1 SWAP2 AND SWAP1 PUSH32 0x8BE0079C531659141344CD1FD0A4F28419497F9722A3DAAFE3B4186F6B6457E0 SWAP1 DUP1 LOG3 DUP1 MLOAD SWAP2 DUP3 GT PUSH2 0x253 JUMPI PUSH1 0x3 SWAP3 DUP4 SLOAD SWAP6 PUSH1 0x1 SWAP7 DUP8 DUP2 DUP2 SHR SWAP2 AND DUP1 ISZERO PUSH2 0x249 JUMPI JUMPDEST DUP4 DUP3 LT EQ PUSH2 0x233 JUMPI DUP9 DUP2 GT PUSH2 0x1ED JUMPI JUMPDEST POP DUP2 SWAP8 DUP5 GT PUSH1 0x1 EQ PUSH2 0x17E JUMPI POP POP PUSH11 0xFF00000000000000000000 SWAP5 SWAP6 DUP3 SWAP2 PUSH1 0x0 SWAP3 PUSH2 0x173 JUMPI JUMPDEST POP POP PUSH1 0x0 NOT DUP3 DUP5 SHL SHR NOT AND SWAP1 DUP6 SHL OR SWAP1 SSTORE JUMPDEST PUSH1 0x2 SLOAD SWAP3 PUSH1 0x4 SSTORE PUSH1 0x50 SHL AND SWAP1 PUSH1 0x1 DUP1 PUSH1 0x58 SHL SUB NOT AND OR PUSH1 0x2 SSTORE PUSH1 0x40 MLOAD PUSH2 0x730 SWAP1 DUP2 PUSH2 0x2A8 DUP3 CODECOPY RETURN JUMPDEST ADD MLOAD SWAP1 POP CODESIZE DUP1 PUSH2 0x139 JUMP JUMPDEST DUP4 SWAP8 SWAP3 SWAP2 SWAP8 AND DUP5 PUSH1 0x0 MSTORE DUP8 PUSH1 0x0 KECCAK256 SWAP8 PUSH1 0x0 JUMPDEST DUP3 DUP2 LT PUSH2 0x1D8 JUMPI POP POP SWAP2 DUP7 SWAP8 SWAP2 DUP5 PUSH11 0xFF00000000000000000000 SWAP9 SWAP6 SWAP5 LT PUSH2 0x1C0 JUMPI JUMPDEST POP POP POP DUP2 SHL ADD SWAP1 SSTORE PUSH2 0x14B JUMP JUMPDEST ADD MLOAD PUSH1 0x0 NOT DUP4 DUP7 SHL PUSH1 0xF8 AND SHR NOT AND SWAP1 SSTORE CODESIZE DUP1 DUP1 PUSH2 0x1B3 JUMP JUMPDEST DUP5 DUP5 ADD MLOAD DUP11 SSTORE SWAP9 DUP9 ADD SWAP9 SWAP4 DUP2 ADD SWAP4 DUP2 ADD PUSH2 0x190 JUMP JUMPDEST DUP6 PUSH1 0x0 MSTORE DUP3 PUSH1 0x0 KECCAK256 DUP10 DUP1 DUP8 ADD PUSH1 0x5 SHR DUP3 ADD SWAP3 DUP6 DUP9 LT PUSH2 0x22A JUMPI JUMPDEST ADD PUSH1 0x5 SHR ADD SWAP1 DUP9 SWAP1 JUMPDEST DUP3 DUP2 LT PUSH2 0x21E JUMPI POP POP PUSH2 0x113 JUMP JUMPDEST PUSH1 0x0 DUP2 SSTORE ADD DUP9 SWAP1 PUSH2 0x210 JUMP JUMPDEST SWAP3 POP DUP2 SWAP3 PUSH2 0x207 JUMP JUMPDEST PUSH4 0x4E487B71 PUSH1 0xE0 SHL PUSH1 0x0 MSTORE PUSH1 0x22 PUSH1 0x4 MSTORE PUSH1 0x24 PUSH1 0x0 REVERT JUMPDEST SWAP1 PUSH1 0x7F AND SWAP1 PUSH2 0x103 JUMP JUMPDEST PUSH4 0x4E487B71 PUSH1 0xE0 SHL PUSH1 0x0 MSTORE PUSH1 0x41 PUSH1 0x4 MSTORE PUSH1 0x24 PUSH1 0x0 REVERT JUMPDEST PUSH1 0x0 DUP1 REVERT JUMPDEST DUP2 DUP2 ADD DUP6 ADD MLOAD DUP9 DUP3 ADD DUP7 ADD MSTORE DUP7 SWAP5 ADD PUSH2 0x81 JUMP JUMPDEST PUSH1 0x40 MLOAD SWAP2 SWAP1 PUSH1 0x1F ADD PUSH1 0x1F NOT AND DUP3 ADD PUSH1 0x1 PUSH1 0x1 PUSH1 0x40 SHL SUB DUP2 GT DUP4 DUP3 LT OR PUSH2 0x253 JUMPI PUSH1 0x40 MSTORE JUMP INVALID PUSH1 0x80 PUSH1 0x40 SWAP1 DUP1 DUP3 MSTORE PUSH1 0x4 SWAP1 DUP2 CALLDATASIZE LT ISZERO PUSH2 0x17 JUMPI PUSH1 0x0 DUP1 REVERT JUMPDEST PUSH1 0x0 SWAP1 DUP2 CALLDATALOAD PUSH1 0xE0 SHR SWAP1 DUP2 PUSH4 0x2EDE662F EQ PUSH2 0x60E JUMPI POP DUP1 PUSH4 0x313CE567 EQ PUSH2 0x5E9 JUMPI DUP1 PUSH4 0x54FD4D50 EQ PUSH2 0x5CA JUMPI DUP1 PUSH4 0x668A0F02 EQ PUSH2 0x5A2 JUMPI DUP1 PUSH4 0x715018A6 EQ PUSH2 0x548 JUMPI DUP1 PUSH4 0x7284E416 EQ PUSH2 0x3EA JUMPI DUP1 PUSH4 0x8DA5CB5B EQ PUSH2 0x3C2 JUMPI DUP1 PUSH4 0x9A6FC8F5 EQ PUSH2 0x326 JUMPI DUP1 PUSH4 0xA87A20CE EQ PUSH2 0x248 JUMPI DUP1 PUSH4 0xF2FDE38B EQ PUSH2 0x17A JUMPI PUSH4 0xFEAF968C EQ PUSH2 0x9E JUMPI PUSH1 0x0 DUP1 REVERT JUMPDEST CALLVALUE PUSH2 0x177 JUMPI DUP1 PUSH1 0x3 NOT CALLDATASIZE ADD SLT PUSH2 0x177 JUMPI PUSH1 0x1 PUSH1 0x1 PUSH1 0x50 SHL SUB SWAP1 DUP2 PUSH1 0x2 SLOAD AND SWAP3 DUP4 ISZERO PUSH2 0x142 JUMPI POP PUSH2 0x13E SWAP2 DUP5 DUP3 DUP6 PUSH1 0x60 SWAP5 MSTORE PUSH1 0x1 PUSH1 0x20 MSTORE KECCAK256 SWAP1 DUP6 MLOAD SWAP6 PUSH2 0xE2 DUP8 PUSH2 0x670 JUMP JUMPDEST DUP3 SLOAD SWAP7 DUP8 DUP2 MSTORE PUSH1 0x1 DUP5 ADD SLOAD SWAP3 DUP4 PUSH1 0x20 DUP4 ADD MSTORE PUSH1 0x3 PUSH1 0x2 DUP7 ADD SLOAD SWAP6 DUP7 DUP6 DUP6 ADD MSTORE ADD SLOAD AND SWAP5 DUP6 SWAP2 ADD MSTORE MLOAD SWAP6 DUP7 SWAP6 DUP7 SWAP4 PUSH1 0x80 SWAP4 SWAP7 SWAP6 SWAP2 SWAP3 SWAP7 PUSH1 0xA0 DUP7 ADD SWAP8 PUSH1 0x1 PUSH1 0x1 PUSH1 0x50 SHL SUB DUP1 SWAP6 AND DUP8 MSTORE PUSH1 0x20 DUP8 ADD MSTORE PUSH1 0x40 DUP7 ADD MSTORE PUSH1 0x60 DUP6 ADD MSTORE AND SWAP2 ADD MSTORE JUMP JUMPDEST SUB SWAP1 RETURN JUMPDEST PUSH1 0x64 SWAP1 PUSH1 0x20 DUP7 MLOAD SWAP2 PUSH3 0x461BCD PUSH1 0xE5 SHL DUP4 MSTORE DUP3 ADD MSTORE PUSH1 0xF PUSH1 0x24 DUP3 ADD MSTORE PUSH15 0x139BC819185D18481C1C995CD95B9D PUSH1 0x8A SHL PUSH1 0x44 DUP3 ADD MSTORE REVERT JUMPDEST DUP1 REVERT JUMPDEST POP SWAP2 CALLVALUE PUSH2 0x244 JUMPI PUSH1 0x20 CALLDATASIZE PUSH1 0x3 NOT ADD SLT PUSH2 0x244 JUMPI PUSH1 0x1 PUSH1 0x1 PUSH1 0xA0 SHL SUB DUP3 CALLDATALOAD DUP2 DUP2 AND SWAP4 SWAP2 SWAP3 SWAP1 DUP5 SWAP1 SUB PUSH2 0x240 JUMPI PUSH2 0x1AD PUSH2 0x6A2 JUMP JUMPDEST DUP4 ISZERO PUSH2 0x1EE JUMPI POP POP DUP3 SLOAD PUSH1 0x1 PUSH1 0x1 PUSH1 0xA0 SHL SUB NOT DUP2 AND DUP4 OR DUP5 SSTORE AND PUSH32 0x8BE0079C531659141344CD1FD0A4F28419497F9722A3DAAFE3B4186F6B6457E0 DUP4 DUP1 LOG3 DUP1 RETURN JUMPDEST SWAP1 PUSH1 0x20 PUSH1 0x84 SWAP3 MLOAD SWAP2 PUSH3 0x461BCD PUSH1 0xE5 SHL DUP4 MSTORE DUP3 ADD MSTORE PUSH1 0x26 PUSH1 0x24 DUP3 ADD MSTORE PUSH32 0x4F776E61626C653A206E6577206F776E657220697320746865207A65726F2061 PUSH1 0x44 DUP3 ADD MSTORE PUSH6 0x646472657373 PUSH1 0xD0 SHL PUSH1 0x64 DUP3 ADD MSTORE REVERT JUMPDEST DUP5 DUP1 REVERT JUMPDEST DUP3 DUP1 REVERT JUMPDEST POP SWAP2 SWAP1 CALLVALUE PUSH2 0x244 JUMPI PUSH1 0x20 CALLDATASIZE PUSH1 0x3 NOT ADD SLT PUSH2 0x244 JUMPI DUP1 CALLDATALOAD SWAP1 PUSH2 0x267 PUSH2 0x6A2 JUMP JUMPDEST PUSH1 0x2 SLOAD PUSH1 0x1 PUSH1 0x1 PUSH1 0x50 SHL SUB SWAP2 DUP3 DUP3 AND SWAP1 DUP4 DUP3 EQ PUSH2 0x313 JUMPI POP SWAP2 PUSH1 0x20 SWAP2 DUP2 PUSH1 0x1 PUSH32 0x559884FD3A460DB3073B7FC896CC77986F16E378210DED43186175BF646FC5F SWAP6 ADD AND SWAP1 DUP2 PUSH1 0x1 PUSH1 0x1 PUSH1 0x50 SHL SUB NOT DUP1 SWAP3 AND OR PUSH1 0x2 SSTORE DUP3 PUSH1 0x3 DUP9 MLOAD PUSH2 0x2CA DUP2 PUSH2 0x670 JUMP JUMPDEST DUP9 DUP2 MSTORE DUP7 DUP2 ADD TIMESTAMP DUP2 MSTORE DUP11 DUP3 ADD SWAP1 TIMESTAMP DUP3 MSTORE PUSH1 0x60 DUP4 ADD SWAP7 DUP1 DUP9 MSTORE DUP14 MSTORE PUSH1 0x1 DUP10 MSTORE DUP12 DUP14 KECCAK256 SWAP3 MLOAD DUP4 SSTORE MLOAD PUSH1 0x1 DUP4 ADD SSTORE MLOAD PUSH1 0x2 DUP3 ADD SSTORE ADD SWAP3 MLOAD AND SWAP1 DUP3 SLOAD AND OR SWAP1 SSTORE PUSH1 0x2 SLOAD AND SWAP4 MLOAD TIMESTAMP DUP2 MSTORE LOG3 DUP1 RETURN JUMPDEST PUSH4 0x4E487B71 PUSH1 0xE0 SHL DUP8 MSTORE PUSH1 0x11 SWAP1 MSTORE PUSH1 0x24 DUP7 REVERT JUMPDEST POP SWAP1 CALLVALUE PUSH2 0x3BE JUMPI PUSH1 0x20 CALLDATASIZE PUSH1 0x3 NOT ADD SLT PUSH2 0x3BE JUMPI DUP1 CALLDATALOAD SWAP2 PUSH1 0x1 PUSH1 0x1 PUSH1 0x50 SHL SUB SWAP2 DUP3 DUP5 AND SWAP1 DUP2 DUP6 SUB PUSH2 0x244 JUMPI DUP2 ISZERO ISZERO DUP1 PUSH2 0x3B0 JUMPI JUMPDEST ISZERO PUSH2 0x37D JUMPI POP SWAP2 DUP5 DUP3 PUSH2 0x13E SWAP5 PUSH1 0x60 SWAP5 MSTORE PUSH1 0x1 PUSH1 0x20 MSTORE KECCAK256 SWAP1 DUP6 MLOAD SWAP6 PUSH2 0xE2 DUP8 PUSH2 0x670 JUMP JUMPDEST PUSH1 0x64 SWAP1 PUSH1 0x20 DUP8 MLOAD SWAP2 PUSH3 0x461BCD PUSH1 0xE5 SHL DUP4 MSTORE DUP3 ADD MSTORE PUSH1 0xD PUSH1 0x24 DUP3 ADD MSTORE PUSH13 0x125B9D985B1A59081C9BDD5B99 PUSH1 0x9A SHL PUSH1 0x44 DUP3 ADD MSTORE REVERT JUMPDEST POP DUP4 PUSH1 0x2 SLOAD AND DUP3 GT ISZERO PUSH2 0x359 JUMP JUMPDEST POP DUP1 REVERT JUMPDEST POP DUP3 CALLVALUE PUSH2 0x3BE JUMPI DUP2 PUSH1 0x3 NOT CALLDATASIZE ADD SLT PUSH2 0x3BE JUMPI SWAP1 SLOAD SWAP1 MLOAD PUSH1 0x1 PUSH1 0x1 PUSH1 0xA0 SHL SUB SWAP1 SWAP2 AND DUP2 MSTORE PUSH1 0x20 SWAP1 RETURN JUMPDEST POP SWAP2 CALLVALUE PUSH2 0x244 JUMPI DUP3 PUSH1 0x3 NOT CALLDATASIZE ADD SLT PUSH2 0x244 JUMPI DUP1 MLOAD DUP4 PUSH1 0x3 SLOAD PUSH1 0x1 SWAP6 DUP2 DUP8 SHR DUP8 DUP4 AND SWAP8 DUP9 ISZERO PUSH2 0x53E JUMPI JUMPDEST PUSH1 0x20 SWAP4 DUP5 DUP4 LT DUP11 EQ PUSH2 0x52B JUMPI DUP5 DUP8 SWAP9 SWAP10 SWAP11 DUP5 DUP10 MSTORE SWAP2 DUP3 PUSH1 0x0 EQ PUSH2 0x50F JUMPI POP POP PUSH1 0x1 EQ PUSH2 0x4BB JUMPI JUMPDEST POP POP PUSH1 0x1F DUP1 NOT SWAP6 DUP7 SWAP3 SUB ADD AND DUP4 ADD SWAP6 DUP4 DUP8 LT PUSH8 0xFFFFFFFFFFFFFFFF DUP9 GT OR PUSH2 0x4A8 JUMPI POP DUP6 SWAP3 SWAP4 SWAP2 DUP4 DUP7 MSTORE DUP2 DUP5 MSTORE DUP5 MLOAD SWAP2 DUP3 DUP2 DUP7 ADD MSTORE DUP2 SWAP6 JUMPDEST DUP4 DUP8 LT PUSH2 0x490 JUMPI POP POP DUP4 SWAP5 POP DUP6 DUP3 PUSH1 0x1F SWAP5 SWAP6 ADD ADD MSTORE ADD AND DUP2 ADD SUB ADD SWAP1 RETURN JUMPDEST DUP7 DUP2 ADD DUP3 ADD MLOAD DUP10 DUP9 ADD DUP10 ADD MSTORE SWAP6 DUP2 ADD SWAP6 DUP9 SWAP6 POP PUSH2 0x472 JUMP JUMPDEST PUSH4 0x4E487B71 PUSH1 0xE0 SHL DUP4 MSTORE PUSH1 0x41 SWAP1 MSTORE PUSH1 0x24 DUP3 REVERT JUMPDEST PUSH1 0x3 DUP6 MSTORE DUP5 SWAP3 POP PUSH32 0xC2575A0E9E593C00F959F8C92F12DB2869C3395A3B0502D05E2516446F71F85B JUMPDEST DUP3 DUP5 LT PUSH2 0x4F9 JUMPI POP POP POP DUP4 ADD DUP2 ADD CODESIZE DUP1 PUSH2 0x43A JUMP JUMPDEST DUP1 SLOAD DUP9 DUP6 ADD DUP7 ADD MSTORE DUP8 SWAP7 POP SWAP3 DUP5 ADD SWAP3 DUP2 ADD PUSH2 0x4E4 JUMP JUMPDEST SWAP3 POP SWAP4 POP POP PUSH1 0xFF NOT AND DUP3 DUP7 ADD MSTORE ISZERO ISZERO PUSH1 0x5 SHL DUP5 ADD ADD CODESIZE DUP1 PUSH2 0x43A JUMP JUMPDEST PUSH4 0x4E487B71 PUSH1 0xE0 SHL DUP7 MSTORE PUSH1 0x22 DUP10 MSTORE PUSH1 0x24 DUP7 REVERT JUMPDEST SWAP1 PUSH1 0x7F AND SWAP1 PUSH2 0x413 JUMP JUMPDEST POP CALLVALUE PUSH2 0x177 JUMPI DUP1 PUSH1 0x3 NOT CALLDATASIZE ADD SLT PUSH2 0x177 JUMPI PUSH2 0x561 PUSH2 0x6A2 JUMP JUMPDEST DUP1 SLOAD PUSH1 0x1 PUSH1 0x1 PUSH1 0xA0 SHL SUB NOT DUP2 AND DUP3 SSTORE DUP2 SWAP1 PUSH1 0x1 PUSH1 0x1 PUSH1 0xA0 SHL SUB AND PUSH32 0x8BE0079C531659141344CD1FD0A4F28419497F9722A3DAAFE3B4186F6B6457E0 DUP3 DUP1 LOG3 DUP1 RETURN JUMPDEST POP DUP3 CALLVALUE PUSH2 0x3BE JUMPI DUP2 PUSH1 0x3 NOT CALLDATASIZE ADD SLT PUSH2 0x3BE JUMPI PUSH1 0x20 SWAP1 PUSH1 0x1 PUSH1 0x1 PUSH1 0x50 SHL SUB PUSH1 0x2 SLOAD AND SWAP1 MLOAD SWAP1 DUP2 MSTORE RETURN JUMPDEST POP SWAP2 SWAP1 CALLVALUE PUSH2 0x244 JUMPI DUP3 PUSH1 0x3 NOT CALLDATASIZE ADD SLT PUSH2 0x244 JUMPI PUSH1 0x20 SWAP3 POP SLOAD SWAP1 MLOAD SWAP1 DUP2 MSTORE RETURN JUMPDEST POP DUP3 CALLVALUE PUSH2 0x3BE JUMPI DUP2 PUSH1 0x3 NOT CALLDATASIZE ADD SLT PUSH2 0x3BE JUMPI PUSH1 0x20 SWAP1 PUSH1 0xFF PUSH1 0x2 SLOAD PUSH1 0x50 SHR AND SWAP1 MLOAD SWAP1 DUP2 MSTORE RETURN JUMPDEST SWAP1 POP DUP4 DUP4 CALLVALUE PUSH2 0x66C JUMPI PUSH1 0x20 CALLDATASIZE PUSH1 0x3 NOT ADD SLT PUSH2 0x66C JUMPI CALLDATALOAD SWAP1 PUSH1 0x1 PUSH1 0x1 PUSH1 0x50 SHL SUB SWAP2 DUP3 DUP2 AND DUP1 SWAP2 SUB PUSH2 0x240 JUMPI DUP5 DUP3 SWAP2 PUSH1 0x80 SWAP7 MSTORE PUSH1 0x1 PUSH1 0x20 MSTORE KECCAK256 SWAP1 DUP2 SLOAD SWAP3 PUSH1 0x1 DUP4 ADD SLOAD SWAP1 PUSH1 0x3 PUSH1 0x2 DUP6 ADD SLOAD SWAP5 ADD SLOAD AND SWAP4 DUP6 MSTORE PUSH1 0x20 DUP6 ADD MSTORE DUP4 ADD MSTORE PUSH1 0x60 DUP3 ADD MSTORE RETURN JUMPDEST DUP4 DUP1 REVERT JUMPDEST PUSH1 0x80 DUP2 ADD SWAP1 DUP2 LT PUSH8 0xFFFFFFFFFFFFFFFF DUP3 GT OR PUSH2 0x68C JUMPI PUSH1 0x40 MSTORE JUMP JUMPDEST PUSH4 0x4E487B71 PUSH1 0xE0 SHL PUSH1 0x0 MSTORE PUSH1 0x41 PUSH1 0x4 MSTORE PUSH1 0x24 PUSH1 0x0 REVERT JUMPDEST PUSH1 0x0 SLOAD PUSH1 0x1 PUSH1 0x1 PUSH1 0xA0 SHL SUB AND CALLER SUB PUSH2 0x6B6 JUMPI JUMP JUMPDEST PUSH1 0x64 PUSH1 0x40 MLOAD PUSH3 0x461BCD PUSH1 0xE5 SHL DUP2 MSTORE PUSH1 0x20 PUSH1 0x4 DUP3 ADD MSTORE PUSH1 0x20 PUSH1 0x24 DUP3 ADD MSTORE PUSH32 0x4F776E61626C653A2063616C6C6572206973206E6F7420746865206F776E6572 PUSH1 0x44 DUP3 ADD MSTORE REVERT INVALID LOG2 PUSH5 0x6970667358 0x22 SLT KECCAK256 0xBC STATICCALL 0x5C INVALID SWAP3 0xE2 MSTORE8 SWAP3 0xE4 0xD8 0xC8 RETURN SLT 0xB4 NUMBER 0xD4 0x4D CHAINID 0xE 0xA8 XOR 0xCC 0x4C 0xF8 0xC 0xA7 ADD 0xD2 0xCC 0xA9 CALL 0x27 PUSH5 0x736F6C6343 STOP ADDMOD EQ STOP CALLER "},"methodIdentifiers":{"decimals()":"313ce567","description()":"7284e416","getRoundData(uint80)":"9a6fc8f5","latestRound()":"668a0f02","latestRoundData()":"feaf968c","owner()":"8da5cb5b","renounceOwnership()":"715018a6","rounds(uint80)":"2ede662f","transferOwnership(address)":"f2fde38b","updateAnswer(int256)":"a87a20ce","version()":"54fd4d50"}}}}}