{"contracts/FractionalNFT.sol":{"FractionalNFT":{"abi":[{"inputs":[],"stateMutability":"nonpayable","type":"constructor"},{"anonymous":false,"inputs":[{"indexed":true,"internalType":"uint256","name":"fractionalId","type":"uint256"},{"indexed":true,"internalType":"uint256","name":"nftTokenId","type":"uint256"},{"indexed":true,"internalType":"address","name":"nftContract","type":"address"},{"indexed":false,"internalType":"address","name":"fractionToken","type":"address"},{"indexed":false,"internalType":"uint256","name":"totalSupply","type":"uint256"},{"indexed":false,"internalType":"address","name":"creator","type":"address"}],"name":"AssetFractionalized","type":"event"},{"anonymous":false,"inputs":[{"indexed":true,"internalType":"uint256","name":"fractionalId","type":"uint256"},{"indexed":true,"internalType":"address","name":"redeemer","type":"address"},{"indexed":false,"internalType":"uint256","name":"nftTokenId","type":"uint256"}],"name":"AssetRedeemed","type":"event"},{"anonymous":false,"inputs":[{"indexed":true,"internalType":"address","name":"previousOwner","type":"address"},{"indexed":true,"internalType":"address","name":"newOwner","type":"address"}],"name":"OwnershipTransferred","type":"event"},{"anonymous":false,"inputs":[{"indexed":true,"internalType":"uint256","name":"fractionalId","type":"uint256"},{"indexed":true,"internalType":"address","name":"burner","type":"address"},{"indexed":false,"internalType":"uint256","name":"amount","type":"uint256"}],"name":"TokensBurned","type":"event"},{"inputs":[{"internalType":"address","name":"nftContract","type":"address"},{"internalType":"uint256","name":"nftTokenId","type":"uint256"},{"internalType":"uint256","name":"tokenSupply","type":"uint256"},{"internalType":"string","name":"tokenName","type":"string"},{"internalType":"string","name":"tokenSymbol","type":"string"}],"name":"fractionalizeNFT","outputs":[{"internalType":"uint256","name":"","type":"uint256"}],"stateMutability":"nonpayable","type":"function"},{"inputs":[{"internalType":"uint256","name":"","type":"uint256"}],"name":"fractionalizedAssets","outputs":[{"internalType":"uint256","name":"nftTokenId","type":"uint256"},{"internalType":"address","name":"nftContract","type":"address"},{"internalType":"address","name":"fractionToken","type":"address"},{"internalType":"uint256","name":"totalSupply","type":"uint256"},{"internalType":"address","name":"creator","type":"address"},{"internalType":"bool","name":"isActive","type":"bool"},{"internalType":"uint256","name":"createdAt","type":"uint256"},{"internalType":"string","name":"tokenName","type":"string"},{"internalType":"string","name":"tokenSymbol","type":"string"}],"stateMutability":"view","type":"function"},{"inputs":[],"name":"fractionalizedCount","outputs":[{"internalType":"uint256","name":"","type":"uint256"}],"stateMutability":"view","type":"function"},{"inputs":[{"internalType":"address","name":"nftContract","type":"address"},{"internalType":"uint256","name":"nftTokenId","type":"uint256"}],"name":"getFractionTokenAddress","outputs":[{"internalType":"address","name":"","type":"address"}],"stateMutability":"view","type":"function"},{"inputs":[{"internalType":"uint256","name":"fractionalId","type":"uint256"}],"name":"getFractionalAsset","outputs":[{"components":[{"internalType":"uint256","name":"nftTokenId","type":"uint256"},{"internalType":"address","name":"nftContract","type":"address"},{"internalType":"address","name":"fractionToken","type":"address"},{"internalType":"uint256","name":"totalSupply","type":"uint256"},{"internalType":"address","name":"creator","type":"address"},{"internalType":"bool","name":"isActive","type":"bool"},{"internalType":"uint256","name":"createdAt","type":"uint256"},{"internalType":"string","name":"tokenName","type":"string"},{"internalType":"string","name":"tokenSymbol","type":"string"}],"internalType":"struct FractionalNFT.FractionalAsset","name":"","type":"tuple"}],"stateMutability":"view","type":"function"},{"inputs":[{"internalType":"address","name":"nftContract","type":"address"},{"internalType":"uint256","name":"nftTokenId","type":"uint256"}],"name":"isFractionalized","outputs":[{"internalType":"bool","name":"","type":"bool"}],"stateMutability":"view","type":"function"},{"inputs":[{"internalType":"address","name":"","type":"address"},{"internalType":"uint256","name":"","type":"uint256"}],"name":"nftToFractionalId","outputs":[{"internalType":"uint256","name":"","type":"uint256"}],"stateMutability":"view","type":"function"},{"inputs":[],"name":"owner","outputs":[{"internalType":"address","name":"","type":"address"}],"stateMutability":"view","type":"function"},{"inputs":[{"internalType":"uint256","name":"fractionalId","type":"uint256"}],"name":"redeemNFT","outputs":[],"stateMutability":"nonpayable","type":"function"},{"inputs":[],"name":"renounceOwnership","outputs":[],"stateMutability":"nonpayable","type":"function"},{"inputs":[{"internalType":"address","name":"newOwner","type":"address"}],"name":"transferOwnership","outputs":[],"stateMutability":"nonpayable","type":"function"}],"evm":{"bytecode":{"linkReferences":{},"object":"6080806040523461005e57600160008181558154336001600160a01b0319821681179093556001600160a01b0316907f8be0079c531659141344cd1fd0a4f28419497f9722a3daafe3b4186f6b6457e09080a361229690816100648239f35b600080fdfe60808060405260043610156200001457600080fd5b600090813560e01c908163185fcc2c1462000fba57508063354dd82d1462000f1b5780633982ee0c1462000e5757806358dc2cdb1462000bc757806361d698c31462000ba7578063715018a61462000b4557806375f0f223146200036c5780638da5cb5b1462000341578063d6c234a814620001b2578063dd6bacc3146200017a5763f2fde38b14620000a657600080fd5b34620001775760203660031901126200017757620000c362000ffe565b620000cd62001213565b6001600160a01b039081169081156200012357600154826bffffffffffffffffffffffff60a01b821617600155167f8be0079c531659141344cd1fd0a4f28419497f9722a3daafe3b4186f6b6457e0600080a380f35b60405162461bcd60e51b815260206004820152602660248201527f4f776e61626c653a206e6577206f776e657220697320746865207a65726f206160448201526564647265737360d01b6064820152608490fd5b80fd5b50346200017757604036600319011262000177576020620001a86200019e62000ffe565b60243590620012c3565b6040519015158152f35b503462000177576020366003190112620001775760406200033d9160606101008351620001df8162001082565b838152836020820152838582015283838201528360808201528360a08201528360c08201528260e0820152015260043581526002602052206200029a6007604051926200022c8462001082565b8054845260018101546001600160a01b039081166020860152600282015481166040860152600382015460608601526004820154908116608086015260a090811c60ff16151590850152600581015460c08501526200028e60068201620010c3565b60e085015201620010c3565b610100820152604051918291602083528051602084015260018060a01b03602082015116604084015260018060a01b0360408201511660608401526060810151608084015260018060a01b0360808201511660a084015260a0810151151560c084015260c081015160e084015260e08101516101006200032861012092838388015261014087019062001175565b92015190601f19858403019085015262001175565b0390f35b503462000177578060031936011262000177576001546040516001600160a01b039091168152602090f35b5034620001775760a036600319011262000177576200038a62000ffe565b60643567ffffffffffffffff811162000b4157620003ad903690600401620011b7565b9160843567ffffffffffffffff811162000a4657620003d1903690600401620011b7565b90620003dc6200126c565b6001600160a01b0383161562000b05576044351562000acb5783511562000a905781511562000a53576040516331a9108f60e11b81526024803560048301526020908290816001600160a01b0388165afa9081156200098157829162000a06575b50336001600160a01b0390911603620009d1576001600160a01b038316815260036020908152604080832060243584529091528120546200098c576001600160a01b0383163b1562000177576040516323b872dd60e01b8152336004820152306024808301919091523560448201528181606481836001600160a01b0389165af18015620009815790829162000969575b5050604051610f568082019082821067ffffffffffffffff83111762000855579082916200130b8339608081526200051d6200050e608083018962001175565b82810360208401528662001175565b906044356040820152606033910152039082f080156200095c57600454926000198414620009485760018401600455604051956200055b8762001082565b602435875260018060a01b038616602088015260018060a01b03831660408801526044356060880152336080880152600160a08801524260c088015260e087015261010086015260018301825260026020526040822094805186556001860160018060a01b03602083015116906bffffffffffffffffffffffff60a01b9182825416179055600287019060018060a01b0360408401511690825416179055606081015160038701556004860160018060a01b0360808301511681549060ff60a01b60a0850151151560a01b16916affffffffffffffffffffff60a81b161717905560c0810151600587015560e081015180519067ffffffffffffffff821162000934576200066d60068901546200101a565b601f8111620008eb575b50602090601f8311600114620008755761010093929186918362000869575b50508160011b916000199060031b1c19161760068801555b01519384519567ffffffffffffffff87116200085557620006d360078201546200101a565b601f81116200080c575b5060209687601f82116001146200079b5790806007926001989988926200078f575b5050600019600383901b1c191690871b179101555b838060a01b0381168352600386526040832060243584528652838501604084205560405191848060a01b0316825260443586830152336040830152838060a01b031690602435907fa37793983b6cc0efad37d47a6326c7ae43039ed02f25a6c273dd7d777fdd11a4606086880192a455600160405191018152f35b015190503880620006ff565b60078301865288862097865b601f1984168110620007f457509160019798889260079483601f19811610620007da575b505050811b0191015562000714565b015160001960f88460031b161c19169055388080620007cb565b91988a600181928c8501518155019a019201620007a7565b60078201855260208520601f890160051c810160208a106200084d575b601f830160051c8201811062000841575050620006dd565b86815560010162000829565b508062000829565b634e487b7160e01b84526041600452602484fd5b01519050388062000696565b906006890186526020862091865b601f1985168110620008d257509183916001936101009695601f19811610620008b8575b505050811b016006880155620006ae565b015160001960f88460031b161c19169055388080620008a7565b9192602060018192868501518155019401920162000883565b60068901865260208620601f840160051c8101602085106200092c575b601f830160051c820181106200092057505062000677565b87815560010162000908565b508062000908565b634e487b7160e01b85526041600452602485fd5b634e487b7160e01b83526011600452602483fd5b50604051903d90823e3d90fd5b620009749062001057565b62000177578038620004ce565b6040513d84823e3d90fd5b60405162461bcd60e51b815260206004820152601a60248201527f4e465420616c7265616479206672616374696f6e616c697a65640000000000006044820152606490fd5b60405162461bcd60e51b815260206004820152600d60248201526c2737ba1027232a1037bbb732b960991b6044820152606490fd5b90506020813d60201162000a4a575b8162000a2460209383620010a0565b8101031262000a4657516001600160a01b038116810362000a4657386200043d565b5080fd5b3d915062000a15565b60405162461bcd60e51b8152602060048201526015602482015274151bdad95b881cde5b589bdb081c995c5d5a5c9959605a1b6044820152606490fd5b60405162461bcd60e51b8152602060048201526013602482015272151bdad95b881b985b59481c995c5d5a5c9959606a1b6044820152606490fd5b60405162461bcd60e51b81526020600482015260126024820152710537570706c79206d757374206265203e20360741b6044820152606490fd5b60405162461bcd60e51b8152602060048201526014602482015273125b9d985b1a59081391950818dbdb9d1c9858dd60621b6044820152606490fd5b8280fd5b5034620001775780600319360112620001775762000b6262001213565b600180546001600160a01b031981169091556000906001600160a01b03167f8be0079c531659141344cd1fd0a4f28419497f9722a3daafe3b4186f6b6457e08280a380f35b503462000177578060031936011262000177576020600454604051908152f35b5034620001775760208060031936011262000a465760043562000be96200126c565b80835260028252604083206004810160ff815460a01c161562000e1f5760028201546001600160a01b0391908216801562000de1576040516370a0823160e01b8152336004820152908682602481845afa91821562000dd657889262000d9d575b50600385015480920362000d6257908188923b1562000b415760448392604051948593849263079cc67960e41b845233600485015260248401525af1801562000d575762000d3f575b50805460ff60a01b19169055600182015482548692909116803b1562000b41576040516323b872dd60e01b8152306004820152336024820152604481019290925282908290606490829084905af18015620009815762000d23575b50505460405190815233927f22ef9db570288059f173980fa92b801ff0910545fde98e7d1a4ca74c1d92373f91a36001815580f35b62000d2e9062001057565b62000d3b57833862000cee565b8380fd5b62000d4e909691929662001057565b94903862000c93565b6040513d89823e3d90fd5b60405162461bcd60e51b81526004810188905260136024820152724d757374206f776e20616c6c20746f6b656e7360681b6044820152606490fd5b9091508681813d831162000dce575b62000db88183620010a0565b8101031262000dca5751903862000c4a565b8780fd5b503d62000dac565b6040513d8a823e3d90fd5b60405162461bcd60e51b815260048101879052601660248201527524b73b30b634b210333930b1ba34b7b7103a37b5b2b760511b6044820152606490fd5b60405162461bcd60e51b815260048101859052601060248201526f4173736574206e6f742061637469766560801b6044820152606490fd5b5034620001775760203660031901126200017757604090600435815260026020522080546200033d60018060a01b0362000f0b8160018601541694826002820154169260ff60038301549160048401549060058501549362000eca600762000ec260068901620010c3565b9701620010c3565b976040519b8c9b8c5260208c015260408b015260608a01528116608089015260a01c16151560a087015260c08601526101208060e087015285019062001175565b9083820361010085015262001175565b50346200017757604036600319011262000177576001600160a01b038062000f4262000ffe565b1682526003602052604082206024358352602052604082205491821562000f7c576040816020946002935282855220015416604051908152f35b60405162461bcd60e51b8152602060048201526016602482015275139195081b9bdd08199c9858dd1a5bdb985b1a5e995960521b6044820152606490fd5b90503462000a4657604036600319011262000a46576020916040906001600160a01b0362000fe762000ffe565b168152600384528181206024358252845220548152f35b600435906001600160a01b03821682036200101557565b600080fd5b90600182811c921680156200104c575b60208310146200103657565b634e487b7160e01b600052602260045260246000fd5b91607f16916200102a565b67ffffffffffffffff81116200106c57604052565b634e487b7160e01b600052604160045260246000fd5b610120810190811067ffffffffffffffff8211176200106c57604052565b90601f8019910116810190811067ffffffffffffffff8211176200106c57604052565b9060405191826000825492620010d9846200101a565b90818452600194858116908160001462001150575060011462001109575b50506200110792500383620010a0565b565b9093915060005260209081600020936000915b818310620011375750506200110793508201013880620010f7565b855488840185015294850194879450918301916200111c565b9150506200110794506020925060ff191682840152151560051b8201013880620010f7565b919082519283825260005b848110620011a2575050826000602080949584010152601f8019910116010190565b60208183018101518483018201520162001180565b81601f82011215620010155780359067ffffffffffffffff82116200106c5760405192620011f0601f8401601f191660200185620010a0565b828452602083830101116200101557816000926020809301838601378301015290565b6001546001600160a01b031633036200122857565b606460405162461bcd60e51b815260206004820152602060248201527f4f776e61626c653a2063616c6c6572206973206e6f7420746865206f776e65726044820152fd5b6002600054146200127e576002600055565b60405162461bcd60e51b815260206004820152601f60248201527f5265656e7472616e637947756172643a207265656e7472616e742063616c6c006044820152606490fd5b6001600160a01b03166000908152600360209081526040808320938352929052908120548015620013065781526002602052604090206004015460a01c60ff1690565b509056fe604060a0815234620004275762000f56803803806200001e816200042c565b9283398101608082820312620004275781516001600160401b0392908381116200042757826200005091830162000452565b92602092838301519082821162000427576200006e91840162000452565b906060868401519301519460018060a01b0386168096036200042757805191808311620003275760038054936001938486811c961680156200041c575b8987101462000406578190601f96878111620003b0575b50899087831160011462000349576000926200033d575b505060001982841b1c191690841b1781555b8451918211620003275760049485548481811c911680156200031c575b898210146200030757858111620002bc575b508790858411600114620002515793839491849260009562000245575b50501b92600019911b1c19161782555b33608052670de0b6b3a76400009283810293818504149015171562000230578415620001ee575060025490828201809211620001d9575060025560008381528083528481208054830190558451918252917fddf252ad1be2c89b69c2b068fc378daa952ba7f163c4a11628f55a4df523b3ef91a351610a919081620004c5823960805181818161030b01526103640152f35b601190634e487b7160e01b6000525260246000fd5b855162461bcd60e51b815291820184905260248201527f45524332303a206d696e7420746f20746865207a65726f206164647265737300604482015260649150fd5b601182634e487b7160e01b6000525260246000fd5b01519350388062000137565b9190601f1984169287600052848a6000209460005b8c89838310620002a4575050501062000289575b50505050811b01825562000147565b01519060f884600019921b161c19169055388080806200027a565b86860151895590970196948501948893500162000266565b86600052886000208680860160051c8201928b8710620002fd575b0160051c019085905b828110620002f05750506200011a565b60008155018590620002e0565b92508192620002d7565b602287634e487b7160e01b6000525260246000fd5b90607f169062000108565b634e487b7160e01b600052604160045260246000fd5b015190503880620000d9565b90869350601f19831691856000528b6000209260005b8d82821062000399575050841162000380575b505050811b018155620000eb565b015160001983861b60f8161c1916905538808062000372565b8385015186558a979095019493840193016200035f565b90915083600052896000208780850160051c8201928c8610620003fc575b918891869594930160051c01915b828110620003ec575050620000c2565b60008155859450889101620003dc565b92508192620003ce565b634e487b7160e01b600052602260045260246000fd5b95607f1695620000ab565b600080fd5b6040519190601f01601f191682016001600160401b038111838210176200032757604052565b919080601f84011215620004275782516001600160401b038111620003275760209062000488601f8201601f191683016200042c565b92818452828287010111620004275760005b818110620004b057508260009394955001015290565b85810183015184820184015282016200049a56fe608060408181526004918236101561001657600080fd5b600092833560e01c91826306fdde031461069557508163095ea7b31461066b57816318160ddd1461064c57816323b872dd14610582578163313ce5671461056657816339509351146104ff57816370a08231146104c857816379cc67901461033a5781638a71affd146102f657816395d89b41146101d7578163a457c2d71461012f57508063a9059cbb146100ff5763dd62ed3e146100b457600080fd5b346100fb57806003193601126100fb57806020926100d06107ba565b6100d86107d5565b6001600160a01b0391821683526001865283832091168252845220549051908152f35b5080fd5b50346100fb57806003193601126100fb5760209061012861011e6107ba565b60243590336107eb565b5160018152f35b905082346101d457826003193601126101d45761014a6107ba565b918360243592338152600160205281812060018060a01b0386168252602052205490828210610183576020856101288585038733610959565b608490602086519162461bcd60e51b8352820152602560248201527f45524332303a2064656372656173656420616c6c6f77616e63652062656c6f77604482015264207a65726f60d81b6064820152fd5b80fd5b8383346100fb57816003193601126100fb57805190828454600181811c908083169283156102ec575b60209384841081146102d9578388529081156102bd5750600114610268575b505050829003601f01601f191682019267ffffffffffffffff8411838510176102555750829182610251925282610771565b0390f35b634e487b7160e01b815260418552602490fd5b8787529192508591837f8a35acfbc15ff81a39ae7d344fd709f28e8600b4aa8c65c6b64bfe7fe36bd19b5b8385106102a9575050505083010185808061021f565b805488860183015293019284908201610293565b60ff1916878501525050151560051b840101905085808061021f565b634e487b7160e01b895260228a52602489fd5b91607f1691610200565b5050346100fb57816003193601126100fb57517f00000000000000000000000000000000000000000000000000000000000000006001600160a01b03168152602090f35b839150346100fb57826003193601126100fb576103556107ba565b602435906001600160a01b03907f0000000000000000000000000000000000000000000000000000000000000000821633036104855716918215610438578284528360205284842054908282106103ea57508184957fddf252ad1be2c89b69c2b068fc378daa952ba7f163c4a11628f55a4df523b3ef936020938688528785520381872055816002540360025551908152a380f35b608490602087519162461bcd60e51b8352820152602260248201527f45524332303a206275726e20616d6f756e7420657863656564732062616c616e604482015261636560f01b6064820152fd5b608490602086519162461bcd60e51b8352820152602160248201527f45524332303a206275726e2066726f6d20746865207a65726f206164647265736044820152607360f81b6064820152fd5b855162461bcd60e51b8152602081860152601b60248201527f4f6e6c79204672616374696f6e616c4e46542063616e206275726e00000000006044820152606490fd5b5050346100fb5760203660031901126100fb5760209181906001600160a01b036104f06107ba565b16815280845220549051908152f35b8284346101d457816003193601126101d4576105196107ba565b338252600160209081528383206001600160a01b038316845290528282205460243581019290831061055357602084610128858533610959565b634e487b7160e01b815260118552602490fd5b5050346100fb57816003193601126100fb576020905160128152f35b839150346100fb5760603660031901126100fb5761059e6107ba565b6105a66107d5565b91846044359460018060a01b0384168152600160205281812033825260205220549060001982036105e0575b6020866101288787876107eb565b84821061060957509183916105fe6020969561012895033383610959565b9193948193506105d2565b606490602087519162461bcd60e51b8352820152601d60248201527f45524332303a20696e73756666696369656e7420616c6c6f77616e63650000006044820152fd5b5050346100fb57816003193601126100fb576020906002549051908152f35b5050346100fb57806003193601126100fb5760209061012861068b6107ba565b6024359033610959565b8490843461076d578260031936011261076d5782600354600181811c90808316928315610763575b60209384841081146102d9578388529081156102bd575060011461070d57505050829003601f01601f191682019267ffffffffffffffff8411838510176102555750829182610251925282610771565b600387529192508591837fc2575a0e9e593c00f959f8c92f12db2869c3395a3b0502d05e2516446f71f85b5b83851061074f575050505083010185808061021f565b805488860183015293019284908201610739565b91607f16916106bd565b8280fd5b6020808252825181830181905290939260005b8281106107a657505060409293506000838284010152601f8019910116010190565b818101860151848201604001528501610784565b600435906001600160a01b03821682036107d057565b600080fd5b602435906001600160a01b03821682036107d057565b6001600160a01b0390811691821561090657169182156108b55760008281528060205260408120549180831061086157604082827fddf252ad1be2c89b69c2b068fc378daa952ba7f163c4a11628f55a4df523b3ef958760209652828652038282205586815220818154019055604051908152a3565b60405162461bcd60e51b815260206004820152602660248201527f45524332303a207472616e7366657220616d6f756e7420657863656564732062604482015265616c616e636560d01b6064820152608490fd5b60405162461bcd60e51b815260206004820152602360248201527f45524332303a207472616e7366657220746f20746865207a65726f206164647260448201526265737360e81b6064820152608490fd5b60405162461bcd60e51b815260206004820152602560248201527f45524332303a207472616e736665722066726f6d20746865207a65726f206164604482015264647265737360d81b6064820152608490fd5b6001600160a01b03908116918215610a0a57169182156109ba5760207f8c5be1e5ebec7d5bd14f71427d1e84f3dd0314c0f7b2291e5b200ac8c7c3b925918360005260018252604060002085600052825280604060002055604051908152a3565b60405162461bcd60e51b815260206004820152602260248201527f45524332303a20617070726f766520746f20746865207a65726f206164647265604482015261737360f01b6064820152608490fd5b60405162461bcd60e51b8152602060048201526024808201527f45524332303a20617070726f76652066726f6d20746865207a65726f206164646044820152637265737360e01b6064820152608490fdfea2646970667358221220be4c4094552f5606540e1a3e2de2234bdf63b6f3e85df10b378c84c69cea807164736f6c63430008140033a264697066735822122059f21d58bc5841c1c046fc31230a017a26f7454b48a754951fef4664165eebe864736f6c63430008140033","opcodes":"PUSH1 0x80 DUP1 PUSH1 0x40 MSTORE CALLVALUE PUSH2 0x5E JUMPI PUSH1 0x1 PUSH1 0x0 DUP2 DUP2 SSTORE DUP2 SLOAD CALLER PUSH1 0x1 PUSH1 0x1 PUSH1 0xA0 SHL SUB NOT DUP3 AND DUP2 OR SWAP1 SWAP4 SSTORE PUSH1 0x1 PUSH1 0x1 PUSH1 0xA0 SHL SUB AND SWAP1 PUSH32 0x8BE0079C531659141344CD1FD0A4F28419497F9722A3DAAFE3B4186F6B6457E0 SWAP1 DUP1 LOG3 PUSH2 0x2296 SWAP1 DUP2 PUSH2 0x64 DUP3 CODECOPY RETURN JUMPDEST PUSH1 0x0 DUP1 REVERT INVALID PUSH1 0x80 DUP1 PUSH1 0x40 MSTORE PUSH1 0x4 CALLDATASIZE LT ISZERO PUSH3 0x14 JUMPI PUSH1 0x0 DUP1 REVERT JUMPDEST PUSH1 0x0 SWAP1 DUP2 CALLDATALOAD PUSH1 0xE0 SHR SWAP1 DUP2 PUSH4 0x185FCC2C EQ PUSH3 0xFBA JUMPI POP DUP1 PUSH4 0x354DD82D EQ PUSH3 0xF1B JUMPI DUP1 PUSH4 0x3982EE0C EQ PUSH3 0xE57 JUMPI DUP1 PUSH4 0x58DC2CDB EQ PUSH3 0xBC7 JUMPI DUP1 PUSH4 0x61D698C3 EQ PUSH3 0xBA7 JUMPI DUP1 PUSH4 0x715018A6 EQ PUSH3 0xB45 JUMPI DUP1 PUSH4 0x75F0F223 EQ PUSH3 0x36C JUMPI DUP1 PUSH4 0x8DA5CB5B EQ PUSH3 0x341 JUMPI DUP1 PUSH4 0xD6C234A8 EQ PUSH3 0x1B2 JUMPI DUP1 PUSH4 0xDD6BACC3 EQ PUSH3 0x17A JUMPI PUSH4 0xF2FDE38B EQ PUSH3 0xA6 JUMPI PUSH1 0x0 DUP1 REVERT JUMPDEST CALLVALUE PUSH3 0x177 JUMPI PUSH1 0x20 CALLDATASIZE PUSH1 0x3 NOT ADD SLT PUSH3 0x177 JUMPI PUSH3 0xC3 PUSH3 0xFFE JUMP JUMPDEST PUSH3 0xCD PUSH3 0x1213 JUMP JUMPDEST PUSH1 0x1 PUSH1 0x1 PUSH1 0xA0 SHL SUB SWAP1 DUP2 AND SWAP1 DUP2 ISZERO PUSH3 0x123 JUMPI PUSH1 0x1 SLOAD DUP3 PUSH12 0xFFFFFFFFFFFFFFFFFFFFFFFF PUSH1 0xA0 SHL DUP3 AND OR PUSH1 0x1 SSTORE AND PUSH32 0x8BE0079C531659141344CD1FD0A4F28419497F9722A3DAAFE3B4186F6B6457E0 PUSH1 0x0 DUP1 LOG3 DUP1 RETURN JUMPDEST PUSH1 0x40 MLOAD PUSH3 0x461BCD PUSH1 0xE5 SHL DUP2 MSTORE PUSH1 0x20 PUSH1 0x4 DUP3 ADD MSTORE PUSH1 0x26 PUSH1 0x24 DUP3 ADD MSTORE PUSH32 0x4F776E61626C653A206E6577206F776E657220697320746865207A65726F2061 PUSH1 0x44 DUP3 ADD MSTORE PUSH6 0x646472657373 PUSH1 0xD0 SHL PUSH1 0x64 DUP3 ADD MSTORE PUSH1 0x84 SWAP1 REVERT JUMPDEST DUP1 REVERT JUMPDEST POP CALLVALUE PUSH3 0x177 JUMPI PUSH1 0x40 CALLDATASIZE PUSH1 0x3 NOT ADD SLT PUSH3 0x177 JUMPI PUSH1 0x20 PUSH3 0x1A8 PUSH3 0x19E PUSH3 0xFFE JUMP JUMPDEST PUSH1 0x24 CALLDATALOAD SWAP1 PUSH3 0x12C3 JUMP JUMPDEST PUSH1 0x40 MLOAD SWAP1 ISZERO ISZERO DUP2 MSTORE RETURN JUMPDEST POP CALLVALUE PUSH3 0x177 JUMPI PUSH1 0x20 CALLDATASIZE PUSH1 0x3 NOT ADD SLT PUSH3 0x177 JUMPI PUSH1 0x40 PUSH3 0x33D SWAP2 PUSH1 0x60 PUSH2 0x100 DUP4 MLOAD PUSH3 0x1DF DUP2 PUSH3 0x1082 JUMP JUMPDEST DUP4 DUP2 MSTORE DUP4 PUSH1 0x20 DUP3 ADD MSTORE DUP4 DUP6 DUP3 ADD MSTORE DUP4 DUP4 DUP3 ADD MSTORE DUP4 PUSH1 0x80 DUP3 ADD MSTORE DUP4 PUSH1 0xA0 DUP3 ADD MSTORE DUP4 PUSH1 0xC0 DUP3 ADD MSTORE DUP3 PUSH1 0xE0 DUP3 ADD MSTORE ADD MSTORE PUSH1 0x4 CALLDATALOAD DUP2 MSTORE PUSH1 0x2 PUSH1 0x20 MSTORE KECCAK256 PUSH3 0x29A PUSH1 0x7 PUSH1 0x40 MLOAD SWAP3 PUSH3 0x22C DUP5 PUSH3 0x1082 JUMP JUMPDEST DUP1 SLOAD DUP5 MSTORE PUSH1 0x1 DUP2 ADD SLOAD PUSH1 0x1 PUSH1 0x1 PUSH1 0xA0 SHL SUB SWAP1 DUP2 AND PUSH1 0x20 DUP7 ADD MSTORE PUSH1 0x2 DUP3 ADD SLOAD DUP2 AND PUSH1 0x40 DUP7 ADD MSTORE PUSH1 0x3 DUP3 ADD SLOAD PUSH1 0x60 DUP7 ADD MSTORE PUSH1 0x4 DUP3 ADD SLOAD SWAP1 DUP2 AND PUSH1 0x80 DUP7 ADD MSTORE PUSH1 0xA0 SWAP1 DUP2 SHR PUSH1 0xFF AND ISZERO ISZERO SWAP1 DUP6 ADD MSTORE PUSH1 0x5 DUP2 ADD SLOAD PUSH1 0xC0 DUP6 ADD MSTORE PUSH3 0x28E PUSH1 0x6 DUP3 ADD PUSH3 0x10C3 JUMP JUMPDEST PUSH1 0xE0 DUP6 ADD MSTORE ADD PUSH3 0x10C3 JUMP JUMPDEST PUSH2 0x100 DUP3 ADD MSTORE PUSH1 0x40 MLOAD SWAP2 DUP3 SWAP2 PUSH1 0x20 DUP4 MSTORE DUP1 MLOAD PUSH1 0x20 DUP5 ADD MSTORE PUSH1 0x1 DUP1 PUSH1 0xA0 SHL SUB PUSH1 0x20 DUP3 ADD MLOAD AND PUSH1 0x40 DUP5 ADD MSTORE PUSH1 0x1 DUP1 PUSH1 0xA0 SHL SUB PUSH1 0x40 DUP3 ADD MLOAD AND PUSH1 0x60 DUP5 ADD MSTORE PUSH1 0x60 DUP2 ADD MLOAD PUSH1 0x80 DUP5 ADD MSTORE PUSH1 0x1 DUP1 PUSH1 0xA0 SHL SUB PUSH1 0x80 DUP3 ADD MLOAD AND PUSH1 0xA0 DUP5 ADD MSTORE PUSH1 0xA0 DUP2 ADD MLOAD ISZERO ISZERO PUSH1 0xC0 DUP5 ADD MSTORE PUSH1 0xC0 DUP2 ADD MLOAD PUSH1 0xE0 DUP5 ADD MSTORE PUSH1 0xE0 DUP2 ADD MLOAD PUSH2 0x100 PUSH3 0x328 PUSH2 0x120 SWAP3 DUP4 DUP4 DUP9 ADD MSTORE PUSH2 0x140 DUP8 ADD SWAP1 PUSH3 0x1175 JUMP JUMPDEST SWAP3 ADD MLOAD SWAP1 PUSH1 0x1F NOT DUP6 DUP5 SUB ADD SWAP1 DUP6 ADD MSTORE PUSH3 0x1175 JUMP JUMPDEST SUB SWAP1 RETURN JUMPDEST POP CALLVALUE PUSH3 0x177 JUMPI DUP1 PUSH1 0x3 NOT CALLDATASIZE ADD SLT PUSH3 0x177 JUMPI PUSH1 0x1 SLOAD PUSH1 0x40 MLOAD PUSH1 0x1 PUSH1 0x1 PUSH1 0xA0 SHL SUB SWAP1 SWAP2 AND DUP2 MSTORE PUSH1 0x20 SWAP1 RETURN JUMPDEST POP CALLVALUE PUSH3 0x177 JUMPI PUSH1 0xA0 CALLDATASIZE PUSH1 0x3 NOT ADD SLT PUSH3 0x177 JUMPI PUSH3 0x38A PUSH3 0xFFE JUMP JUMPDEST PUSH1 0x64 CALLDATALOAD PUSH8 0xFFFFFFFFFFFFFFFF DUP2 GT PUSH3 0xB41 JUMPI PUSH3 0x3AD SWAP1 CALLDATASIZE SWAP1 PUSH1 0x4 ADD PUSH3 0x11B7 JUMP JUMPDEST SWAP2 PUSH1 0x84 CALLDATALOAD PUSH8 0xFFFFFFFFFFFFFFFF DUP2 GT PUSH3 0xA46 JUMPI PUSH3 0x3D1 SWAP1 CALLDATASIZE SWAP1 PUSH1 0x4 ADD PUSH3 0x11B7 JUMP JUMPDEST SWAP1 PUSH3 0x3DC PUSH3 0x126C JUMP JUMPDEST PUSH1 0x1 PUSH1 0x1 PUSH1 0xA0 SHL SUB DUP4 AND ISZERO PUSH3 0xB05 JUMPI PUSH1 0x44 CALLDATALOAD ISZERO PUSH3 0xACB JUMPI DUP4 MLOAD ISZERO PUSH3 0xA90 JUMPI DUP2 MLOAD ISZERO PUSH3 0xA53 JUMPI PUSH1 0x40 MLOAD PUSH4 0x31A9108F PUSH1 0xE1 SHL DUP2 MSTORE PUSH1 0x24 DUP1 CALLDATALOAD PUSH1 0x4 DUP4 ADD MSTORE PUSH1 0x20 SWAP1 DUP3 SWAP1 DUP2 PUSH1 0x1 PUSH1 0x1 PUSH1 0xA0 SHL SUB DUP9 AND GAS STATICCALL SWAP1 DUP2 ISZERO PUSH3 0x981 JUMPI DUP3 SWAP2 PUSH3 0xA06 JUMPI JUMPDEST POP CALLER PUSH1 0x1 PUSH1 0x1 PUSH1 0xA0 SHL SUB SWAP1 SWAP2 AND SUB PUSH3 0x9D1 JUMPI PUSH1 0x1 PUSH1 0x1 PUSH1 0xA0 SHL SUB DUP4 AND DUP2 MSTORE PUSH1 0x3 PUSH1 0x20 SWAP1 DUP2 MSTORE PUSH1 0x40 DUP1 DUP4 KECCAK256 PUSH1 0x24 CALLDATALOAD DUP5 MSTORE SWAP1 SWAP2 MSTORE DUP2 KECCAK256 SLOAD PUSH3 0x98C JUMPI PUSH1 0x1 PUSH1 0x1 PUSH1 0xA0 SHL SUB DUP4 AND EXTCODESIZE ISZERO PUSH3 0x177 JUMPI PUSH1 0x40 MLOAD PUSH4 0x23B872DD PUSH1 0xE0 SHL DUP2 MSTORE CALLER PUSH1 0x4 DUP3 ADD MSTORE ADDRESS PUSH1 0x24 DUP1 DUP4 ADD SWAP2 SWAP1 SWAP2 MSTORE CALLDATALOAD PUSH1 0x44 DUP3 ADD MSTORE DUP2 DUP2 PUSH1 0x64 DUP2 DUP4 PUSH1 0x1 PUSH1 0x1 PUSH1 0xA0 SHL SUB DUP10 AND GAS CALL DUP1 ISZERO PUSH3 0x981 JUMPI SWAP1 DUP3 SWAP2 PUSH3 0x969 JUMPI JUMPDEST POP POP PUSH1 0x40 MLOAD PUSH2 0xF56 DUP1 DUP3 ADD SWAP1 DUP3 DUP3 LT PUSH8 0xFFFFFFFFFFFFFFFF DUP4 GT OR PUSH3 0x855 JUMPI SWAP1 DUP3 SWAP2 PUSH3 0x130B DUP4 CODECOPY PUSH1 0x80 DUP2 MSTORE PUSH3 0x51D PUSH3 0x50E PUSH1 0x80 DUP4 ADD DUP10 PUSH3 0x1175 JUMP JUMPDEST DUP3 DUP2 SUB PUSH1 0x20 DUP5 ADD MSTORE DUP7 PUSH3 0x1175 JUMP JUMPDEST SWAP1 PUSH1 0x44 CALLDATALOAD PUSH1 0x40 DUP3 ADD MSTORE PUSH1 0x60 CALLER SWAP2 ADD MSTORE SUB SWAP1 DUP3 CREATE DUP1 ISZERO PUSH3 0x95C JUMPI PUSH1 0x4 SLOAD SWAP3 PUSH1 0x0 NOT DUP5 EQ PUSH3 0x948 JUMPI PUSH1 0x1 DUP5 ADD PUSH1 0x4 SSTORE PUSH1 0x40 MLOAD SWAP6 PUSH3 0x55B DUP8 PUSH3 0x1082 JUMP JUMPDEST PUSH1 0x24 CALLDATALOAD DUP8 MSTORE PUSH1 0x1 DUP1 PUSH1 0xA0 SHL SUB DUP7 AND PUSH1 0x20 DUP9 ADD MSTORE PUSH1 0x1 DUP1 PUSH1 0xA0 SHL SUB DUP4 AND PUSH1 0x40 DUP9 ADD MSTORE PUSH1 0x44 CALLDATALOAD PUSH1 0x60 DUP9 ADD MSTORE CALLER PUSH1 0x80 DUP9 ADD MSTORE PUSH1 0x1 PUSH1 0xA0 DUP9 ADD MSTORE TIMESTAMP PUSH1 0xC0 DUP9 ADD MSTORE PUSH1 0xE0 DUP8 ADD MSTORE PUSH2 0x100 DUP7 ADD MSTORE PUSH1 0x1 DUP4 ADD DUP3 MSTORE PUSH1 0x2 PUSH1 0x20 MSTORE PUSH1 0x40 DUP3 KECCAK256 SWAP5 DUP1 MLOAD DUP7 SSTORE PUSH1 0x1 DUP7 ADD PUSH1 0x1 DUP1 PUSH1 0xA0 SHL SUB PUSH1 0x20 DUP4 ADD MLOAD AND SWAP1 PUSH12 0xFFFFFFFFFFFFFFFFFFFFFFFF PUSH1 0xA0 SHL SWAP2 DUP3 DUP3 SLOAD AND OR SWAP1 SSTORE PUSH1 0x2 DUP8 ADD SWAP1 PUSH1 0x1 DUP1 PUSH1 0xA0 SHL SUB PUSH1 0x40 DUP5 ADD MLOAD AND SWAP1 DUP3 SLOAD AND OR SWAP1 SSTORE PUSH1 0x60 DUP2 ADD MLOAD PUSH1 0x3 DUP8 ADD SSTORE PUSH1 0x4 DUP7 ADD PUSH1 0x1 DUP1 PUSH1 0xA0 SHL SUB PUSH1 0x80 DUP4 ADD MLOAD AND DUP2 SLOAD SWAP1 PUSH1 0xFF PUSH1 0xA0 SHL PUSH1 0xA0 DUP6 ADD MLOAD ISZERO ISZERO PUSH1 0xA0 SHL AND SWAP2 PUSH11 0xFFFFFFFFFFFFFFFFFFFFFF PUSH1 0xA8 SHL AND OR OR SWAP1 SSTORE PUSH1 0xC0 DUP2 ADD MLOAD PUSH1 0x5 DUP8 ADD SSTORE PUSH1 0xE0 DUP2 ADD MLOAD DUP1 MLOAD SWAP1 PUSH8 0xFFFFFFFFFFFFFFFF DUP3 GT PUSH3 0x934 JUMPI PUSH3 0x66D PUSH1 0x6 DUP10 ADD SLOAD PUSH3 0x101A JUMP JUMPDEST PUSH1 0x1F DUP2 GT PUSH3 0x8EB JUMPI JUMPDEST POP PUSH1 0x20 SWAP1 PUSH1 0x1F DUP4 GT PUSH1 0x1 EQ PUSH3 0x875 JUMPI PUSH2 0x100 SWAP4 SWAP3 SWAP2 DUP7 SWAP2 DUP4 PUSH3 0x869 JUMPI JUMPDEST POP POP DUP2 PUSH1 0x1 SHL SWAP2 PUSH1 0x0 NOT SWAP1 PUSH1 0x3 SHL SHR NOT AND OR PUSH1 0x6 DUP9 ADD SSTORE JUMPDEST ADD MLOAD SWAP4 DUP5 MLOAD SWAP6 PUSH8 0xFFFFFFFFFFFFFFFF DUP8 GT PUSH3 0x855 JUMPI PUSH3 0x6D3 PUSH1 0x7 DUP3 ADD SLOAD PUSH3 0x101A JUMP JUMPDEST PUSH1 0x1F DUP2 GT PUSH3 0x80C JUMPI JUMPDEST POP PUSH1 0x20 SWAP7 DUP8 PUSH1 0x1F DUP3 GT PUSH1 0x1 EQ PUSH3 0x79B JUMPI SWAP1 DUP1 PUSH1 0x7 SWAP3 PUSH1 0x1 SWAP9 SWAP10 DUP9 SWAP3 PUSH3 0x78F JUMPI JUMPDEST POP POP PUSH1 0x0 NOT PUSH1 0x3 DUP4 SWAP1 SHL SHR NOT AND SWAP1 DUP8 SHL OR SWAP2 ADD SSTORE JUMPDEST DUP4 DUP1 PUSH1 0xA0 SHL SUB DUP2 AND DUP4 MSTORE PUSH1 0x3 DUP7 MSTORE PUSH1 0x40 DUP4 KECCAK256 PUSH1 0x24 CALLDATALOAD DUP5 MSTORE DUP7 MSTORE DUP4 DUP6 ADD PUSH1 0x40 DUP5 KECCAK256 SSTORE PUSH1 0x40 MLOAD SWAP2 DUP5 DUP1 PUSH1 0xA0 SHL SUB AND DUP3 MSTORE PUSH1 0x44 CALLDATALOAD DUP7 DUP4 ADD MSTORE CALLER PUSH1 0x40 DUP4 ADD MSTORE DUP4 DUP1 PUSH1 0xA0 SHL SUB AND SWAP1 PUSH1 0x24 CALLDATALOAD SWAP1 PUSH32 0xA37793983B6CC0EFAD37D47A6326C7AE43039ED02F25A6C273DD7D777FDD11A4 PUSH1 0x60 DUP7 DUP9 ADD SWAP3 LOG4 SSTORE PUSH1 0x1 PUSH1 0x40 MLOAD SWAP2 ADD DUP2 MSTORE RETURN JUMPDEST ADD MLOAD SWAP1 POP CODESIZE DUP1 PUSH3 0x6FF JUMP JUMPDEST PUSH1 0x7 DUP4 ADD DUP7 MSTORE DUP9 DUP7 KECCAK256 SWAP8 DUP7 JUMPDEST PUSH1 0x1F NOT DUP5 AND DUP2 LT PUSH3 0x7F4 JUMPI POP SWAP2 PUSH1 0x1 SWAP8 SWAP9 DUP9 SWAP3 PUSH1 0x7 SWAP5 DUP4 PUSH1 0x1F NOT DUP2 AND LT PUSH3 0x7DA JUMPI JUMPDEST POP POP POP DUP2 SHL ADD SWAP2 ADD SSTORE PUSH3 0x714 JUMP JUMPDEST ADD MLOAD PUSH1 0x0 NOT PUSH1 0xF8 DUP5 PUSH1 0x3 SHL AND SHR NOT AND SWAP1 SSTORE CODESIZE DUP1 DUP1 PUSH3 0x7CB JUMP JUMPDEST SWAP2 SWAP9 DUP11 PUSH1 0x1 DUP2 SWAP3 DUP13 DUP6 ADD MLOAD DUP2 SSTORE ADD SWAP11 ADD SWAP3 ADD PUSH3 0x7A7 JUMP JUMPDEST PUSH1 0x7 DUP3 ADD DUP6 MSTORE PUSH1 0x20 DUP6 KECCAK256 PUSH1 0x1F DUP10 ADD PUSH1 0x5 SHR DUP2 ADD PUSH1 0x20 DUP11 LT PUSH3 0x84D JUMPI JUMPDEST PUSH1 0x1F DUP4 ADD PUSH1 0x5 SHR DUP3 ADD DUP2 LT PUSH3 0x841 JUMPI POP POP PUSH3 0x6DD JUMP JUMPDEST DUP7 DUP2 SSTORE PUSH1 0x1 ADD PUSH3 0x829 JUMP JUMPDEST POP DUP1 PUSH3 0x829 JUMP JUMPDEST PUSH4 0x4E487B71 PUSH1 0xE0 SHL DUP5 MSTORE PUSH1 0x41 PUSH1 0x4 MSTORE PUSH1 0x24 DUP5 REVERT JUMPDEST ADD MLOAD SWAP1 POP CODESIZE DUP1 PUSH3 0x696 JUMP JUMPDEST SWAP1 PUSH1 0x6 DUP10 ADD DUP7 MSTORE PUSH1 0x20 DUP7 KECCAK256 SWAP2 DUP7 JUMPDEST PUSH1 0x1F NOT DUP6 AND DUP2 LT PUSH3 0x8D2 JUMPI POP SWAP2 DUP4 SWAP2 PUSH1 0x1 SWAP4 PUSH2 0x100 SWAP7 SWAP6 PUSH1 0x1F NOT DUP2 AND LT PUSH3 0x8B8 JUMPI JUMPDEST POP POP POP DUP2 SHL ADD PUSH1 0x6 DUP9 ADD SSTORE PUSH3 0x6AE JUMP JUMPDEST ADD MLOAD PUSH1 0x0 NOT PUSH1 0xF8 DUP5 PUSH1 0x3 SHL AND SHR NOT AND SWAP1 SSTORE CODESIZE DUP1 DUP1 PUSH3 0x8A7 JUMP JUMPDEST SWAP2 SWAP3 PUSH1 0x20 PUSH1 0x1 DUP2 SWAP3 DUP7 DUP6 ADD MLOAD DUP2 SSTORE ADD SWAP5 ADD SWAP3 ADD PUSH3 0x883 JUMP JUMPDEST PUSH1 0x6 DUP10 ADD DUP7 MSTORE PUSH1 0x20 DUP7 KECCAK256 PUSH1 0x1F DUP5 ADD PUSH1 0x5 SHR DUP2 ADD PUSH1 0x20 DUP6 LT PUSH3 0x92C JUMPI JUMPDEST PUSH1 0x1F DUP4 ADD PUSH1 0x5 SHR DUP3 ADD DUP2 LT PUSH3 0x920 JUMPI POP POP PUSH3 0x677 JUMP JUMPDEST DUP8 DUP2 SSTORE PUSH1 0x1 ADD PUSH3 0x908 JUMP JUMPDEST POP DUP1 PUSH3 0x908 JUMP JUMPDEST PUSH4 0x4E487B71 PUSH1 0xE0 SHL DUP6 MSTORE PUSH1 0x41 PUSH1 0x4 MSTORE PUSH1 0x24 DUP6 REVERT JUMPDEST PUSH4 0x4E487B71 PUSH1 0xE0 SHL DUP4 MSTORE PUSH1 0x11 PUSH1 0x4 MSTORE PUSH1 0x24 DUP4 REVERT JUMPDEST POP PUSH1 0x40 MLOAD SWAP1 RETURNDATASIZE SWAP1 DUP3 RETURNDATACOPY RETURNDATASIZE SWAP1 REVERT JUMPDEST PUSH3 0x974 SWAP1 PUSH3 0x1057 JUMP JUMPDEST PUSH3 0x177 JUMPI DUP1 CODESIZE PUSH3 0x4CE JUMP JUMPDEST PUSH1 0x40 MLOAD RETURNDATASIZE DUP5 DUP3 RETURNDATACOPY RETURNDATASIZE SWAP1 REVERT JUMPDEST PUSH1 0x40 MLOAD PUSH3 0x461BCD PUSH1 0xE5 SHL DUP2 MSTORE PUSH1 0x20 PUSH1 0x4 DUP3 ADD MSTORE PUSH1 0x1A PUSH1 0x24 DUP3 ADD MSTORE PUSH32 0x4E465420616C7265616479206672616374696F6E616C697A6564000000000000 PUSH1 0x44 DUP3 ADD MSTORE PUSH1 0x64 SWAP1 REVERT JUMPDEST PUSH1 0x40 MLOAD PUSH3 0x461BCD PUSH1 0xE5 SHL DUP2 MSTORE PUSH1 0x20 PUSH1 0x4 DUP3 ADD MSTORE PUSH1 0xD PUSH1 0x24 DUP3 ADD MSTORE PUSH13 0x2737BA1027232A1037BBB732B9 PUSH1 0x99 SHL PUSH1 0x44 DUP3 ADD MSTORE PUSH1 0x64 SWAP1 REVERT JUMPDEST SWAP1 POP PUSH1 0x20 DUP2 RETURNDATASIZE PUSH1 0x20 GT PUSH3 0xA4A JUMPI JUMPDEST DUP2 PUSH3 0xA24 PUSH1 0x20 SWAP4 DUP4 PUSH3 0x10A0 JUMP JUMPDEST DUP2 ADD SUB SLT PUSH3 0xA46 JUMPI MLOAD PUSH1 0x1 PUSH1 0x1 PUSH1 0xA0 SHL SUB DUP2 AND DUP2 SUB PUSH3 0xA46 JUMPI CODESIZE PUSH3 0x43D JUMP JUMPDEST POP DUP1 REVERT JUMPDEST RETURNDATASIZE SWAP2 POP PUSH3 0xA15 JUMP JUMPDEST PUSH1 0x40 MLOAD PUSH3 0x461BCD PUSH1 0xE5 SHL DUP2 MSTORE PUSH1 0x20 PUSH1 0x4 DUP3 ADD MSTORE PUSH1 0x15 PUSH1 0x24 DUP3 ADD MSTORE PUSH21 0x151BDAD95B881CDE5B589BDB081C995C5D5A5C9959 PUSH1 0x5A SHL PUSH1 0x44 DUP3 ADD MSTORE PUSH1 0x64 SWAP1 REVERT JUMPDEST PUSH1 0x40 MLOAD PUSH3 0x461BCD PUSH1 0xE5 SHL DUP2 MSTORE PUSH1 0x20 PUSH1 0x4 DUP3 ADD MSTORE PUSH1 0x13 PUSH1 0x24 DUP3 ADD MSTORE PUSH19 0x151BDAD95B881B985B59481C995C5D5A5C9959 PUSH1 0x6A SHL PUSH1 0x44 DUP3 ADD MSTORE PUSH1 0x64 SWAP1 REVERT JUMPDEST PUSH1 0x40 MLOAD PUSH3 0x461BCD PUSH1 0xE5 SHL DUP2 MSTORE PUSH1 0x20 PUSH1 0x4 DUP3 ADD MSTORE PUSH1 0x12 PUSH1 0x24 DUP3 ADD MSTORE PUSH18 0x537570706C79206D757374206265203E203 PUSH1 0x74 SHL PUSH1 0x44 DUP3 ADD MSTORE PUSH1 0x64 SWAP1 REVERT JUMPDEST PUSH1 0x40 MLOAD PUSH3 0x461BCD PUSH1 0xE5 SHL DUP2 MSTORE PUSH1 0x20 PUSH1 0x4 DUP3 ADD MSTORE PUSH1 0x14 PUSH1 0x24 DUP3 ADD MSTORE PUSH20 0x125B9D985B1A59081391950818DBDB9D1C9858DD PUSH1 0x62 SHL PUSH1 0x44 DUP3 ADD MSTORE PUSH1 0x64 SWAP1 REVERT JUMPDEST DUP3 DUP1 REVERT JUMPDEST POP CALLVALUE PUSH3 0x177 JUMPI DUP1 PUSH1 0x3 NOT CALLDATASIZE ADD SLT PUSH3 0x177 JUMPI PUSH3 0xB62 PUSH3 0x1213 JUMP JUMPDEST PUSH1 0x1 DUP1 SLOAD PUSH1 0x1 PUSH1 0x1 PUSH1 0xA0 SHL SUB NOT DUP2 AND SWAP1 SWAP2 SSTORE PUSH1 0x0 SWAP1 PUSH1 0x1 PUSH1 0x1 PUSH1 0xA0 SHL SUB AND PUSH32 0x8BE0079C531659141344CD1FD0A4F28419497F9722A3DAAFE3B4186F6B6457E0 DUP3 DUP1 LOG3 DUP1 RETURN JUMPDEST POP CALLVALUE PUSH3 0x177 JUMPI DUP1 PUSH1 0x3 NOT CALLDATASIZE ADD SLT PUSH3 0x177 JUMPI PUSH1 0x20 PUSH1 0x4 SLOAD PUSH1 0x40 MLOAD SWAP1 DUP2 MSTORE RETURN JUMPDEST POP CALLVALUE PUSH3 0x177 JUMPI PUSH1 0x20 DUP1 PUSH1 0x3 NOT CALLDATASIZE ADD SLT PUSH3 0xA46 JUMPI PUSH1 0x4 CALLDATALOAD PUSH3 0xBE9 PUSH3 0x126C JUMP JUMPDEST DUP1 DUP4 MSTORE PUSH1 0x2 DUP3 MSTORE PUSH1 0x40 DUP4 KECCAK256 PUSH1 0x4 DUP2 ADD PUSH1 0xFF DUP2 SLOAD PUSH1 0xA0 SHR AND ISZERO PUSH3 0xE1F JUMPI PUSH1 0x2 DUP3 ADD SLOAD PUSH1 0x1 PUSH1 0x1 PUSH1 0xA0 SHL SUB SWAP2 SWAP1 DUP3 AND DUP1 ISZERO PUSH3 0xDE1 JUMPI PUSH1 0x40 MLOAD PUSH4 0x70A08231 PUSH1 0xE0 SHL DUP2 MSTORE CALLER PUSH1 0x4 DUP3 ADD MSTORE SWAP1 DUP7 DUP3 PUSH1 0x24 DUP2 DUP5 GAS STATICCALL SWAP2 DUP3 ISZERO PUSH3 0xDD6 JUMPI DUP9 SWAP3 PUSH3 0xD9D JUMPI JUMPDEST POP PUSH1 0x3 DUP6 ADD SLOAD DUP1 SWAP3 SUB PUSH3 0xD62 JUMPI SWAP1 DUP2 DUP9 SWAP3 EXTCODESIZE ISZERO PUSH3 0xB41 JUMPI PUSH1 0x44 DUP4 SWAP3 PUSH1 0x40 MLOAD SWAP5 DUP6 SWAP4 DUP5 SWAP3 PUSH4 0x79CC679 PUSH1 0xE4 SHL DUP5 MSTORE CALLER PUSH1 0x4 DUP6 ADD MSTORE PUSH1 0x24 DUP5 ADD MSTORE GAS CALL DUP1 ISZERO PUSH3 0xD57 JUMPI PUSH3 0xD3F JUMPI JUMPDEST POP DUP1 SLOAD PUSH1 0xFF PUSH1 0xA0 SHL NOT AND SWAP1 SSTORE PUSH1 0x1 DUP3 ADD SLOAD DUP3 SLOAD DUP7 SWAP3 SWAP1 SWAP2 AND DUP1 EXTCODESIZE ISZERO PUSH3 0xB41 JUMPI PUSH1 0x40 MLOAD PUSH4 0x23B872DD PUSH1 0xE0 SHL DUP2 MSTORE ADDRESS PUSH1 0x4 DUP3 ADD MSTORE CALLER PUSH1 0x24 DUP3 ADD MSTORE PUSH1 0x44 DUP2 ADD SWAP3 SWAP1 SWAP3 MSTORE DUP3 SWAP1 DUP3 SWAP1 PUSH1 0x64 SWAP1 DUP3 SWAP1 DUP5 SWAP1 GAS CALL DUP1 ISZERO PUSH3 0x981 JUMPI PUSH3 0xD23 JUMPI JUMPDEST POP POP SLOAD PUSH1 0x40 MLOAD SWAP1 DUP2 MSTORE CALLER SWAP3 PUSH32 0x22EF9DB570288059F173980FA92B801FF0910545FDE98E7D1A4CA74C1D92373F SWAP2 LOG3 PUSH1 0x1 DUP2 SSTORE DUP1 RETURN JUMPDEST PUSH3 0xD2E SWAP1 PUSH3 0x1057 JUMP JUMPDEST PUSH3 0xD3B JUMPI DUP4 CODESIZE PUSH3 0xCEE JUMP JUMPDEST DUP4 DUP1 REVERT JUMPDEST PUSH3 0xD4E SWAP1 SWAP7 SWAP2 SWAP3 SWAP7 PUSH3 0x1057 JUMP JUMPDEST SWAP5 SWAP1 CODESIZE PUSH3 0xC93 JUMP JUMPDEST PUSH1 0x40 MLOAD RETURNDATASIZE DUP10 DUP3 RETURNDATACOPY RETURNDATASIZE SWAP1 REVERT JUMPDEST PUSH1 0x40 MLOAD PUSH3 0x461BCD PUSH1 0xE5 SHL DUP2 MSTORE PUSH1 0x4 DUP2 ADD DUP9 SWAP1 MSTORE PUSH1 0x13 PUSH1 0x24 DUP3 ADD MSTORE PUSH19 0x4D757374206F776E20616C6C20746F6B656E73 PUSH1 0x68 SHL PUSH1 0x44 DUP3 ADD MSTORE PUSH1 0x64 SWAP1 REVERT JUMPDEST SWAP1 SWAP2 POP DUP7 DUP2 DUP2 RETURNDATASIZE DUP4 GT PUSH3 0xDCE JUMPI JUMPDEST PUSH3 0xDB8 DUP2 DUP4 PUSH3 0x10A0 JUMP JUMPDEST DUP2 ADD SUB SLT PUSH3 0xDCA JUMPI MLOAD SWAP1 CODESIZE PUSH3 0xC4A JUMP JUMPDEST DUP8 DUP1 REVERT JUMPDEST POP RETURNDATASIZE PUSH3 0xDAC JUMP JUMPDEST PUSH1 0x40 MLOAD RETURNDATASIZE DUP11 DUP3 RETURNDATACOPY RETURNDATASIZE SWAP1 REVERT JUMPDEST PUSH1 0x40 MLOAD PUSH3 0x461BCD PUSH1 0xE5 SHL DUP2 MSTORE PUSH1 0x4 DUP2 ADD DUP8 SWAP1 MSTORE PUSH1 0x16 PUSH1 0x24 DUP3 ADD MSTORE PUSH22 0x24B73B30B634B210333930B1BA34B7B7103A37B5B2B7 PUSH1 0x51 SHL PUSH1 0x44 DUP3 ADD MSTORE PUSH1 0x64 SWAP1 REVERT JUMPDEST PUSH1 0x40 MLOAD PUSH3 0x461BCD PUSH1 0xE5 SHL DUP2 MSTORE PUSH1 0x4 DUP2 ADD DUP6 SWAP1 MSTORE PUSH1 0x10 PUSH1 0x24 DUP3 ADD MSTORE PUSH16 0x4173736574206E6F7420616374697665 PUSH1 0x80 SHL PUSH1 0x44 DUP3 ADD MSTORE PUSH1 0x64 SWAP1 REVERT JUMPDEST POP CALLVALUE PUSH3 0x177 JUMPI PUSH1 0x20 CALLDATASIZE PUSH1 0x3 NOT ADD SLT PUSH3 0x177 JUMPI PUSH1 0x40 SWAP1 PUSH1 0x4 CALLDATALOAD DUP2 MSTORE PUSH1 0x2 PUSH1 0x20 MSTORE KECCAK256 DUP1 SLOAD PUSH3 0x33D PUSH1 0x1 DUP1 PUSH1 0xA0 SHL SUB PUSH3 0xF0B DUP2 PUSH1 0x1 DUP7 ADD SLOAD AND SWAP5 DUP3 PUSH1 0x2 DUP3 ADD SLOAD AND SWAP3 PUSH1 0xFF PUSH1 0x3 DUP4 ADD SLOAD SWAP2 PUSH1 0x4 DUP5 ADD SLOAD SWAP1 PUSH1 0x5 DUP6 ADD SLOAD SWAP4 PUSH3 0xECA PUSH1 0x7 PUSH3 0xEC2 PUSH1 0x6 DUP10 ADD PUSH3 0x10C3 JUMP JUMPDEST SWAP8 ADD PUSH3 0x10C3 JUMP JUMPDEST SWAP8 PUSH1 0x40 MLOAD SWAP12 DUP13 SWAP12 DUP13 MSTORE PUSH1 0x20 DUP13 ADD MSTORE PUSH1 0x40 DUP12 ADD MSTORE PUSH1 0x60 DUP11 ADD MSTORE DUP2 AND PUSH1 0x80 DUP10 ADD MSTORE PUSH1 0xA0 SHR AND ISZERO ISZERO PUSH1 0xA0 DUP8 ADD MSTORE PUSH1 0xC0 DUP7 ADD MSTORE PUSH2 0x120 DUP1 PUSH1 0xE0 DUP8 ADD MSTORE DUP6 ADD SWAP1 PUSH3 0x1175 JUMP JUMPDEST SWAP1 DUP4 DUP3 SUB PUSH2 0x100 DUP6 ADD MSTORE PUSH3 0x1175 JUMP JUMPDEST POP CALLVALUE PUSH3 0x177 JUMPI PUSH1 0x40 CALLDATASIZE PUSH1 0x3 NOT ADD SLT PUSH3 0x177 JUMPI PUSH1 0x1 PUSH1 0x1 PUSH1 0xA0 SHL SUB DUP1 PUSH3 0xF42 PUSH3 0xFFE JUMP JUMPDEST AND DUP3 MSTORE PUSH1 0x3 PUSH1 0x20 MSTORE PUSH1 0x40 DUP3 KECCAK256 PUSH1 0x24 CALLDATALOAD DUP4 MSTORE PUSH1 0x20 MSTORE PUSH1 0x40 DUP3 KECCAK256 SLOAD SWAP2 DUP3 ISZERO PUSH3 0xF7C JUMPI PUSH1 0x40 DUP2 PUSH1 0x20 SWAP5 PUSH1 0x2 SWAP4 MSTORE DUP3 DUP6 MSTORE KECCAK256 ADD SLOAD AND PUSH1 0x40 MLOAD SWAP1 DUP2 MSTORE RETURN JUMPDEST PUSH1 0x40 MLOAD PUSH3 0x461BCD PUSH1 0xE5 SHL DUP2 MSTORE PUSH1 0x20 PUSH1 0x4 DUP3 ADD MSTORE PUSH1 0x16 PUSH1 0x24 DUP3 ADD MSTORE PUSH22 0x139195081B9BDD08199C9858DD1A5BDB985B1A5E9959 PUSH1 0x52 SHL PUSH1 0x44 DUP3 ADD MSTORE PUSH1 0x64 SWAP1 REVERT JUMPDEST SWAP1 POP CALLVALUE PUSH3 0xA46 JUMPI PUSH1 0x40 CALLDATASIZE PUSH1 0x3 NOT ADD SLT PUSH3 0xA46 JUMPI PUSH1 0x20 SWAP2 PUSH1 0x40 SWAP1 PUSH1 0x1 PUSH1 0x1 PUSH1 0xA0 SHL SUB PUSH3 0xFE7 PUSH3 0xFFE JUMP JUMPDEST AND DUP2 MSTORE PUSH1 0x3 DUP5 MSTORE DUP2 DUP2 KECCAK256 PUSH1 0x24 CALLDATALOAD DUP3 MSTORE DUP5 MSTORE KECCAK256 SLOAD DUP2 MSTORE RETURN JUMPDEST PUSH1 0x4 CALLDATALOAD SWAP1 PUSH1 0x1 PUSH1 0x1 PUSH1 0xA0 SHL SUB DUP3 AND DUP3 SUB PUSH3 0x1015 JUMPI JUMP JUMPDEST PUSH1 0x0 DUP1 REVERT JUMPDEST SWAP1 PUSH1 0x1 DUP3 DUP2 SHR SWAP3 AND DUP1 ISZERO PUSH3 0x104C JUMPI JUMPDEST PUSH1 0x20 DUP4 LT EQ PUSH3 0x1036 JUMPI JUMP JUMPDEST PUSH4 0x4E487B71 PUSH1 0xE0 SHL PUSH1 0x0 MSTORE PUSH1 0x22 PUSH1 0x4 MSTORE PUSH1 0x24 PUSH1 0x0 REVERT JUMPDEST SWAP2 PUSH1 0x7F AND SWAP2 PUSH3 0x102A JUMP JUMPDEST PUSH8 0xFFFFFFFFFFFFFFFF DUP2 GT PUSH3 0x106C JUMPI PUSH1 0x40 MSTORE JUMP JUMPDEST PUSH4 0x4E487B71 PUSH1 0xE0 SHL PUSH1 0x0 MSTORE PUSH1 0x41 PUSH1 0x4 MSTORE PUSH1 0x24 PUSH1 0x0 REVERT JUMPDEST PUSH2 0x120 DUP2 ADD SWAP1 DUP2 LT PUSH8 0xFFFFFFFFFFFFFFFF DUP3 GT OR PUSH3 0x106C JUMPI PUSH1 0x40 MSTORE JUMP JUMPDEST SWAP1 PUSH1 0x1F DUP1 NOT SWAP2 ADD AND DUP2 ADD SWAP1 DUP2 LT PUSH8 0xFFFFFFFFFFFFFFFF DUP3 GT OR PUSH3 0x106C JUMPI PUSH1 0x40 MSTORE JUMP JUMPDEST SWAP1 PUSH1 0x40 MLOAD SWAP2 DUP3 PUSH1 0x0 DUP3 SLOAD SWAP3 PUSH3 0x10D9 DUP5 PUSH3 0x101A JUMP JUMPDEST SWAP1 DUP2 DUP5 MSTORE PUSH1 0x1 SWAP5 DUP6 DUP2 AND SWAP1 DUP2 PUSH1 0x0 EQ PUSH3 0x1150 JUMPI POP PUSH1 0x1 EQ PUSH3 0x1109 JUMPI JUMPDEST POP POP PUSH3 0x1107 SWAP3 POP SUB DUP4 PUSH3 0x10A0 JUMP JUMPDEST JUMP JUMPDEST SWAP1 SWAP4 SWAP2 POP PUSH1 0x0 MSTORE PUSH1 0x20 SWAP1 DUP2 PUSH1 0x0 KECCAK256 SWAP4 PUSH1 0x0 SWAP2 JUMPDEST DUP2 DUP4 LT PUSH3 0x1137 JUMPI POP POP PUSH3 0x1107 SWAP4 POP DUP3 ADD ADD CODESIZE DUP1 PUSH3 0x10F7 JUMP JUMPDEST DUP6 SLOAD DUP9 DUP5 ADD DUP6 ADD MSTORE SWAP5 DUP6 ADD SWAP5 DUP8 SWAP5 POP SWAP2 DUP4 ADD SWAP2 PUSH3 0x111C JUMP JUMPDEST SWAP2 POP POP PUSH3 0x1107 SWAP5 POP PUSH1 0x20 SWAP3 POP PUSH1 0xFF NOT AND DUP3 DUP5 ADD MSTORE ISZERO ISZERO PUSH1 0x5 SHL DUP3 ADD ADD CODESIZE DUP1 PUSH3 0x10F7 JUMP JUMPDEST SWAP2 SWAP1 DUP3 MLOAD SWAP3 DUP4 DUP3 MSTORE PUSH1 0x0 JUMPDEST DUP5 DUP2 LT PUSH3 0x11A2 JUMPI POP POP DUP3 PUSH1 0x0 PUSH1 0x20 DUP1 SWAP5 SWAP6 DUP5 ADD ADD MSTORE PUSH1 0x1F DUP1 NOT SWAP2 ADD AND ADD ADD SWAP1 JUMP JUMPDEST PUSH1 0x20 DUP2 DUP4 ADD DUP2 ADD MLOAD DUP5 DUP4 ADD DUP3 ADD MSTORE ADD PUSH3 0x1180 JUMP JUMPDEST DUP2 PUSH1 0x1F DUP3 ADD SLT ISZERO PUSH3 0x1015 JUMPI DUP1 CALLDATALOAD SWAP1 PUSH8 0xFFFFFFFFFFFFFFFF DUP3 GT PUSH3 0x106C JUMPI PUSH1 0x40 MLOAD SWAP3 PUSH3 0x11F0 PUSH1 0x1F DUP5 ADD PUSH1 0x1F NOT AND PUSH1 0x20 ADD DUP6 PUSH3 0x10A0 JUMP JUMPDEST DUP3 DUP5 MSTORE PUSH1 0x20 DUP4 DUP4 ADD ADD GT PUSH3 0x1015 JUMPI DUP2 PUSH1 0x0 SWAP3 PUSH1 0x20 DUP1 SWAP4 ADD DUP4 DUP7 ADD CALLDATACOPY DUP4 ADD ADD MSTORE SWAP1 JUMP JUMPDEST PUSH1 0x1 SLOAD PUSH1 0x1 PUSH1 0x1 PUSH1 0xA0 SHL SUB AND CALLER SUB PUSH3 0x1228 JUMPI JUMP JUMPDEST PUSH1 0x64 PUSH1 0x40 MLOAD PUSH3 0x461BCD PUSH1 0xE5 SHL DUP2 MSTORE PUSH1 0x20 PUSH1 0x4 DUP3 ADD MSTORE PUSH1 0x20 PUSH1 0x24 DUP3 ADD MSTORE PUSH32 0x4F776E61626C653A2063616C6C6572206973206E6F7420746865206F776E6572 PUSH1 0x44 DUP3 ADD MSTORE REVERT JUMPDEST PUSH1 0x2 PUSH1 0x0 SLOAD EQ PUSH3 0x127E JUMPI PUSH1 0x2 PUSH1 0x0 SSTORE JUMP JUMPDEST PUSH1 0x40 MLOAD PUSH3 0x461BCD PUSH1 0xE5 SHL DUP2 MSTORE PUSH1 0x20 PUSH1 0x4 DUP3 ADD MSTORE PUSH1 0x1F PUSH1 0x24 DUP3 ADD MSTORE PUSH32 0x5265656E7472616E637947756172643A207265656E7472616E742063616C6C00 PUSH1 0x44 DUP3 ADD MSTORE PUSH1 0x64 SWAP1 REVERT JUMPDEST PUSH1 0x1 PUSH1 0x1 PUSH1 0xA0 SHL SUB AND PUSH1 0x0 SWAP1 DUP2 MSTORE PUSH1 0x3 PUSH1 0x20 SWAP1 DUP2 MSTORE PUSH1 0x40 DUP1 DUP4 KECCAK256 SWAP4 DUP4 MSTORE SWAP3 SWAP1 MSTORE SWAP1 DUP2 KECCAK256 SLOAD DUP1 ISZERO PUSH3 0x1306 JUMPI DUP2 MSTORE PUSH1 0x2 PUSH1 0x20 MSTORE PUSH1 0x40 SWAP1 KECCAK256 PUSH1 0x4 ADD SLOAD PUSH1 0xA0 SHR PUSH1 0xFF AND SWAP1 JUMP JUMPDEST POP SWAP1 JUMP INVALID PUSH1 0x40 PUSH1 0xA0 DUP2 MSTORE CALLVALUE PUSH3 0x427 JUMPI PUSH3 0xF56 DUP1 CODESIZE SUB DUP1 PUSH3 0x1E DUP2 PUSH3 0x42C JUMP JUMPDEST SWAP3 DUP4 CODECOPY DUP2 ADD PUSH1 0x80 DUP3 DUP3 SUB SLT PUSH3 0x427 JUMPI DUP2 MLOAD PUSH1 0x1 PUSH1 0x1 PUSH1 0x40 SHL SUB SWAP3 SWAP1 DUP4 DUP2 GT PUSH3 0x427 JUMPI DUP3 PUSH3 0x50 SWAP2 DUP4 ADD PUSH3 0x452 JUMP JUMPDEST SWAP3 PUSH1 0x20 SWAP3 DUP4 DUP4 ADD MLOAD SWAP1 DUP3 DUP3 GT PUSH3 0x427 JUMPI PUSH3 0x6E SWAP2 DUP5 ADD PUSH3 0x452 JUMP JUMPDEST SWAP1 PUSH1 0x60 DUP7 DUP5 ADD MLOAD SWAP4 ADD MLOAD SWAP5 PUSH1 0x1 DUP1 PUSH1 0xA0 SHL SUB DUP7 AND DUP1 SWAP7 SUB PUSH3 0x427 JUMPI DUP1 MLOAD SWAP2 DUP1 DUP4 GT PUSH3 0x327 JUMPI PUSH1 0x3 DUP1 SLOAD SWAP4 PUSH1 0x1 SWAP4 DUP5 DUP7 DUP2 SHR SWAP7 AND DUP1 ISZERO PUSH3 0x41C JUMPI JUMPDEST DUP10 DUP8 LT EQ PUSH3 0x406 JUMPI DUP2 SWAP1 PUSH1 0x1F SWAP7 DUP8 DUP2 GT PUSH3 0x3B0 JUMPI JUMPDEST POP DUP10 SWAP1 DUP8 DUP4 GT PUSH1 0x1 EQ PUSH3 0x349 JUMPI PUSH1 0x0 SWAP3 PUSH3 0x33D JUMPI JUMPDEST POP POP PUSH1 0x0 NOT DUP3 DUP5 SHL SHR NOT AND SWAP1 DUP5 SHL OR DUP2 SSTORE JUMPDEST DUP5 MLOAD SWAP2 DUP3 GT PUSH3 0x327 JUMPI PUSH1 0x4 SWAP5 DUP6 SLOAD DUP5 DUP2 DUP2 SHR SWAP2 AND DUP1 ISZERO PUSH3 0x31C JUMPI JUMPDEST DUP10 DUP3 LT EQ PUSH3 0x307 JUMPI DUP6 DUP2 GT PUSH3 0x2BC JUMPI JUMPDEST POP DUP8 SWAP1 DUP6 DUP5 GT PUSH1 0x1 EQ PUSH3 0x251 JUMPI SWAP4 DUP4 SWAP5 SWAP2 DUP5 SWAP3 PUSH1 0x0 SWAP6 PUSH3 0x245 JUMPI JUMPDEST POP POP SHL SWAP3 PUSH1 0x0 NOT SWAP2 SHL SHR NOT AND OR DUP3 SSTORE JUMPDEST CALLER PUSH1 0x80 MSTORE PUSH8 0xDE0B6B3A7640000 SWAP3 DUP4 DUP2 MUL SWAP4 DUP2 DUP6 DIV EQ SWAP1 ISZERO OR ISZERO PUSH3 0x230 JUMPI DUP5 ISZERO PUSH3 0x1EE JUMPI POP PUSH1 0x2 SLOAD SWAP1 DUP3 DUP3 ADD DUP1 SWAP3 GT PUSH3 0x1D9 JUMPI POP PUSH1 0x2 SSTORE PUSH1 0x0 DUP4 DUP2 MSTORE DUP1 DUP4 MSTORE DUP5 DUP2 KECCAK256 DUP1 SLOAD DUP4 ADD SWAP1 SSTORE DUP5 MLOAD SWAP2 DUP3 MSTORE SWAP2 PUSH32 0xDDF252AD1BE2C89B69C2B068FC378DAA952BA7F163C4A11628F55A4DF523B3EF SWAP2 LOG3 MLOAD PUSH2 0xA91 SWAP1 DUP2 PUSH3 0x4C5 DUP3 CODECOPY PUSH1 0x80 MLOAD DUP2 DUP2 DUP2 PUSH2 0x30B ADD MSTORE PUSH2 0x364 ADD MSTORE RETURN JUMPDEST PUSH1 0x11 SWAP1 PUSH4 0x4E487B71 PUSH1 0xE0 SHL PUSH1 0x0 MSTORE MSTORE PUSH1 0x24 PUSH1 0x0 REVERT JUMPDEST DUP6 MLOAD PUSH3 0x461BCD PUSH1 0xE5 SHL DUP2 MSTORE SWAP2 DUP3 ADD DUP5 SWAP1 MSTORE PUSH1 0x24 DUP3 ADD MSTORE PUSH32 0x45524332303A206D696E7420746F20746865207A65726F206164647265737300 PUSH1 0x44 DUP3 ADD MSTORE PUSH1 0x64 SWAP2 POP REVERT JUMPDEST PUSH1 0x11 DUP3 PUSH4 0x4E487B71 PUSH1 0xE0 SHL PUSH1 0x0 MSTORE MSTORE PUSH1 0x24 PUSH1 0x0 REVERT JUMPDEST ADD MLOAD SWAP4 POP CODESIZE DUP1 PUSH3 0x137 JUMP JUMPDEST SWAP2 SWAP1 PUSH1 0x1F NOT DUP5 AND SWAP3 DUP8 PUSH1 0x0 MSTORE DUP5 DUP11 PUSH1 0x0 KECCAK256 SWAP5 PUSH1 0x0 JUMPDEST DUP13 DUP10 DUP4 DUP4 LT PUSH3 0x2A4 JUMPI POP POP POP LT PUSH3 0x289 JUMPI JUMPDEST POP POP POP POP DUP2 SHL ADD DUP3 SSTORE PUSH3 0x147 JUMP JUMPDEST ADD MLOAD SWAP1 PUSH1 0xF8 DUP5 PUSH1 0x0 NOT SWAP3 SHL AND SHR NOT AND SWAP1 SSTORE CODESIZE DUP1 DUP1 DUP1 PUSH3 0x27A JUMP JUMPDEST DUP7 DUP7 ADD MLOAD DUP10 SSTORE SWAP1 SWAP8 ADD SWAP7 SWAP5 DUP6 ADD SWAP5 DUP9 SWAP4 POP ADD PUSH3 0x266 JUMP JUMPDEST DUP7 PUSH1 0x0 MSTORE DUP9 PUSH1 0x0 KECCAK256 DUP7 DUP1 DUP7 ADD PUSH1 0x5 SHR DUP3 ADD SWAP3 DUP12 DUP8 LT PUSH3 0x2FD JUMPI JUMPDEST ADD PUSH1 0x5 SHR ADD SWAP1 DUP6 SWAP1 JUMPDEST DUP3 DUP2 LT PUSH3 0x2F0 JUMPI POP POP PUSH3 0x11A JUMP JUMPDEST PUSH1 0x0 DUP2 SSTORE ADD DUP6 SWAP1 PUSH3 0x2E0 JUMP JUMPDEST SWAP3 POP DUP2 SWAP3 PUSH3 0x2D7 JUMP JUMPDEST PUSH1 0x22 DUP8 PUSH4 0x4E487B71 PUSH1 0xE0 SHL PUSH1 0x0 MSTORE MSTORE PUSH1 0x24 PUSH1 0x0 REVERT JUMPDEST SWAP1 PUSH1 0x7F AND SWAP1 PUSH3 0x108 JUMP JUMPDEST PUSH4 0x4E487B71 PUSH1 0xE0 SHL PUSH1 0x0 MSTORE PUSH1 0x41 PUSH1 0x4 MSTORE PUSH1 0x24 PUSH1 0x0 REVERT JUMPDEST ADD MLOAD SWAP1 POP CODESIZE DUP1 PUSH3 0xD9 JUMP JUMPDEST SWAP1 DUP7 SWAP4 POP PUSH1 0x1F NOT DUP4 AND SWAP2 DUP6 PUSH1 0x0 MSTORE DUP12 PUSH1 0x0 KECCAK256 SWAP3 PUSH1 0x0 JUMPDEST DUP14 DUP3 DUP3 LT PUSH3 0x399 JUMPI POP POP DUP5 GT PUSH3 0x380 JUMPI JUMPDEST POP POP POP DUP2 SHL ADD DUP2 SSTORE PUSH3 0xEB JUMP JUMPDEST ADD MLOAD PUSH1 0x0 NOT DUP4 DUP7 SHL PUSH1 0xF8 AND SHR NOT AND SWAP1 SSTORE CODESIZE DUP1 DUP1 PUSH3 0x372 JUMP JUMPDEST DUP4 DUP6 ADD MLOAD DUP7 SSTORE DUP11 SWAP8 SWAP1 SWAP6 ADD SWAP5 SWAP4 DUP5 ADD SWAP4 ADD PUSH3 0x35F JUMP JUMPDEST SWAP1 SWAP2 POP DUP4 PUSH1 0x0 MSTORE DUP10 PUSH1 0x0 KECCAK256 DUP8 DUP1 DUP6 ADD PUSH1 0x5 SHR DUP3 ADD SWAP3 DUP13 DUP7 LT PUSH3 0x3FC JUMPI JUMPDEST SWAP2 DUP9 SWAP2 DUP7 SWAP6 SWAP5 SWAP4 ADD PUSH1 0x5 SHR ADD SWAP2 JUMPDEST DUP3 DUP2 LT PUSH3 0x3EC JUMPI POP POP PUSH3 0xC2 JUMP JUMPDEST PUSH1 0x0 DUP2 SSTORE DUP6 SWAP5 POP DUP9 SWAP2 ADD PUSH3 0x3DC JUMP JUMPDEST SWAP3 POP DUP2 SWAP3 PUSH3 0x3CE JUMP JUMPDEST PUSH4 0x4E487B71 PUSH1 0xE0 SHL PUSH1 0x0 MSTORE PUSH1 0x22 PUSH1 0x4 MSTORE PUSH1 0x24 PUSH1 0x0 REVERT JUMPDEST SWAP6 PUSH1 0x7F AND SWAP6 PUSH3 0xAB JUMP JUMPDEST PUSH1 0x0 DUP1 REVERT JUMPDEST PUSH1 0x40 MLOAD SWAP2 SWAP1 PUSH1 0x1F ADD PUSH1 0x1F NOT AND DUP3 ADD PUSH1 0x1 PUSH1 0x1 PUSH1 0x40 SHL SUB DUP2 GT DUP4 DUP3 LT OR PUSH3 0x327 JUMPI PUSH1 0x40 MSTORE JUMP JUMPDEST SWAP2 SWAP1 DUP1 PUSH1 0x1F DUP5 ADD SLT ISZERO PUSH3 0x427 JUMPI DUP3 MLOAD PUSH1 0x1 PUSH1 0x1 PUSH1 0x40 SHL SUB DUP2 GT PUSH3 0x327 JUMPI PUSH1 0x20 SWAP1 PUSH3 0x488 PUSH1 0x1F DUP3 ADD PUSH1 0x1F NOT AND DUP4 ADD PUSH3 0x42C JUMP JUMPDEST SWAP3 DUP2 DUP5 MSTORE DUP3 DUP3 DUP8 ADD ADD GT PUSH3 0x427 JUMPI PUSH1 0x0 JUMPDEST DUP2 DUP2 LT PUSH3 0x4B0 JUMPI POP DUP3 PUSH1 0x0 SWAP4 SWAP5 SWAP6 POP ADD ADD MSTORE SWAP1 JUMP JUMPDEST DUP6 DUP2 ADD DUP4 ADD MLOAD DUP5 DUP3 ADD DUP5 ADD MSTORE DUP3 ADD PUSH3 0x49A JUMP INVALID PUSH1 0x80 PUSH1 0x40 DUP2 DUP2 MSTORE PUSH1 0x4 SWAP2 DUP3 CALLDATASIZE LT ISZERO PUSH2 0x16 JUMPI PUSH1 0x0 DUP1 REVERT JUMPDEST PUSH1 0x0 SWAP3 DUP4 CALLDATALOAD PUSH1 0xE0 SHR SWAP2 DUP3 PUSH4 0x6FDDE03 EQ PUSH2 0x695 JUMPI POP DUP2 PUSH4 0x95EA7B3 EQ PUSH2 0x66B JUMPI DUP2 PUSH4 0x18160DDD EQ PUSH2 0x64C JUMPI DUP2 PUSH4 0x23B872DD EQ PUSH2 0x582 JUMPI DUP2 PUSH4 0x313CE567 EQ PUSH2 0x566 JUMPI DUP2 PUSH4 0x39509351 EQ PUSH2 0x4FF JUMPI DUP2 PUSH4 0x70A08231 EQ PUSH2 0x4C8 JUMPI DUP2 PUSH4 0x79CC6790 EQ PUSH2 0x33A JUMPI DUP2 PUSH4 0x8A71AFFD EQ PUSH2 0x2F6 JUMPI DUP2 PUSH4 0x95D89B41 EQ PUSH2 0x1D7 JUMPI DUP2 PUSH4 0xA457C2D7 EQ PUSH2 0x12F JUMPI POP DUP1 PUSH4 0xA9059CBB EQ PUSH2 0xFF JUMPI PUSH4 0xDD62ED3E EQ PUSH2 0xB4 JUMPI PUSH1 0x0 DUP1 REVERT JUMPDEST CALLVALUE PUSH2 0xFB JUMPI DUP1 PUSH1 0x3 NOT CALLDATASIZE ADD SLT PUSH2 0xFB JUMPI DUP1 PUSH1 0x20 SWAP3 PUSH2 0xD0 PUSH2 0x7BA JUMP JUMPDEST PUSH2 0xD8 PUSH2 0x7D5 JUMP JUMPDEST PUSH1 0x1 PUSH1 0x1 PUSH1 0xA0 SHL SUB SWAP2 DUP3 AND DUP4 MSTORE PUSH1 0x1 DUP7 MSTORE DUP4 DUP4 KECCAK256 SWAP2 AND DUP3 MSTORE DUP5 MSTORE KECCAK256 SLOAD SWAP1 MLOAD SWAP1 DUP2 MSTORE RETURN JUMPDEST POP DUP1 REVERT JUMPDEST POP CALLVALUE PUSH2 0xFB JUMPI DUP1 PUSH1 0x3 NOT CALLDATASIZE ADD SLT PUSH2 0xFB JUMPI PUSH1 0x20 SWAP1 PUSH2 0x128 PUSH2 0x11E PUSH2 0x7BA JUMP JUMPDEST PUSH1 0x24 CALLDATALOAD SWAP1 CALLER PUSH2 0x7EB JUMP JUMPDEST MLOAD PUSH1 0x1 DUP2 MSTORE RETURN JUMPDEST SWAP1 POP DUP3 CALLVALUE PUSH2 0x1D4 JUMPI DUP3 PUSH1 0x3 NOT CALLDATASIZE ADD SLT PUSH2 0x1D4 JUMPI PUSH2 0x14A PUSH2 0x7BA JUMP JUMPDEST SWAP2 DUP4 PUSH1 0x24 CALLDATALOAD SWAP3 CALLER DUP2 MSTORE PUSH1 0x1 PUSH1 0x20 MSTORE DUP2 DUP2 KECCAK256 PUSH1 0x1 DUP1 PUSH1 0xA0 SHL SUB DUP7 AND DUP3 MSTORE PUSH1 0x20 MSTORE KECCAK256 SLOAD SWAP1 DUP3 DUP3 LT PUSH2 0x183 JUMPI PUSH1 0x20 DUP6 PUSH2 0x128 DUP6 DUP6 SUB DUP8 CALLER PUSH2 0x959 JUMP JUMPDEST PUSH1 0x84 SWAP1 PUSH1 0x20 DUP7 MLOAD SWAP2 PUSH3 0x461BCD PUSH1 0xE5 SHL DUP4 MSTORE DUP3 ADD MSTORE PUSH1 0x25 PUSH1 0x24 DUP3 ADD MSTORE PUSH32 0x45524332303A2064656372656173656420616C6C6F77616E63652062656C6F77 PUSH1 0x44 DUP3 ADD MSTORE PUSH5 0x207A65726F PUSH1 0xD8 SHL PUSH1 0x64 DUP3 ADD MSTORE REVERT JUMPDEST DUP1 REVERT JUMPDEST DUP4 DUP4 CALLVALUE PUSH2 0xFB JUMPI DUP2 PUSH1 0x3 NOT CALLDATASIZE ADD SLT PUSH2 0xFB JUMPI DUP1 MLOAD SWAP1 DUP3 DUP5 SLOAD PUSH1 0x1 DUP2 DUP2 SHR SWAP1 DUP1 DUP4 AND SWAP3 DUP4 ISZERO PUSH2 0x2EC JUMPI JUMPDEST PUSH1 0x20 SWAP4 DUP5 DUP5 LT DUP2 EQ PUSH2 0x2D9 JUMPI DUP4 DUP9 MSTORE SWAP1 DUP2 ISZERO PUSH2 0x2BD JUMPI POP PUSH1 0x1 EQ PUSH2 0x268 JUMPI JUMPDEST POP POP POP DUP3 SWAP1 SUB PUSH1 0x1F ADD PUSH1 0x1F NOT AND DUP3 ADD SWAP3 PUSH8 0xFFFFFFFFFFFFFFFF DUP5 GT DUP4 DUP6 LT OR PUSH2 0x255 JUMPI POP DUP3 SWAP2 DUP3 PUSH2 0x251 SWAP3 MSTORE DUP3 PUSH2 0x771 JUMP JUMPDEST SUB SWAP1 RETURN JUMPDEST PUSH4 0x4E487B71 PUSH1 0xE0 SHL DUP2 MSTORE PUSH1 0x41 DUP6 MSTORE PUSH1 0x24 SWAP1 REVERT JUMPDEST DUP8 DUP8 MSTORE SWAP2 SWAP3 POP DUP6 SWAP2 DUP4 PUSH32 0x8A35ACFBC15FF81A39AE7D344FD709F28E8600B4AA8C65C6B64BFE7FE36BD19B JUMPDEST DUP4 DUP6 LT PUSH2 0x2A9 JUMPI POP POP POP POP DUP4 ADD ADD DUP6 DUP1 DUP1 PUSH2 0x21F JUMP JUMPDEST DUP1 SLOAD DUP9 DUP7 ADD DUP4 ADD MSTORE SWAP4 ADD SWAP3 DUP5 SWAP1 DUP3 ADD PUSH2 0x293 JUMP JUMPDEST PUSH1 0xFF NOT AND DUP8 DUP6 ADD MSTORE POP POP ISZERO ISZERO PUSH1 0x5 SHL DUP5 ADD ADD SWAP1 POP DUP6 DUP1 DUP1 PUSH2 0x21F JUMP JUMPDEST PUSH4 0x4E487B71 PUSH1 0xE0 SHL DUP10 MSTORE PUSH1 0x22 DUP11 MSTORE PUSH1 0x24 DUP10 REVERT JUMPDEST SWAP2 PUSH1 0x7F AND SWAP2 PUSH2 0x200 JUMP JUMPDEST POP POP CALLVALUE PUSH2 0xFB JUMPI DUP2 PUSH1 0x3 NOT CALLDATASIZE ADD SLT PUSH2 0xFB JUMPI MLOAD PUSH32 0x0 PUSH1 0x1 PUSH1 0x1 PUSH1 0xA0 SHL SUB AND DUP2 MSTORE PUSH1 0x20 SWAP1 RETURN JUMPDEST DUP4 SWAP2 POP CALLVALUE PUSH2 0xFB JUMPI DUP3 PUSH1 0x3 NOT CALLDATASIZE ADD SLT PUSH2 0xFB JUMPI PUSH2 0x355 PUSH2 0x7BA JUMP JUMPDEST PUSH1 0x24 CALLDATALOAD SWAP1 PUSH1 0x1 PUSH1 0x1 PUSH1 0xA0 SHL SUB SWAP1 PUSH32 0x0 DUP3 AND CALLER SUB PUSH2 0x485 JUMPI AND SWAP2 DUP3 ISZERO PUSH2 0x438 JUMPI DUP3 DUP5 MSTORE DUP4 PUSH1 0x20 MSTORE DUP5 DUP5 KECCAK256 SLOAD SWAP1 DUP3 DUP3 LT PUSH2 0x3EA JUMPI POP DUP2 DUP5 SWAP6 PUSH32 0xDDF252AD1BE2C89B69C2B068FC378DAA952BA7F163C4A11628F55A4DF523B3EF SWAP4 PUSH1 0x20 SWAP4 DUP7 DUP9 MSTORE DUP8 DUP6 MSTORE SUB DUP2 DUP8 KECCAK256 SSTORE DUP2 PUSH1 0x2 SLOAD SUB PUSH1 0x2 SSTORE MLOAD SWAP1 DUP2 MSTORE LOG3 DUP1 RETURN JUMPDEST PUSH1 0x84 SWAP1 PUSH1 0x20 DUP8 MLOAD SWAP2 PUSH3 0x461BCD PUSH1 0xE5 SHL DUP4 MSTORE DUP3 ADD MSTORE PUSH1 0x22 PUSH1 0x24 DUP3 ADD MSTORE PUSH32 0x45524332303A206275726E20616D6F756E7420657863656564732062616C616E PUSH1 0x44 DUP3 ADD MSTORE PUSH2 0x6365 PUSH1 0xF0 SHL PUSH1 0x64 DUP3 ADD MSTORE REVERT JUMPDEST PUSH1 0x84 SWAP1 PUSH1 0x20 DUP7 MLOAD SWAP2 PUSH3 0x461BCD PUSH1 0xE5 SHL DUP4 MSTORE DUP3 ADD MSTORE PUSH1 0x21 PUSH1 0x24 DUP3 ADD MSTORE PUSH32 0x45524332303A206275726E2066726F6D20746865207A65726F20616464726573 PUSH1 0x44 DUP3 ADD MSTORE PUSH1 0x73 PUSH1 0xF8 SHL PUSH1 0x64 DUP3 ADD MSTORE REVERT JUMPDEST DUP6 MLOAD PUSH3 0x461BCD PUSH1 0xE5 SHL DUP2 MSTORE PUSH1 0x20 DUP2 DUP7 ADD MSTORE PUSH1 0x1B PUSH1 0x24 DUP3 ADD MSTORE PUSH32 0x4F6E6C79204672616374696F6E616C4E46542063616E206275726E0000000000 PUSH1 0x44 DUP3 ADD MSTORE PUSH1 0x64 SWAP1 REVERT JUMPDEST POP POP CALLVALUE PUSH2 0xFB JUMPI PUSH1 0x20 CALLDATASIZE PUSH1 0x3 NOT ADD SLT PUSH2 0xFB JUMPI PUSH1 0x20 SWAP2 DUP2 SWAP1 PUSH1 0x1 PUSH1 0x1 PUSH1 0xA0 SHL SUB PUSH2 0x4F0 PUSH2 0x7BA JUMP JUMPDEST AND DUP2 MSTORE DUP1 DUP5 MSTORE KECCAK256 SLOAD SWAP1 MLOAD SWAP1 DUP2 MSTORE RETURN JUMPDEST DUP3 DUP5 CALLVALUE PUSH2 0x1D4 JUMPI DUP2 PUSH1 0x3 NOT CALLDATASIZE ADD SLT PUSH2 0x1D4 JUMPI PUSH2 0x519 PUSH2 0x7BA JUMP JUMPDEST CALLER DUP3 MSTORE PUSH1 0x1 PUSH1 0x20 SWAP1 DUP2 MSTORE DUP4 DUP4 KECCAK256 PUSH1 0x1 PUSH1 0x1 PUSH1 0xA0 SHL SUB DUP4 AND DUP5 MSTORE SWAP1 MSTORE DUP3 DUP3 KECCAK256 SLOAD PUSH1 0x24 CALLDATALOAD DUP2 ADD SWAP3 SWAP1 DUP4 LT PUSH2 0x553 JUMPI PUSH1 0x20 DUP5 PUSH2 0x128 DUP6 DUP6 CALLER PUSH2 0x959 JUMP JUMPDEST PUSH4 0x4E487B71 PUSH1 0xE0 SHL DUP2 MSTORE PUSH1 0x11 DUP6 MSTORE PUSH1 0x24 SWAP1 REVERT JUMPDEST POP POP CALLVALUE PUSH2 0xFB JUMPI DUP2 PUSH1 0x3 NOT CALLDATASIZE ADD SLT PUSH2 0xFB JUMPI PUSH1 0x20 SWAP1 MLOAD PUSH1 0x12 DUP2 MSTORE RETURN JUMPDEST DUP4 SWAP2 POP CALLVALUE PUSH2 0xFB JUMPI PUSH1 0x60 CALLDATASIZE PUSH1 0x3 NOT ADD SLT PUSH2 0xFB JUMPI PUSH2 0x59E PUSH2 0x7BA JUMP JUMPDEST PUSH2 0x5A6 PUSH2 0x7D5 JUMP JUMPDEST SWAP2 DUP5 PUSH1 0x44 CALLDATALOAD SWAP5 PUSH1 0x1 DUP1 PUSH1 0xA0 SHL SUB DUP5 AND DUP2 MSTORE PUSH1 0x1 PUSH1 0x20 MSTORE DUP2 DUP2 KECCAK256 CALLER DUP3 MSTORE PUSH1 0x20 MSTORE KECCAK256 SLOAD SWAP1 PUSH1 0x0 NOT DUP3 SUB PUSH2 0x5E0 JUMPI JUMPDEST PUSH1 0x20 DUP7 PUSH2 0x128 DUP8 DUP8 DUP8 PUSH2 0x7EB JUMP JUMPDEST DUP5 DUP3 LT PUSH2 0x609 JUMPI POP SWAP2 DUP4 SWAP2 PUSH2 0x5FE PUSH1 0x20 SWAP7 SWAP6 PUSH2 0x128 SWAP6 SUB CALLER DUP4 PUSH2 0x959 JUMP JUMPDEST SWAP2 SWAP4 SWAP5 DUP2 SWAP4 POP PUSH2 0x5D2 JUMP JUMPDEST PUSH1 0x64 SWAP1 PUSH1 0x20 DUP8 MLOAD SWAP2 PUSH3 0x461BCD PUSH1 0xE5 SHL DUP4 MSTORE DUP3 ADD MSTORE PUSH1 0x1D PUSH1 0x24 DUP3 ADD MSTORE PUSH32 0x45524332303A20696E73756666696369656E7420616C6C6F77616E6365000000 PUSH1 0x44 DUP3 ADD MSTORE REVERT JUMPDEST POP POP CALLVALUE PUSH2 0xFB JUMPI DUP2 PUSH1 0x3 NOT CALLDATASIZE ADD SLT PUSH2 0xFB JUMPI PUSH1 0x20 SWAP1 PUSH1 0x2 SLOAD SWAP1 MLOAD SWAP1 DUP2 MSTORE RETURN JUMPDEST POP POP CALLVALUE PUSH2 0xFB JUMPI DUP1 PUSH1 0x3 NOT CALLDATASIZE ADD SLT PUSH2 0xFB JUMPI PUSH1 0x20 SWAP1 PUSH2 0x128 PUSH2 0x68B PUSH2 0x7BA JUMP JUMPDEST PUSH1 0x24 CALLDATALOAD SWAP1 CALLER PUSH2 0x959 JUMP JUMPDEST DUP5 SWAP1 DUP5 CALLVALUE PUSH2 0x76D JUMPI DUP3 PUSH1 0x3 NOT CALLDATASIZE ADD SLT PUSH2 0x76D JUMPI DUP3 PUSH1 0x3 SLOAD PUSH1 0x1 DUP2 DUP2 SHR SWAP1 DUP1 DUP4 AND SWAP3 DUP4 ISZERO PUSH2 0x763 JUMPI JUMPDEST PUSH1 0x20 SWAP4 DUP5 DUP5 LT DUP2 EQ PUSH2 0x2D9 JUMPI DUP4 DUP9 MSTORE SWAP1 DUP2 ISZERO PUSH2 0x2BD JUMPI POP PUSH1 0x1 EQ PUSH2 0x70D JUMPI POP POP POP DUP3 SWAP1 SUB PUSH1 0x1F ADD PUSH1 0x1F NOT AND DUP3 ADD SWAP3 PUSH8 0xFFFFFFFFFFFFFFFF DUP5 GT DUP4 DUP6 LT OR PUSH2 0x255 JUMPI POP DUP3 SWAP2 DUP3 PUSH2 0x251 SWAP3 MSTORE DUP3 PUSH2 0x771 JUMP JUMPDEST PUSH1 0x3 DUP8 MSTORE SWAP2 SWAP3 POP DUP6 SWAP2 DUP4 PUSH32 0xC2575A0E9E593C00F959F8C92F12DB2869C3395A3B0502D05E2516446F71F85B JUMPDEST DUP4 DUP6 LT PUSH2 0x74F JUMPI POP POP POP POP DUP4 ADD ADD DUP6 DUP1 DUP1 PUSH2 0x21F JUMP JUMPDEST DUP1 SLOAD DUP9 DUP7 ADD DUP4 ADD MSTORE SWAP4 ADD SWAP3 DUP5 SWAP1 DUP3 ADD PUSH2 0x739 JUMP JUMPDEST SWAP2 PUSH1 0x7F AND SWAP2 PUSH2 0x6BD JUMP JUMPDEST DUP3 DUP1 REVERT JUMPDEST PUSH1 0x20 DUP1 DUP3 MSTORE DUP3 MLOAD DUP2 DUP4 ADD DUP2 SWAP1 MSTORE SWAP1 SWAP4 SWAP3 PUSH1 0x0 JUMPDEST DUP3 DUP2 LT PUSH2 0x7A6 JUMPI POP POP PUSH1 0x40 SWAP3 SWAP4 POP PUSH1 0x0 DUP4 DUP3 DUP5 ADD ADD MSTORE PUSH1 0x1F DUP1 NOT SWAP2 ADD AND ADD ADD SWAP1 JUMP JUMPDEST DUP2 DUP2 ADD DUP7 ADD MLOAD DUP5 DUP3 ADD PUSH1 0x40 ADD MSTORE DUP6 ADD PUSH2 0x784 JUMP JUMPDEST PUSH1 0x4 CALLDATALOAD SWAP1 PUSH1 0x1 PUSH1 0x1 PUSH1 0xA0 SHL SUB DUP3 AND DUP3 SUB PUSH2 0x7D0 JUMPI JUMP JUMPDEST PUSH1 0x0 DUP1 REVERT JUMPDEST PUSH1 0x24 CALLDATALOAD SWAP1 PUSH1 0x1 PUSH1 0x1 PUSH1 0xA0 SHL SUB DUP3 AND DUP3 SUB PUSH2 0x7D0 JUMPI JUMP JUMPDEST PUSH1 0x1 PUSH1 0x1 PUSH1 0xA0 SHL SUB SWAP1 DUP2 AND SWAP2 DUP3 ISZERO PUSH2 0x906 JUMPI AND SWAP2 DUP3 ISZERO PUSH2 0x8B5 JUMPI PUSH1 0x0 DUP3 DUP2 MSTORE DUP1 PUSH1 0x20 MSTORE PUSH1 0x40 DUP2 KECCAK256 SLOAD SWAP2 DUP1 DUP4 LT PUSH2 0x861 JUMPI PUSH1 0x40 DUP3 DUP3 PUSH32 0xDDF252AD1BE2C89B69C2B068FC378DAA952BA7F163C4A11628F55A4DF523B3EF SWAP6 DUP8 PUSH1 0x20 SWAP7 MSTORE DUP3 DUP7 MSTORE SUB DUP3 DUP3 KECCAK256 SSTORE DUP7 DUP2 MSTORE KECCAK256 DUP2 DUP2 SLOAD ADD SWAP1 SSTORE PUSH1 0x40 MLOAD SWAP1 DUP2 MSTORE LOG3 JUMP JUMPDEST PUSH1 0x40 MLOAD PUSH3 0x461BCD PUSH1 0xE5 SHL DUP2 MSTORE PUSH1 0x20 PUSH1 0x4 DUP3 ADD MSTORE PUSH1 0x26 PUSH1 0x24 DUP3 ADD MSTORE PUSH32 0x45524332303A207472616E7366657220616D6F756E7420657863656564732062 PUSH1 0x44 DUP3 ADD MSTORE PUSH6 0x616C616E6365 PUSH1 0xD0 SHL PUSH1 0x64 DUP3 ADD MSTORE PUSH1 0x84 SWAP1 REVERT JUMPDEST PUSH1 0x40 MLOAD PUSH3 0x461BCD PUSH1 0xE5 SHL DUP2 MSTORE PUSH1 0x20 PUSH1 0x4 DUP3 ADD MSTORE PUSH1 0x23 PUSH1 0x24 DUP3 ADD MSTORE PUSH32 0x45524332303A207472616E7366657220746F20746865207A65726F2061646472 PUSH1 0x44 DUP3 ADD MSTORE PUSH3 0x657373 PUSH1 0xE8 SHL PUSH1 0x64 DUP3 ADD MSTORE PUSH1 0x84 SWAP1 REVERT JUMPDEST PUSH1 0x40 MLOAD PUSH3 0x461BCD PUSH1 0xE5 SHL DUP2 MSTORE PUSH1 0x20 PUSH1 0x4 DUP3 ADD MSTORE PUSH1 0x25 PUSH1 0x24 DUP3 ADD MSTORE PUSH32 0x45524332303A207472616E736665722066726F6D20746865207A65726F206164 PUSH1 0x44 DUP3 ADD MSTORE PUSH5 0x6472657373 PUSH1 0xD8 SHL PUSH1 0x64 DUP3 ADD MSTORE PUSH1 0x84 SWAP1 REVERT JUMPDEST PUSH1 0x1 PUSH1 0x1 PUSH1 0xA0 SHL SUB SWAP1 DUP2 AND SWAP2 DUP3 ISZERO PUSH2 0xA0A JUMPI AND SWAP2 DUP3 ISZERO PUSH2 0x9BA JUMPI PUSH1 0x20 PUSH32 0x8C5BE1E5EBEC7D5BD14F71427D1E84F3DD0314C0F7B2291E5B200AC8C7C3B925 SWAP2 DUP4 PUSH1 0x0 MSTORE PUSH1 0x1 DUP3 MSTORE PUSH1 0x40 PUSH1 0x0 KECCAK256 DUP6 PUSH1 0x0 MSTORE DUP3 MSTORE DUP1 PUSH1 0x40 PUSH1 0x0 KECCAK256 SSTORE PUSH1 0x40 MLOAD SWAP1 DUP2 MSTORE LOG3 JUMP JUMPDEST PUSH1 0x40 MLOAD PUSH3 0x461BCD PUSH1 0xE5 SHL DUP2 MSTORE PUSH1 0x20 PUSH1 0x4 DUP3 ADD MSTORE PUSH1 0x22 PUSH1 0x24 DUP3 ADD MSTORE PUSH32 0x45524332303A20617070726F766520746F20746865207A65726F206164647265 PUSH1 0x44 DUP3 ADD MSTORE PUSH2 0x7373 PUSH1 0xF0 SHL PUSH1 0x64 DUP3 ADD MSTORE PUSH1 0x84 SWAP1 REVERT JUMPDEST PUSH1 0x40 MLOAD PUSH3 0x461BCD PUSH1 0xE5 SHL DUP2 MSTORE PUSH1 0x20 PUSH1 0x4 DUP3 ADD MSTORE PUSH1 0x24 DUP1 DUP3 ADD MSTORE PUSH32 0x45524332303A20617070726F76652066726F6D20746865207A65726F20616464 PUSH1 0x44 DUP3 ADD MSTORE PUSH4 0x72657373 PUSH1 0xE0 SHL PUSH1 0x64 DUP3 ADD MSTORE PUSH1 0x84 SWAP1 REVERT INVALID LOG2 PUSH5 0x6970667358 0x22 SLT KECCAK256 0xBE 0x4C BLOCKHASH SWAP5 SSTORE 0x2F JUMP MOD SLOAD 0xE BYTE RETURNDATACOPY 0x2D 0xE2 0x23 0x4B 0xDF PUSH4 0xB6F3E85D CALL SIGNEXTEND CALLDATACOPY DUP13 DUP5 0xC6 SWAP13 0xEA DUP1 PUSH18 0x64736F6C63430008140033A2646970667358 0x22 SLT KECCAK256 MSIZE CALLCODE SAR PC 0xBC PC COINBASE 0xC1 0xC0 CHAINID 0xFC BALANCE 0x23 EXP ADD PUSH27 0x26F7454B48A754951FEF4664165EEBE864736F6C63430008140033 "},"methodIdentifiers":{"fractionalizeNFT(address,uint256,uint256,string,string)":"75f0f223","fractionalizedAssets(uint256)":"3982ee0c","fractionalizedCount()":"61d698c3","getFractionTokenAddress(address,uint256)":"354dd82d","getFractionalAsset(uint256)":"d6c234a8","isFractionalized(address,uint256)":"dd6bacc3","nftToFractionalId(address,uint256)":"185fcc2c","owner()":"8da5cb5b","redeemNFT(uint256)":"58dc2cdb","renounceOwnership()":"715018a6","transferOwnership(address)":"f2fde38b"}}}}}