{"contracts/AriaMarketplace.sol":{"AriaMarketplace":{"abi":[{"inputs":[{"internalType":"address","name":"_nftAddress","type":"address"},{"internalType":"address","name":"_tokenAddress","type":"address"},{"internalType":"uint8","name":"_ariaTokenDecimals","type":"uint8"}],"stateMutability":"nonpayable","type":"constructor"},{"anonymous":false,"inputs":[{"indexed":true,"internalType":"uint256","name":"tokenId","type":"uint256"},{"indexed":true,"internalType":"address","name":"by","type":"address"}],"name":"AssetDisputed","type":"event"},{"anonymous":false,"inputs":[{"indexed":true,"internalType":"uint256","name":"tokenId","type":"uint256"},{"indexed":true,"internalType":"address","name":"seller","type":"address"},{"indexed":false,"internalType":"uint256","name":"ariaPrice","type":"uint256"},{"indexed":false,"internalType":"uint256","name":"usdPriceE8","type":"uint256"},{"indexed":false,"internalType":"string","name":"name","type":"string"},{"indexed":false,"internalType":"enum AriaMarketplace.PricingMode","name":"mode","type":"uint8"}],"name":"AssetListed","type":"event"},{"anonymous":false,"inputs":[{"indexed":true,"internalType":"uint256","name":"tokenId","type":"uint256"},{"indexed":true,"internalType":"address","name":"buyer","type":"address"},{"indexed":false,"internalType":"address","name":"seller","type":"address"},{"indexed":false,"internalType":"uint256","name":"paidAria","type":"uint256"},{"indexed":false,"internalType":"enum AriaMarketplace.PricingMode","name":"mode","type":"uint8"}],"name":"AssetPurchased","type":"event"},{"anonymous":false,"inputs":[{"indexed":true,"internalType":"uint256","name":"tokenId","type":"uint256"}],"name":"AssetUnlisted","type":"event"},{"anonymous":false,"inputs":[{"indexed":false,"internalType":"bool","name":"enabled","type":"bool"}],"name":"OracleStatusChanged","type":"event"},{"anonymous":false,"inputs":[{"indexed":false,"internalType":"address","name":"oracle","type":"address"}],"name":"OracleUpdated","type":"event"},{"anonymous":false,"inputs":[{"indexed":true,"internalType":"address","name":"previousOwner","type":"address"},{"indexed":true,"internalType":"address","name":"newOwner","type":"address"}],"name":"OwnershipTransferred","type":"event"},{"anonymous":false,"inputs":[{"indexed":false,"internalType":"string","name":"pair","type":"string"}],"name":"PricePairUpdated","type":"event"},{"inputs":[],"name":"ariaNFT","outputs":[{"internalType":"contract IERC721","name":"","type":"address"}],"stateMutability":"view","type":"function"},{"inputs":[],"name":"ariaToken","outputs":[{"internalType":"contract IERC20","name":"","type":"address"}],"stateMutability":"view","type":"function"},{"inputs":[],"name":"ariaTokenDecimals","outputs":[{"internalType":"uint8","name":"","type":"uint8"}],"stateMutability":"view","type":"function"},{"inputs":[{"internalType":"uint256","name":"tokenId","type":"uint256"}],"name":"currentPriceInAria","outputs":[{"internalType":"uint256","name":"","type":"uint256"}],"stateMutability":"view","type":"function"},{"inputs":[{"internalType":"uint256","name":"tokenId","type":"uint256"}],"name":"disputeAsset","outputs":[],"stateMutability":"nonpayable","type":"function"},{"inputs":[{"internalType":"address","name":"user","type":"address"}],"name":"getClaimableRewardsFor","outputs":[{"internalType":"uint256","name":"","type":"uint256"}],"stateMutability":"view","type":"function"},{"inputs":[{"internalType":"uint256","name":"tokenId","type":"uint256"}],"name":"getListingDetails","outputs":[{"internalType":"address","name":"seller","type":"address"},{"internalType":"uint256","name":"staticPrice","type":"uint256"},{"internalType":"uint256","name":"currentPrice","type":"uint256"},{"internalType":"string","name":"name","type":"string"},{"internalType":"bool","name":"useDynamic","type":"bool"},{"internalType":"string","name":"pair","type":"string"},{"internalType":"uint256","name":"priceInUSD_E8","type":"uint256"},{"internalType":"bool","name":"disputed","type":"bool"}],"stateMutability":"view","type":"function"},{"inputs":[{"internalType":"uint256","name":"","type":"uint256"}],"name":"isDisputed","outputs":[{"internalType":"bool","name":"","type":"bool"}],"stateMutability":"view","type":"function"},{"inputs":[{"internalType":"uint256","name":"tokenId","type":"uint256"},{"internalType":"uint256","name":"ariaPrice","type":"uint256"},{"internalType":"string","name":"name","type":"string"}],"name":"listAssetAria","outputs":[],"stateMutability":"nonpayable","type":"function"},{"inputs":[{"internalType":"uint256","name":"tokenId","type":"uint256"},{"internalType":"uint256","name":"usdPriceE8","type":"uint256"},{"internalType":"string","name":"name","type":"string"}],"name":"listAssetUsd","outputs":[],"stateMutability":"nonpayable","type":"function"},{"inputs":[{"internalType":"uint256","name":"","type":"uint256"}],"name":"listings","outputs":[{"internalType":"address","name":"seller","type":"address"},{"internalType":"uint256","name":"ariaPrice","type":"uint256"},{"internalType":"uint256","name":"usdPriceE8","type":"uint256"},{"internalType":"string","name":"name","type":"string"},{"internalType":"enum AriaMarketplace.PricingMode","name":"mode","type":"uint8"}],"stateMutability":"view","type":"function"},{"inputs":[],"name":"oracle","outputs":[{"internalType":"contract IQIEOracle","name":"","type":"address"}],"stateMutability":"view","type":"function"},{"inputs":[],"name":"owner","outputs":[{"internalType":"address","name":"","type":"address"}],"stateMutability":"view","type":"function"},{"inputs":[],"name":"pricePair","outputs":[{"internalType":"string","name":"","type":"string"}],"stateMutability":"view","type":"function"},{"inputs":[{"internalType":"uint256","name":"tokenId","type":"uint256"}],"name":"purchaseAsset","outputs":[],"stateMutability":"nonpayable","type":"function"},{"inputs":[],"name":"renounceOwnership","outputs":[],"stateMutability":"nonpayable","type":"function"},{"inputs":[{"internalType":"address","name":"_oracle","type":"address"}],"name":"setOracle","outputs":[],"stateMutability":"nonpayable","type":"function"},{"inputs":[{"internalType":"string","name":"_pair","type":"string"}],"name":"setPricePair","outputs":[],"stateMutability":"nonpayable","type":"function"},{"inputs":[{"internalType":"bool","name":"_status","type":"bool"}],"name":"setUseOracle","outputs":[],"stateMutability":"nonpayable","type":"function"},{"inputs":[{"internalType":"uint256","name":"amount","type":"uint256"}],"name":"stake","outputs":[],"stateMutability":"nonpayable","type":"function"},{"inputs":[{"internalType":"address","name":"","type":"address"}],"name":"stakedBalances","outputs":[{"internalType":"uint256","name":"","type":"uint256"}],"stateMutability":"view","type":"function"},{"inputs":[],"name":"totalStaked","outputs":[{"internalType":"uint256","name":"","type":"uint256"}],"stateMutability":"view","type":"function"},{"inputs":[{"internalType":"address","name":"newOwner","type":"address"}],"name":"transferOwnership","outputs":[],"stateMutability":"nonpayable","type":"function"},{"inputs":[{"internalType":"uint256","name":"tokenId","type":"uint256"}],"name":"unlistAsset","outputs":[],"stateMutability":"nonpayable","type":"function"},{"inputs":[{"internalType":"uint256","name":"amount","type":"uint256"}],"name":"unstake","outputs":[],"stateMutability":"nonpayable","type":"function"},{"inputs":[],"name":"useOracle","outputs":[{"internalType":"bool","name":"","type":"bool"}],"stateMutability":"view","type":"function"}],"evm":{"bytecode":{"linkReferences":{},"object":"60e0346200023457601f6200246638819003918201601f19168301916001600160401b03831184841017620002395780849260609460405283398101031262000234576200004d816200024f565b60406200005d602084016200024f565b9201519160ff83168303620002345760008054336001600160a01b03198216811783556040516001600160a01b03959093909290919086167f8be0079c531659141344cd1fd0a4f28419497f9722a3daafe3b4186f6b6457e08380a360018080556002805460ff60a01b1916600160a01b179055600354909181831c918316801562000229575b602083101462000215579086939291601f8211620001e5575b50507f415249412f55534400000000000000000000000000000000000000000000001060035550169081151580620001d9575b15620001ab57506080521660a05260c0526040516122019081620002658239608051818181610204015281816108c00152818161103001526112cf015260a05181818161078f0152818161089901528181610b51015281816113ed015261210a015260c05181818161059301528181611d6f01526120180152f35b62461bcd60e51b81526020600482015260096024820152682d32b9379030b2323960b91b6044820152606490fd5b50838316151562000130565b60038152601f60208220920160051c8201915b828110620002075750620000fd565b8181558895508301620001f8565b634e487b7160e01b81526022600452602490fd5b91607f1691620000e4565b600080fd5b634e487b7160e01b600052604160045260246000fd5b51906001600160a01b0382168203620002345756fe608080604052600436101561001357600080fd5b600090813560e01c9081631460fa8714611459575080632e17de78146113555780633131714b1461132457806344878724146112fe5780634803d23b146112b9578063535d55d714610fcf5780636804f61314610f61578063715018a614610f0757806372214e8714610e775780637adbf97314610e085780637ccc586e14610dd95780637dc0d1d014610db057806380af3da414610bf5578063817b1cd214610bd7578063863a662914610ba75780638da5cb5b14610b80578063967bcbda14610b3b5780639c3517bc14610a44578063a457e1c0146107ea578063a694fc3a1461073c578063dda547f41461063a578063de74e57b146105b7578063ebd4609614610579578063f2fde38b146104ad578063f4532cd6146101bf5763fb05da2e1461013f57600080fd5b346101bc5760203660031901126101bc576101ab610196610161600435611ef5565b95989460409892939491979851998a9960018060a01b03168a5260208a015260408901526101008060608a01528801906116db565b911515608087015285820360a08701526116db565b9160c0840152151560e08301520390f35b80fd5b50346101bc576101ce366114c6565b6101d9939293611934565b831561047e576040516331a9108f60e11b8152600481018490526001600160a01b03906020816024817f000000000000000000000000000000000000000000000000000000000000000086165afa801561047357610242918891610444575b5082163314611827565b838652600460205261025a816040882054161561185f565b61026582151561189c565b6040519061027282611537565b338252602082018681526040830188815261028e3686886118f1565b9160608501928352896080860152878a52600460205260408a20938551166001600160601b0360a01b8554161784555160018401555160028301555180519067ffffffffffffffff8211610430576102f6826102ed60038601546114fd565b600386016117ad565b602090601f83116001146103be579180608094926004948c926103b3575b50508160011b916000199060031b1c19161760038201555b01910151600281101561039f57917fc250632d93f84096dec1bd127a3ddb5ebdca63f82ae872e62d15407ee57e895a939161038a9360ff801983541691161790556040519586528660208701526080604087015260808601916117e7565b92600060608201528033940390a36001805580f35b634e487b7160e01b87526021600452602487fd5b015190503880610314565b90600384018a5260208a20918a5b601f19851681106104185750926080949260019260049583601f198116106103ff575b505050811b01600382015561032c565b015160001960f88460031b161c191690553880806103ef565b919260206001819286850151815501940192016103cc565b634e487b7160e01b89526041600452602489fd5b610466915060203d60201161046c575b61045e8183611569565b810190611808565b38610238565b503d610454565b6040513d89823e3d90fd5b60405162461bcd60e51b8152602060048201526007602482015266050726963653d360cc1b6044820152606490fd5b50346101bc5760203660031901126101bc576004356001600160a01b0381811691829003610575576104dd61173e565b811561052157600054826001600160601b0360a01b821617600055167f8be0079c531659141344cd1fd0a4f28419497f9722a3daafe3b4186f6b6457e0600080a380f35b60405162461bcd60e51b815260206004820152602660248201527f4f776e61626c653a206e6577206f776e657220697320746865207a65726f206160448201526564647265737360d01b6064820152608490fd5b8280fd5b50346101bc57806003193601126101bc57602060405160ff7f0000000000000000000000000000000000000000000000000000000000000000168152f35b50346101bc5760203660031901126101bc57604090600435815260046020522060018060a01b0381541660018201549161063661062b60028301549260ff600461060360038401611637565b920154169360405196879687526020870152604086015260a0606086015260a08501906116db565b91608084019061171b565b0390f35b50346101bc5760203660031901126101bc57600435610657611934565b80825260046020526040822060405161066f81611537565b6106b560ff600460018060a01b039485815416855260018101546020860152600281015460408601526106a460038201611637565b606086015201541660808301611928565b6106c3828251161515611a05565b5116330361070a5780825260046020526106df60408320611a67565b7f64ccd31338f15e54e45fc8900243f6c5144beba6e0b0d7c84bcd5990bb5a86578280a26001805580f35b60405162461bcd60e51b815260206004820152600a6024820152692737ba1039b2b63632b960b11b6044820152606490fd5b50346101bc5760203660031901126101bc57600435610759611934565b80156107ba576107b39033835260066020526040832061077a8282546120c2565b9055610788816007546120c2565b60075530337f0000000000000000000000000000000000000000000000000000000000000000611ad4565b6001805580f35b60405162461bcd60e51b81526020600482015260086024820152670416d6f756e743d360c41b6044820152606490fd5b50346101bc57602080600319360112610a0a57600435610808611934565b80835260048252604083209160405161082081611537565b83546001600160a01b039081168252600185015483830152600285015460408301529360ff9060049061085560038201611637565b60608501520154169361086c608083019586611928565b61087a818351161515611a05565b808251163314610a0e5761088d82611cdf565b916108bd8383835116337f0000000000000000000000000000000000000000000000000000000000000000611ad4565b817f0000000000000000000000000000000000000000000000000000000000000000168783835116823b15610a0a57604051632142170760e11b81526001600160a01b0391909116600482015233602482015260448101889052918290606490829084905af180156109ff576109cf575b508487526004845261094260408820611a67565b8487526005845260408720805460ff81166109c2575b5050511693519160028310156109ae57906109819291604051958652850152604084019061171b565b7f5fee9e3a83d9e77e867858377ef35972c9f352f6994667ded9d1885b7065ac4460603393a36001805580f35b634e487b7160e01b86526021600452602486fd5b60ff191690553880610958565b67ffffffffffffffff81989298116109eb57604052953861092e565b634e487b7160e01b82526041600452602482fd5b6040513d8a823e3d90fd5b5080fd5b60405162461bcd60e51b815260048101849052600e60248201526d21b0b73737ba10313abc9037bbb760911b6044820152606490fd5b50346101bc57602080600319360112610a0a576004359081835260048152610ab260408420604051610a7581611537565b610aa960ff600460018060a01b0394858154168552600181015488860152600281015460408601526106a460038201611637565b51161515611a05565b8183526005815260ff604084205416610b04578183526005905260408220805460ff1916600117905533907fe707468dd4c72e05a688bbdfcce49578e16fc9de4fa629a4db9ced143184b9548380a380f35b6064906040519062461bcd60e51b82526004820152601060248201526f105b1c9958591e48191a5cdc1d5d195960821b6044820152fd5b50346101bc57806003193601126101bc576040517f00000000000000000000000000000000000000000000000000000000000000006001600160a01b03168152602090f35b50346101bc57806003193601126101bc57546040516001600160a01b039091168152602090f35b50346101bc57806003193601126101bc57610636610bc361158b565b6040519182916020835260208301906116db565b50346101bc57806003193601126101bc576020600754604051908152f35b50346101bc57602080600319360112610a0a5767ffffffffffffffff90600435828111610dac57610c2a903690600401611493565b92610c3361173e565b8311610d98576003610c4581546114fd565b601f8111610d53575b5084601f8511600114610cc15791610cb091857f097c820ae21a59e741a8eba022b1bae9f9f40d63996d86089d4d29a2b6db48f79695948891610cb6575b5060001986831b1c1916600186901b1790555b6040519383859485528401916117e7565b0390a180f35b905082013538610c8c565b8186526000805160206121ac83398151915290601f198616875b818110610d3c575091610cb09391877f097c820ae21a59e741a8eba022b1bae9f9f40d63996d86089d4d29a2b6db48f79897969410610d24575b5050600185811b019055610c9f565b83013560001987841b60f8161c191690553880610d15565b919286600181928689013581550194019201610cdb565b610d88908287526000805160206121ac833981519152601f870160051c810191868810610d8e575b601f0160051c0190611796565b38610c4e565b9091508190610d7b565b634e487b7160e01b84526041600452602484fd5b8380fd5b50346101bc57806003193601126101bc576002546040516001600160a01b039091168152602090f35b50346101bc5760203660031901126101bc5760ff60406020926004358152600584522054166040519015158152f35b50346101bc5760203660031901126101bc576004356001600160a01b03811690819003610a0a5760207f3df77beb5db05fcdd70a30fc8adf3f83f9501b68579455adbd100b818094039491610e5b61173e565b600280546001600160a01b03191682179055604051908152a180f35b50346101bc5760203660031901126101bc57610eff604060209260043581526004845220610efa60405191610eab83611537565b610ef060ff600460018060a01b039384815416875260018101548988015260028101546040880152610edf60038201611637565b606088015201541660808501611928565b8251161515611a05565b611cdf565b604051908152f35b50346101bc57806003193601126101bc57610f2061173e565b80546001600160a01b03198116825581906001600160a01b03167f8be0079c531659141344cd1fd0a4f28419497f9722a3daafe3b4186f6b6457e08280a380f35b50346101bc5760203660031901126101bc57600435801515809103610a0a5760207f25de6ecc0a07bc4466fd80484cf3004b609d934030530ddde3ae04b8da1da24991610fac61173e565b6002805460ff60a01b191660a083901b60ff60a01b16179055604051908152a180f35b50346101bc57610fde366114c6565b610fe9939293611934565b61100e600254610ffe60ff8260a01c1661198a565b6001600160a01b031615156119c8565b831561128c576040516331a9108f60e11b8152600481018490526020816024817f00000000000000000000000000000000000000000000000000000000000000006001600160a01b03165afa80156112815761107c918791611262575b506001600160a01b03163314611827565b8285526004602052604085205461109c906001600160a01b03161561185f565b6110a781151561189c565b6040516110b381611537565b3381528560208201528460408201526110cd3683856118f1565b60608201526001608082015283865260046020526040862060018060a01b038251166001600160601b0360a01b8254161781556020820151600182015560408201516002820155606082015180519067ffffffffffffffff82116104305761113c826102ed60038601546114fd565b602090601f83116001146111f0579180608094926004948c926111e5575b50508160011b916000199060031b1c19161760038201555b01910151600281101561039f57917fc250632d93f84096dec1bd127a3ddb5ebdca63f82ae872e62d15407ee57e895a93916111d09360ff801983541691161790556040519587875260208701526080604087015260808601916117e7565b92600160608201528033940390a36001805580f35b01519050388061115a565b90600384018a5260208a20918a5b601f198516811061124a5750926080949260019260049583601f19811610611231575b505050811b016003820155611172565b015160001960f88460031b161c19169055388080611221565b919260206001819286850151815501940192016111fe565b61127b915060203d60201161046c5761045e8183611569565b3861106b565b6040513d88823e3d90fd5b60405162461bcd60e51b815260206004820152600560248201526405553443d360dc1b6044820152606490fd5b50346101bc57806003193601126101bc576040517f00000000000000000000000000000000000000000000000000000000000000006001600160a01b03168152602090f35b50346101bc57806003193601126101bc57602060ff60025460a01c166040519015158152f35b50346101bc5760203660031901126101bc57600435906001600160a01b03821682036101bc576020610eff836120dc565b50346101bc5760203660031901126101bc57600435611372611934565b3382526006602052806040832054106114255733825260066020526040822061139c8282546120cf565b90556113aa816007546120cf565b6007556040519063a9059cbb60e01b60208301523360248301526044820152604481526080810181811067ffffffffffffffff821117611411576040526107b3907f0000000000000000000000000000000000000000000000000000000000000000611b18565b634e487b7160e01b83526041600452602483fd5b60405162461bcd60e51b815260206004820152600c60248201526b125b9cdd59999a58da595b9d60a21b6044820152606490fd5b905034610a0a576020366003190112610a0a576004356001600160a01b038116908190036105755782604091602094526006845220548152f35b9181601f840112156114c15782359167ffffffffffffffff83116114c157602083818601950101116114c157565b600080fd5b60606003198201126114c15760043591602435916044359067ffffffffffffffff82116114c1576114f991600401611493565b9091565b90600182811c9216801561152d575b602083101461151757565b634e487b7160e01b600052602260045260246000fd5b91607f169161150c565b60a0810190811067ffffffffffffffff82111761155357604052565b634e487b7160e01b600052604160045260246000fd5b90601f8019910116810190811067ffffffffffffffff82111761155357604052565b604051906000826003549161159f836114fd565b8083529260019081811690811561161557506001146115c8575b506115c692500383611569565b565b6003600090815291506000805160206121ac8339815191525b8483106115fa57506115c69350508101602001386115b9565b81935090816020925483858a010152019101909185926115e1565b9050602092506115c694915060ff191682840152151560051b820101386115b9565b906040519182600082549261164b846114fd565b9081845260019485811690816000146116b85750600114611675575b50506115c692500383611569565b9093915060005260209081600020936000915b8183106116a05750506115c693508201013880611667565b85548884018501529485019487945091830191611688565b9150506115c694506020925060ff191682840152151560051b8201013880611667565b919082519283825260005b848110611707575050826000602080949584010152601f8019910116010190565b6020818301810151848301820152016116e6565b9060028210156117285752565b634e487b7160e01b600052602160045260246000fd5b6000546001600160a01b0316330361175257565b606460405162461bcd60e51b815260206004820152602060248201527f4f776e61626c653a2063616c6c6572206973206e6f7420746865206f776e65726044820152fd5b8181106117a1575050565b60008155600101611796565b9190601f81116117bc57505050565b6115c6926000526020600020906020601f840160051c83019310610d8e57601f0160051c0190611796565b908060209392818452848401376000828201840152601f01601f1916010190565b908160209103126114c157516001600160a01b03811681036114c15790565b1561182e57565b60405162461bcd60e51b81526020600482015260096024820152682737ba1037bbb732b960b91b6044820152606490fd5b1561186657565b60405162461bcd60e51b815260206004820152600e60248201526d105b1c9958591e481b1a5cdd195960921b6044820152606490fd5b156118a357565b60405162461bcd60e51b815260206004820152600a6024820152694e616d6520656d70747960b01b6044820152606490fd5b67ffffffffffffffff811161155357601f01601f191660200190565b9291926118fd826118d5565b9161190b6040519384611569565b8294818452818301116114c1578281602093846000960137010152565b60028210156117285752565b600260015414611945576002600155565b60405162461bcd60e51b815260206004820152601f60248201527f5265656e7472616e637947756172643a207265656e7472616e742063616c6c006044820152606490fd5b1561199157565b60405162461bcd60e51b815260206004820152600f60248201526e13dc9858db1948191a5cd8589b1959608a1b6044820152606490fd5b156119cf57565b60405162461bcd60e51b815260206004820152600e60248201526d13dc9858db19481b9bdd081cd95d60921b6044820152606490fd5b15611a0c57565b60405162461bcd60e51b815260206004820152600a602482015269139bdd081b1a5cdd195960b21b6044820152606490fd5b81810292918115918404141715611a5157565b634e487b7160e01b600052601160045260246000fd5b60046000918281558260018201558260028201558260038201611a8a81546114fd565b80611a97575b5050500155565b82601f8211600114611aaf575050555b823880611a90565b9091808252611acd601f60208420940160051c840160018501611796565b5555611aa7565b6040516323b872dd60e01b60208201526001600160a01b0392831660248201529290911660448301526064808301939093529181526115c691611b18608483611569565b60018060a01b031690604051604081019080821067ffffffffffffffff83111761155357611ba8916040526020938482527f5361666545524332303a206c6f772d6c6576656c2063616c6c206661696c6564858301526000808587829751910182855af13d15611c3e573d91611b8d836118d5565b92611b9b6040519485611569565b83523d868885013e611c42565b805191821591848315611c1a575b505050905015611bc35750565b6084906040519062461bcd60e51b82526004820152602a60248201527f5361666545524332303a204552433230206f7065726174696f6e20646964206e6044820152691bdd081cdd58d8d9595960b21b6064820152fd5b919381809450010312610a0a578201519081151582036101bc575080388084611bb6565b6060915b91929015611ca45750815115611c56575090565b3b15611c5f5790565b60405162461bcd60e51b815260206004820152601d60248201527f416464726573733a2063616c6c20746f206e6f6e2d636f6e74726163740000006044820152606490fd5b825190915015611cb75750805190602001fd5b60405162461bcd60e51b815260206004820152908190611cdb9060248301906116db565b0390fd5b6080810151600281101561172857611cf8576020015190565b604080910151600254611d1060ff8260a01c1661198a565b6001600160a01b031691611d258315156119c8565b808051809463f66a1b7160e01b82528180611d4260048201611e23565b03915afa928315611e0257600093611dd2575b506000831315611da2575090611d9a611d9f92611d9460ff7f000000000000000000000000000000000000000000000000000000000000000016611ec7565b90611a3e565b611ed5565b90565b5162461bcd60e51b815260206004820152600a602482015269426164206f7261636c6560b01b6044820152606490fd5b81611df39294503d8511611dfb575b611deb8183611569565b810190611e0d565b509138611d55565b503d611de1565b50513d6000823e3d90fd5b91908260409103126114c1576020825192015190565b602080825260009160035491611e38836114fd565b9283828401526001908181169081600014611ea45750600114611e5d575b5050505090565b600360009081529394506000805160206121ac8339815191525b858510611e905750505060409250010138808080611e56565b805485850160400152938201938101611e77565b925050506040935060ff929192191683830152151560051b010138808080611e56565b604d8111611a5157600a0a90565b8115611edf570490565b634e487b7160e01b600052601260045260246000fd5b6000908082526004602052604091828120938351611f1281611537565b85546001600160a01b03908116825260018701546020830190815260028801548784019081529660ff6004611f4960038c01611637565b9a606087019b8c5201541692611f63608086019485611928565b611f71818651161515611a05565b611f7a85611cdf565b9887945160028110156120ae5761207f575060025460ff8160a01c1680612074575b611fcc575b5060ff929394511692519851968652600560205285205416909695949392611fc761158b565b929190565b828051809263f66a1b7160e01b8252818581611fea60048201611e23565b0392165afa90811561206a57889161204c575b5087811315611fa15760ff93945061204590611d9a61203d867f000000000000000000000000000000000000000000000000000000000000000016611ec7565b918751611a3e565b9392611fa1565b6120639150833d8511611dfb57611deb8183611569565b5038611ffd565b83513d8a823e3d90fd5b508181161515611f9c565b97949091925060ff93509895985116945195519288526005602052872054169295949392600192611fc761158b565b634e487b7160e01b89526021600452602489fd5b91908201809211611a5157565b91908203918211611a5157565b6007549081156121a4576040516370a0823160e01b81523060048201526001600160a01b03906020816024817f000000000000000000000000000000000000000000000000000000000000000086165afa90811561219857600091612165575b5091611d9a9161215085611d9f96956120cf565b91166000526006602052604060002054611a3e565b906020823d8211612190575b8161217e60209383611569565b810103126101bc575051611d9a61213c565b3d9150612171565b6040513d6000823e3d90fd5b505060009056fec2575a0e9e593c00f959f8c92f12db2869c3395a3b0502d05e2516446f71f85ba264697066735822122058397194fbd9a10f8e4198b8d8fe21e1bcfe114dac4b08e4e36cb0bd4a28d15d64736f6c63430008140033","opcodes":"PUSH1 0xE0 CALLVALUE PUSH3 0x234 JUMPI PUSH1 0x1F PUSH3 0x2466 CODESIZE DUP2 SWAP1 SUB SWAP2 DUP3 ADD PUSH1 0x1F NOT AND DUP4 ADD SWAP2 PUSH1 0x1 PUSH1 0x1 PUSH1 0x40 SHL SUB DUP4 GT DUP5 DUP5 LT OR PUSH3 0x239 JUMPI DUP1 DUP5 SWAP3 PUSH1 0x60 SWAP5 PUSH1 0x40 MSTORE DUP4 CODECOPY DUP2 ADD SUB SLT PUSH3 0x234 JUMPI PUSH3 0x4D DUP2 PUSH3 0x24F JUMP JUMPDEST PUSH1 0x40 PUSH3 0x5D PUSH1 0x20 DUP5 ADD PUSH3 0x24F JUMP JUMPDEST SWAP3 ADD MLOAD SWAP2 PUSH1 0xFF DUP4 AND DUP4 SUB PUSH3 0x234 JUMPI PUSH1 0x0 DUP1 SLOAD CALLER PUSH1 0x1 PUSH1 0x1 PUSH1 0xA0 SHL SUB NOT DUP3 AND DUP2 OR DUP4 SSTORE PUSH1 0x40 MLOAD PUSH1 0x1 PUSH1 0x1 PUSH1 0xA0 SHL SUB SWAP6 SWAP1 SWAP4 SWAP1 SWAP3 SWAP1 SWAP2 SWAP1 DUP7 AND PUSH32 0x8BE0079C531659141344CD1FD0A4F28419497F9722A3DAAFE3B4186F6B6457E0 DUP4 DUP1 LOG3 PUSH1 0x1 DUP1 DUP1 SSTORE PUSH1 0x2 DUP1 SLOAD PUSH1 0xFF PUSH1 0xA0 SHL NOT AND PUSH1 0x1 PUSH1 0xA0 SHL OR SWAP1 SSTORE PUSH1 0x3 SLOAD SWAP1 SWAP2 DUP2 DUP4 SHR SWAP2 DUP4 AND DUP1 ISZERO PUSH3 0x229 JUMPI JUMPDEST PUSH1 0x20 DUP4 LT EQ PUSH3 0x215 JUMPI SWAP1 DUP7 SWAP4 SWAP3 SWAP2 PUSH1 0x1F DUP3 GT PUSH3 0x1E5 JUMPI JUMPDEST POP POP PUSH32 0x415249412F555344000000000000000000000000000000000000000000000010 PUSH1 0x3 SSTORE POP AND SWAP1 DUP2 ISZERO ISZERO DUP1 PUSH3 0x1D9 JUMPI JUMPDEST ISZERO PUSH3 0x1AB JUMPI POP PUSH1 0x80 MSTORE AND PUSH1 0xA0 MSTORE PUSH1 0xC0 MSTORE PUSH1 0x40 MLOAD PUSH2 0x2201 SWAP1 DUP2 PUSH3 0x265 DUP3 CODECOPY PUSH1 0x80 MLOAD DUP2 DUP2 DUP2 PUSH2 0x204 ADD MSTORE DUP2 DUP2 PUSH2 0x8C0 ADD MSTORE DUP2 DUP2 PUSH2 0x1030 ADD MSTORE PUSH2 0x12CF ADD MSTORE PUSH1 0xA0 MLOAD DUP2 DUP2 DUP2 PUSH2 0x78F ADD MSTORE DUP2 DUP2 PUSH2 0x899 ADD MSTORE DUP2 DUP2 PUSH2 0xB51 ADD MSTORE DUP2 DUP2 PUSH2 0x13ED ADD MSTORE PUSH2 0x210A ADD MSTORE PUSH1 0xC0 MLOAD DUP2 DUP2 DUP2 PUSH2 0x593 ADD MSTORE DUP2 DUP2 PUSH2 0x1D6F ADD MSTORE PUSH2 0x2018 ADD MSTORE RETURN JUMPDEST PUSH3 0x461BCD PUSH1 0xE5 SHL DUP2 MSTORE PUSH1 0x20 PUSH1 0x4 DUP3 ADD MSTORE PUSH1 0x9 PUSH1 0x24 DUP3 ADD MSTORE PUSH9 0x2D32B9379030B23239 PUSH1 0xB9 SHL PUSH1 0x44 DUP3 ADD MSTORE PUSH1 0x64 SWAP1 REVERT JUMPDEST POP DUP4 DUP4 AND ISZERO ISZERO PUSH3 0x130 JUMP JUMPDEST PUSH1 0x3 DUP2 MSTORE PUSH1 0x1F PUSH1 0x20 DUP3 KECCAK256 SWAP3 ADD PUSH1 0x5 SHR DUP3 ADD SWAP2 JUMPDEST DUP3 DUP2 LT PUSH3 0x207 JUMPI POP PUSH3 0xFD JUMP JUMPDEST DUP2 DUP2 SSTORE DUP9 SWAP6 POP DUP4 ADD PUSH3 0x1F8 JUMP JUMPDEST PUSH4 0x4E487B71 PUSH1 0xE0 SHL DUP2 MSTORE PUSH1 0x22 PUSH1 0x4 MSTORE PUSH1 0x24 SWAP1 REVERT JUMPDEST SWAP2 PUSH1 0x7F AND SWAP2 PUSH3 0xE4 JUMP JUMPDEST PUSH1 0x0 DUP1 REVERT JUMPDEST PUSH4 0x4E487B71 PUSH1 0xE0 SHL PUSH1 0x0 MSTORE PUSH1 0x41 PUSH1 0x4 MSTORE PUSH1 0x24 PUSH1 0x0 REVERT JUMPDEST MLOAD SWAP1 PUSH1 0x1 PUSH1 0x1 PUSH1 0xA0 SHL SUB DUP3 AND DUP3 SUB PUSH3 0x234 JUMPI JUMP INVALID PUSH1 0x80 DUP1 PUSH1 0x40 MSTORE PUSH1 0x4 CALLDATASIZE LT ISZERO PUSH2 0x13 JUMPI PUSH1 0x0 DUP1 REVERT JUMPDEST PUSH1 0x0 SWAP1 DUP2 CALLDATALOAD PUSH1 0xE0 SHR SWAP1 DUP2 PUSH4 0x1460FA87 EQ PUSH2 0x1459 JUMPI POP DUP1 PUSH4 0x2E17DE78 EQ PUSH2 0x1355 JUMPI DUP1 PUSH4 0x3131714B EQ PUSH2 0x1324 JUMPI DUP1 PUSH4 0x44878724 EQ PUSH2 0x12FE JUMPI DUP1 PUSH4 0x4803D23B EQ PUSH2 0x12B9 JUMPI DUP1 PUSH4 0x535D55D7 EQ PUSH2 0xFCF JUMPI DUP1 PUSH4 0x6804F613 EQ PUSH2 0xF61 JUMPI DUP1 PUSH4 0x715018A6 EQ PUSH2 0xF07 JUMPI DUP1 PUSH4 0x72214E87 EQ PUSH2 0xE77 JUMPI DUP1 PUSH4 0x7ADBF973 EQ PUSH2 0xE08 JUMPI DUP1 PUSH4 0x7CCC586E EQ PUSH2 0xDD9 JUMPI DUP1 PUSH4 0x7DC0D1D0 EQ PUSH2 0xDB0 JUMPI DUP1 PUSH4 0x80AF3DA4 EQ PUSH2 0xBF5 JUMPI DUP1 PUSH4 0x817B1CD2 EQ PUSH2 0xBD7 JUMPI DUP1 PUSH4 0x863A6629 EQ PUSH2 0xBA7 JUMPI DUP1 PUSH4 0x8DA5CB5B EQ PUSH2 0xB80 JUMPI DUP1 PUSH4 0x967BCBDA EQ PUSH2 0xB3B JUMPI DUP1 PUSH4 0x9C3517BC EQ PUSH2 0xA44 JUMPI DUP1 PUSH4 0xA457E1C0 EQ PUSH2 0x7EA JUMPI DUP1 PUSH4 0xA694FC3A EQ PUSH2 0x73C JUMPI DUP1 PUSH4 0xDDA547F4 EQ PUSH2 0x63A JUMPI DUP1 PUSH4 0xDE74E57B EQ PUSH2 0x5B7 JUMPI DUP1 PUSH4 0xEBD46096 EQ PUSH2 0x579 JUMPI DUP1 PUSH4 0xF2FDE38B EQ PUSH2 0x4AD JUMPI DUP1 PUSH4 0xF4532CD6 EQ PUSH2 0x1BF JUMPI PUSH4 0xFB05DA2E EQ PUSH2 0x13F JUMPI PUSH1 0x0 DUP1 REVERT JUMPDEST CALLVALUE PUSH2 0x1BC JUMPI PUSH1 0x20 CALLDATASIZE PUSH1 0x3 NOT ADD SLT PUSH2 0x1BC JUMPI PUSH2 0x1AB PUSH2 0x196 PUSH2 0x161 PUSH1 0x4 CALLDATALOAD PUSH2 0x1EF5 JUMP JUMPDEST SWAP6 SWAP9 SWAP5 PUSH1 0x40 SWAP9 SWAP3 SWAP4 SWAP5 SWAP2 SWAP8 SWAP9 MLOAD SWAP10 DUP11 SWAP10 PUSH1 0x1 DUP1 PUSH1 0xA0 SHL SUB AND DUP11 MSTORE PUSH1 0x20 DUP11 ADD MSTORE PUSH1 0x40 DUP10 ADD MSTORE PUSH2 0x100 DUP1 PUSH1 0x60 DUP11 ADD MSTORE DUP9 ADD SWAP1 PUSH2 0x16DB JUMP JUMPDEST SWAP2 ISZERO ISZERO PUSH1 0x80 DUP8 ADD MSTORE DUP6 DUP3 SUB PUSH1 0xA0 DUP8 ADD MSTORE PUSH2 0x16DB JUMP JUMPDEST SWAP2 PUSH1 0xC0 DUP5 ADD MSTORE ISZERO ISZERO PUSH1 0xE0 DUP4 ADD MSTORE SUB SWAP1 RETURN JUMPDEST DUP1 REVERT JUMPDEST POP CALLVALUE PUSH2 0x1BC JUMPI PUSH2 0x1CE CALLDATASIZE PUSH2 0x14C6 JUMP JUMPDEST PUSH2 0x1D9 SWAP4 SWAP3 SWAP4 PUSH2 0x1934 JUMP JUMPDEST DUP4 ISZERO PUSH2 0x47E JUMPI PUSH1 0x40 MLOAD PUSH4 0x31A9108F PUSH1 0xE1 SHL DUP2 MSTORE PUSH1 0x4 DUP2 ADD DUP5 SWAP1 MSTORE PUSH1 0x1 PUSH1 0x1 PUSH1 0xA0 SHL SUB SWAP1 PUSH1 0x20 DUP2 PUSH1 0x24 DUP2 PUSH32 0x0 DUP7 AND GAS STATICCALL DUP1 ISZERO PUSH2 0x473 JUMPI PUSH2 0x242 SWAP2 DUP9 SWAP2 PUSH2 0x444 JUMPI JUMPDEST POP DUP3 AND CALLER EQ PUSH2 0x1827 JUMP JUMPDEST DUP4 DUP7 MSTORE PUSH1 0x4 PUSH1 0x20 MSTORE PUSH2 0x25A DUP2 PUSH1 0x40 DUP9 KECCAK256 SLOAD AND ISZERO PUSH2 0x185F JUMP JUMPDEST PUSH2 0x265 DUP3 ISZERO ISZERO PUSH2 0x189C JUMP JUMPDEST PUSH1 0x40 MLOAD SWAP1 PUSH2 0x272 DUP3 PUSH2 0x1537 JUMP JUMPDEST CALLER DUP3 MSTORE PUSH1 0x20 DUP3 ADD DUP7 DUP2 MSTORE PUSH1 0x40 DUP4 ADD DUP9 DUP2 MSTORE PUSH2 0x28E CALLDATASIZE DUP7 DUP9 PUSH2 0x18F1 JUMP JUMPDEST SWAP2 PUSH1 0x60 DUP6 ADD SWAP3 DUP4 MSTORE DUP10 PUSH1 0x80 DUP7 ADD MSTORE DUP8 DUP11 MSTORE PUSH1 0x4 PUSH1 0x20 MSTORE PUSH1 0x40 DUP11 KECCAK256 SWAP4 DUP6 MLOAD AND PUSH1 0x1 PUSH1 0x1 PUSH1 0x60 SHL SUB PUSH1 0xA0 SHL DUP6 SLOAD AND OR DUP5 SSTORE MLOAD PUSH1 0x1 DUP5 ADD SSTORE MLOAD PUSH1 0x2 DUP4 ADD SSTORE MLOAD DUP1 MLOAD SWAP1 PUSH8 0xFFFFFFFFFFFFFFFF DUP3 GT PUSH2 0x430 JUMPI PUSH2 0x2F6 DUP3 PUSH2 0x2ED PUSH1 0x3 DUP7 ADD SLOAD PUSH2 0x14FD JUMP JUMPDEST PUSH1 0x3 DUP7 ADD PUSH2 0x17AD JUMP JUMPDEST PUSH1 0x20 SWAP1 PUSH1 0x1F DUP4 GT PUSH1 0x1 EQ PUSH2 0x3BE JUMPI SWAP2 DUP1 PUSH1 0x80 SWAP5 SWAP3 PUSH1 0x4 SWAP5 DUP13 SWAP3 PUSH2 0x3B3 JUMPI JUMPDEST POP POP DUP2 PUSH1 0x1 SHL SWAP2 PUSH1 0x0 NOT SWAP1 PUSH1 0x3 SHL SHR NOT AND OR PUSH1 0x3 DUP3 ADD SSTORE JUMPDEST ADD SWAP2 ADD MLOAD PUSH1 0x2 DUP2 LT ISZERO PUSH2 0x39F JUMPI SWAP2 PUSH32 0xC250632D93F84096DEC1BD127A3DDB5EBDCA63F82AE872E62D15407EE57E895A SWAP4 SWAP2 PUSH2 0x38A SWAP4 PUSH1 0xFF DUP1 NOT DUP4 SLOAD AND SWAP2 AND OR SWAP1 SSTORE PUSH1 0x40 MLOAD SWAP6 DUP7 MSTORE DUP7 PUSH1 0x20 DUP8 ADD MSTORE PUSH1 0x80 PUSH1 0x40 DUP8 ADD MSTORE PUSH1 0x80 DUP7 ADD SWAP2 PUSH2 0x17E7 JUMP JUMPDEST SWAP3 PUSH1 0x0 PUSH1 0x60 DUP3 ADD MSTORE DUP1 CALLER SWAP5 SUB SWAP1 LOG3 PUSH1 0x1 DUP1 SSTORE DUP1 RETURN JUMPDEST PUSH4 0x4E487B71 PUSH1 0xE0 SHL DUP8 MSTORE PUSH1 0x21 PUSH1 0x4 MSTORE PUSH1 0x24 DUP8 REVERT JUMPDEST ADD MLOAD SWAP1 POP CODESIZE DUP1 PUSH2 0x314 JUMP JUMPDEST SWAP1 PUSH1 0x3 DUP5 ADD DUP11 MSTORE PUSH1 0x20 DUP11 KECCAK256 SWAP2 DUP11 JUMPDEST PUSH1 0x1F NOT DUP6 AND DUP2 LT PUSH2 0x418 JUMPI POP SWAP3 PUSH1 0x80 SWAP5 SWAP3 PUSH1 0x1 SWAP3 PUSH1 0x4 SWAP6 DUP4 PUSH1 0x1F NOT DUP2 AND LT PUSH2 0x3FF JUMPI JUMPDEST POP POP POP DUP2 SHL ADD PUSH1 0x3 DUP3 ADD SSTORE PUSH2 0x32C JUMP JUMPDEST ADD MLOAD PUSH1 0x0 NOT PUSH1 0xF8 DUP5 PUSH1 0x3 SHL AND SHR NOT AND SWAP1 SSTORE CODESIZE DUP1 DUP1 PUSH2 0x3EF JUMP JUMPDEST SWAP2 SWAP3 PUSH1 0x20 PUSH1 0x1 DUP2 SWAP3 DUP7 DUP6 ADD MLOAD DUP2 SSTORE ADD SWAP5 ADD SWAP3 ADD PUSH2 0x3CC JUMP JUMPDEST PUSH4 0x4E487B71 PUSH1 0xE0 SHL DUP10 MSTORE PUSH1 0x41 PUSH1 0x4 MSTORE PUSH1 0x24 DUP10 REVERT JUMPDEST PUSH2 0x466 SWAP2 POP PUSH1 0x20 RETURNDATASIZE PUSH1 0x20 GT PUSH2 0x46C JUMPI JUMPDEST PUSH2 0x45E DUP2 DUP4 PUSH2 0x1569 JUMP JUMPDEST DUP2 ADD SWAP1 PUSH2 0x1808 JUMP JUMPDEST CODESIZE PUSH2 0x238 JUMP JUMPDEST POP RETURNDATASIZE PUSH2 0x454 JUMP JUMPDEST PUSH1 0x40 MLOAD RETURNDATASIZE DUP10 DUP3 RETURNDATACOPY RETURNDATASIZE SWAP1 REVERT JUMPDEST PUSH1 0x40 MLOAD PUSH3 0x461BCD PUSH1 0xE5 SHL DUP2 MSTORE PUSH1 0x20 PUSH1 0x4 DUP3 ADD MSTORE PUSH1 0x7 PUSH1 0x24 DUP3 ADD MSTORE PUSH7 0x50726963653D3 PUSH1 0xCC SHL PUSH1 0x44 DUP3 ADD MSTORE PUSH1 0x64 SWAP1 REVERT JUMPDEST POP CALLVALUE PUSH2 0x1BC JUMPI PUSH1 0x20 CALLDATASIZE PUSH1 0x3 NOT ADD SLT PUSH2 0x1BC JUMPI PUSH1 0x4 CALLDATALOAD PUSH1 0x1 PUSH1 0x1 PUSH1 0xA0 SHL SUB DUP2 DUP2 AND SWAP2 DUP3 SWAP1 SUB PUSH2 0x575 JUMPI PUSH2 0x4DD PUSH2 0x173E JUMP JUMPDEST DUP2 ISZERO PUSH2 0x521 JUMPI PUSH1 0x0 SLOAD DUP3 PUSH1 0x1 PUSH1 0x1 PUSH1 0x60 SHL SUB PUSH1 0xA0 SHL DUP3 AND OR PUSH1 0x0 SSTORE AND PUSH32 0x8BE0079C531659141344CD1FD0A4F28419497F9722A3DAAFE3B4186F6B6457E0 PUSH1 0x0 DUP1 LOG3 DUP1 RETURN JUMPDEST PUSH1 0x40 MLOAD PUSH3 0x461BCD PUSH1 0xE5 SHL DUP2 MSTORE PUSH1 0x20 PUSH1 0x4 DUP3 ADD MSTORE PUSH1 0x26 PUSH1 0x24 DUP3 ADD MSTORE PUSH32 0x4F776E61626C653A206E6577206F776E657220697320746865207A65726F2061 PUSH1 0x44 DUP3 ADD MSTORE PUSH6 0x646472657373 PUSH1 0xD0 SHL PUSH1 0x64 DUP3 ADD MSTORE PUSH1 0x84 SWAP1 REVERT JUMPDEST DUP3 DUP1 REVERT JUMPDEST POP CALLVALUE PUSH2 0x1BC JUMPI DUP1 PUSH1 0x3 NOT CALLDATASIZE ADD SLT PUSH2 0x1BC JUMPI PUSH1 0x20 PUSH1 0x40 MLOAD PUSH1 0xFF PUSH32 0x0 AND DUP2 MSTORE RETURN JUMPDEST POP CALLVALUE PUSH2 0x1BC JUMPI PUSH1 0x20 CALLDATASIZE PUSH1 0x3 NOT ADD SLT PUSH2 0x1BC JUMPI PUSH1 0x40 SWAP1 PUSH1 0x4 CALLDATALOAD DUP2 MSTORE PUSH1 0x4 PUSH1 0x20 MSTORE KECCAK256 PUSH1 0x1 DUP1 PUSH1 0xA0 SHL SUB DUP2 SLOAD AND PUSH1 0x1 DUP3 ADD SLOAD SWAP2 PUSH2 0x636 PUSH2 0x62B PUSH1 0x2 DUP4 ADD SLOAD SWAP3 PUSH1 0xFF PUSH1 0x4 PUSH2 0x603 PUSH1 0x3 DUP5 ADD PUSH2 0x1637 JUMP JUMPDEST SWAP3 ADD SLOAD AND SWAP4 PUSH1 0x40 MLOAD SWAP7 DUP8 SWAP7 DUP8 MSTORE PUSH1 0x20 DUP8 ADD MSTORE PUSH1 0x40 DUP7 ADD MSTORE PUSH1 0xA0 PUSH1 0x60 DUP7 ADD MSTORE PUSH1 0xA0 DUP6 ADD SWAP1 PUSH2 0x16DB JUMP JUMPDEST SWAP2 PUSH1 0x80 DUP5 ADD SWAP1 PUSH2 0x171B JUMP JUMPDEST SUB SWAP1 RETURN JUMPDEST POP CALLVALUE PUSH2 0x1BC JUMPI PUSH1 0x20 CALLDATASIZE PUSH1 0x3 NOT ADD SLT PUSH2 0x1BC JUMPI PUSH1 0x4 CALLDATALOAD PUSH2 0x657 PUSH2 0x1934 JUMP JUMPDEST DUP1 DUP3 MSTORE PUSH1 0x4 PUSH1 0x20 MSTORE PUSH1 0x40 DUP3 KECCAK256 PUSH1 0x40 MLOAD PUSH2 0x66F DUP2 PUSH2 0x1537 JUMP JUMPDEST PUSH2 0x6B5 PUSH1 0xFF PUSH1 0x4 PUSH1 0x1 DUP1 PUSH1 0xA0 SHL SUB SWAP5 DUP6 DUP2 SLOAD AND DUP6 MSTORE PUSH1 0x1 DUP2 ADD SLOAD PUSH1 0x20 DUP7 ADD MSTORE PUSH1 0x2 DUP2 ADD SLOAD PUSH1 0x40 DUP7 ADD MSTORE PUSH2 0x6A4 PUSH1 0x3 DUP3 ADD PUSH2 0x1637 JUMP JUMPDEST PUSH1 0x60 DUP7 ADD MSTORE ADD SLOAD AND PUSH1 0x80 DUP4 ADD PUSH2 0x1928 JUMP JUMPDEST PUSH2 0x6C3 DUP3 DUP3 MLOAD AND ISZERO ISZERO PUSH2 0x1A05 JUMP JUMPDEST MLOAD AND CALLER SUB PUSH2 0x70A JUMPI DUP1 DUP3 MSTORE PUSH1 0x4 PUSH1 0x20 MSTORE PUSH2 0x6DF PUSH1 0x40 DUP4 KECCAK256 PUSH2 0x1A67 JUMP JUMPDEST PUSH32 0x64CCD31338F15E54E45FC8900243F6C5144BEBA6E0B0D7C84BCD5990BB5A8657 DUP3 DUP1 LOG2 PUSH1 0x1 DUP1 SSTORE DUP1 RETURN JUMPDEST PUSH1 0x40 MLOAD PUSH3 0x461BCD PUSH1 0xE5 SHL DUP2 MSTORE PUSH1 0x20 PUSH1 0x4 DUP3 ADD MSTORE PUSH1 0xA PUSH1 0x24 DUP3 ADD MSTORE PUSH10 0x2737BA1039B2B63632B9 PUSH1 0xB1 SHL PUSH1 0x44 DUP3 ADD MSTORE PUSH1 0x64 SWAP1 REVERT JUMPDEST POP CALLVALUE PUSH2 0x1BC JUMPI PUSH1 0x20 CALLDATASIZE PUSH1 0x3 NOT ADD SLT PUSH2 0x1BC JUMPI PUSH1 0x4 CALLDATALOAD PUSH2 0x759 PUSH2 0x1934 JUMP JUMPDEST DUP1 ISZERO PUSH2 0x7BA JUMPI PUSH2 0x7B3 SWAP1 CALLER DUP4 MSTORE PUSH1 0x6 PUSH1 0x20 MSTORE PUSH1 0x40 DUP4 KECCAK256 PUSH2 0x77A DUP3 DUP3 SLOAD PUSH2 0x20C2 JUMP JUMPDEST SWAP1 SSTORE PUSH2 0x788 DUP2 PUSH1 0x7 SLOAD PUSH2 0x20C2 JUMP JUMPDEST PUSH1 0x7 SSTORE ADDRESS CALLER PUSH32 0x0 PUSH2 0x1AD4 JUMP JUMPDEST PUSH1 0x1 DUP1 SSTORE DUP1 RETURN JUMPDEST PUSH1 0x40 MLOAD PUSH3 0x461BCD PUSH1 0xE5 SHL DUP2 MSTORE PUSH1 0x20 PUSH1 0x4 DUP3 ADD MSTORE PUSH1 0x8 PUSH1 0x24 DUP3 ADD MSTORE PUSH8 0x416D6F756E743D3 PUSH1 0xC4 SHL PUSH1 0x44 DUP3 ADD MSTORE PUSH1 0x64 SWAP1 REVERT JUMPDEST POP CALLVALUE PUSH2 0x1BC JUMPI PUSH1 0x20 DUP1 PUSH1 0x3 NOT CALLDATASIZE ADD SLT PUSH2 0xA0A JUMPI PUSH1 0x4 CALLDATALOAD PUSH2 0x808 PUSH2 0x1934 JUMP JUMPDEST DUP1 DUP4 MSTORE PUSH1 0x4 DUP3 MSTORE PUSH1 0x40 DUP4 KECCAK256 SWAP2 PUSH1 0x40 MLOAD PUSH2 0x820 DUP2 PUSH2 0x1537 JUMP JUMPDEST DUP4 SLOAD PUSH1 0x1 PUSH1 0x1 PUSH1 0xA0 SHL SUB SWAP1 DUP2 AND DUP3 MSTORE PUSH1 0x1 DUP6 ADD SLOAD DUP4 DUP4 ADD MSTORE PUSH1 0x2 DUP6 ADD SLOAD PUSH1 0x40 DUP4 ADD MSTORE SWAP4 PUSH1 0xFF SWAP1 PUSH1 0x4 SWAP1 PUSH2 0x855 PUSH1 0x3 DUP3 ADD PUSH2 0x1637 JUMP JUMPDEST PUSH1 0x60 DUP6 ADD MSTORE ADD SLOAD AND SWAP4 PUSH2 0x86C PUSH1 0x80 DUP4 ADD SWAP6 DUP7 PUSH2 0x1928 JUMP JUMPDEST PUSH2 0x87A DUP2 DUP4 MLOAD AND ISZERO ISZERO PUSH2 0x1A05 JUMP JUMPDEST DUP1 DUP3 MLOAD AND CALLER EQ PUSH2 0xA0E JUMPI PUSH2 0x88D DUP3 PUSH2 0x1CDF JUMP JUMPDEST SWAP2 PUSH2 0x8BD DUP4 DUP4 DUP4 MLOAD AND CALLER PUSH32 0x0 PUSH2 0x1AD4 JUMP JUMPDEST DUP2 PUSH32 0x0 AND DUP8 DUP4 DUP4 MLOAD AND DUP3 EXTCODESIZE ISZERO PUSH2 0xA0A JUMPI PUSH1 0x40 MLOAD PUSH4 0x21421707 PUSH1 0xE1 SHL DUP2 MSTORE PUSH1 0x1 PUSH1 0x1 PUSH1 0xA0 SHL SUB SWAP2 SWAP1 SWAP2 AND PUSH1 0x4 DUP3 ADD MSTORE CALLER PUSH1 0x24 DUP3 ADD MSTORE PUSH1 0x44 DUP2 ADD DUP9 SWAP1 MSTORE SWAP2 DUP3 SWAP1 PUSH1 0x64 SWAP1 DUP3 SWAP1 DUP5 SWAP1 GAS CALL DUP1 ISZERO PUSH2 0x9FF JUMPI PUSH2 0x9CF JUMPI JUMPDEST POP DUP5 DUP8 MSTORE PUSH1 0x4 DUP5 MSTORE PUSH2 0x942 PUSH1 0x40 DUP9 KECCAK256 PUSH2 0x1A67 JUMP JUMPDEST DUP5 DUP8 MSTORE PUSH1 0x5 DUP5 MSTORE PUSH1 0x40 DUP8 KECCAK256 DUP1 SLOAD PUSH1 0xFF DUP2 AND PUSH2 0x9C2 JUMPI JUMPDEST POP POP MLOAD AND SWAP4 MLOAD SWAP2 PUSH1 0x2 DUP4 LT ISZERO PUSH2 0x9AE JUMPI SWAP1 PUSH2 0x981 SWAP3 SWAP2 PUSH1 0x40 MLOAD SWAP6 DUP7 MSTORE DUP6 ADD MSTORE PUSH1 0x40 DUP5 ADD SWAP1 PUSH2 0x171B JUMP JUMPDEST PUSH32 0x5FEE9E3A83D9E77E867858377EF35972C9F352F6994667DED9D1885B7065AC44 PUSH1 0x60 CALLER SWAP4 LOG3 PUSH1 0x1 DUP1 SSTORE DUP1 RETURN JUMPDEST PUSH4 0x4E487B71 PUSH1 0xE0 SHL DUP7 MSTORE PUSH1 0x21 PUSH1 0x4 MSTORE PUSH1 0x24 DUP7 REVERT JUMPDEST PUSH1 0xFF NOT AND SWAP1 SSTORE CODESIZE DUP1 PUSH2 0x958 JUMP JUMPDEST PUSH8 0xFFFFFFFFFFFFFFFF DUP2 SWAP9 SWAP3 SWAP9 GT PUSH2 0x9EB JUMPI PUSH1 0x40 MSTORE SWAP6 CODESIZE PUSH2 0x92E JUMP JUMPDEST PUSH4 0x4E487B71 PUSH1 0xE0 SHL DUP3 MSTORE PUSH1 0x41 PUSH1 0x4 MSTORE PUSH1 0x24 DUP3 REVERT JUMPDEST PUSH1 0x40 MLOAD RETURNDATASIZE DUP11 DUP3 RETURNDATACOPY RETURNDATASIZE SWAP1 REVERT JUMPDEST POP DUP1 REVERT JUMPDEST PUSH1 0x40 MLOAD PUSH3 0x461BCD PUSH1 0xE5 SHL DUP2 MSTORE PUSH1 0x4 DUP2 ADD DUP5 SWAP1 MSTORE PUSH1 0xE PUSH1 0x24 DUP3 ADD MSTORE PUSH14 0x21B0B73737BA10313ABC9037BBB7 PUSH1 0x91 SHL PUSH1 0x44 DUP3 ADD MSTORE PUSH1 0x64 SWAP1 REVERT JUMPDEST POP CALLVALUE PUSH2 0x1BC JUMPI PUSH1 0x20 DUP1 PUSH1 0x3 NOT CALLDATASIZE ADD SLT PUSH2 0xA0A JUMPI PUSH1 0x4 CALLDATALOAD SWAP1 DUP2 DUP4 MSTORE PUSH1 0x4 DUP2 MSTORE PUSH2 0xAB2 PUSH1 0x40 DUP5 KECCAK256 PUSH1 0x40 MLOAD PUSH2 0xA75 DUP2 PUSH2 0x1537 JUMP JUMPDEST PUSH2 0xAA9 PUSH1 0xFF PUSH1 0x4 PUSH1 0x1 DUP1 PUSH1 0xA0 SHL SUB SWAP5 DUP6 DUP2 SLOAD AND DUP6 MSTORE PUSH1 0x1 DUP2 ADD SLOAD DUP9 DUP7 ADD MSTORE PUSH1 0x2 DUP2 ADD SLOAD PUSH1 0x40 DUP7 ADD MSTORE PUSH2 0x6A4 PUSH1 0x3 DUP3 ADD PUSH2 0x1637 JUMP JUMPDEST MLOAD AND ISZERO ISZERO PUSH2 0x1A05 JUMP JUMPDEST DUP2 DUP4 MSTORE PUSH1 0x5 DUP2 MSTORE PUSH1 0xFF PUSH1 0x40 DUP5 KECCAK256 SLOAD AND PUSH2 0xB04 JUMPI DUP2 DUP4 MSTORE PUSH1 0x5 SWAP1 MSTORE PUSH1 0x40 DUP3 KECCAK256 DUP1 SLOAD PUSH1 0xFF NOT AND PUSH1 0x1 OR SWAP1 SSTORE CALLER SWAP1 PUSH32 0xE707468DD4C72E05A688BBDFCCE49578E16FC9DE4FA629A4DB9CED143184B954 DUP4 DUP1 LOG3 DUP1 RETURN JUMPDEST PUSH1 0x64 SWAP1 PUSH1 0x40 MLOAD SWAP1 PUSH3 0x461BCD PUSH1 0xE5 SHL DUP3 MSTORE PUSH1 0x4 DUP3 ADD MSTORE PUSH1 0x10 PUSH1 0x24 DUP3 ADD MSTORE PUSH16 0x105B1C9958591E48191A5CDC1D5D1959 PUSH1 0x82 SHL PUSH1 0x44 DUP3 ADD MSTORE REVERT JUMPDEST POP CALLVALUE PUSH2 0x1BC JUMPI DUP1 PUSH1 0x3 NOT CALLDATASIZE ADD SLT PUSH2 0x1BC JUMPI PUSH1 0x40 MLOAD PUSH32 0x0 PUSH1 0x1 PUSH1 0x1 PUSH1 0xA0 SHL SUB AND DUP2 MSTORE PUSH1 0x20 SWAP1 RETURN JUMPDEST POP CALLVALUE PUSH2 0x1BC JUMPI DUP1 PUSH1 0x3 NOT CALLDATASIZE ADD SLT PUSH2 0x1BC JUMPI SLOAD PUSH1 0x40 MLOAD PUSH1 0x1 PUSH1 0x1 PUSH1 0xA0 SHL SUB SWAP1 SWAP2 AND DUP2 MSTORE PUSH1 0x20 SWAP1 RETURN JUMPDEST POP CALLVALUE PUSH2 0x1BC JUMPI DUP1 PUSH1 0x3 NOT CALLDATASIZE ADD SLT PUSH2 0x1BC JUMPI PUSH2 0x636 PUSH2 0xBC3 PUSH2 0x158B JUMP JUMPDEST PUSH1 0x40 MLOAD SWAP2 DUP3 SWAP2 PUSH1 0x20 DUP4 MSTORE PUSH1 0x20 DUP4 ADD SWAP1 PUSH2 0x16DB JUMP JUMPDEST POP CALLVALUE PUSH2 0x1BC JUMPI DUP1 PUSH1 0x3 NOT CALLDATASIZE ADD SLT PUSH2 0x1BC JUMPI PUSH1 0x20 PUSH1 0x7 SLOAD PUSH1 0x40 MLOAD SWAP1 DUP2 MSTORE RETURN JUMPDEST POP CALLVALUE PUSH2 0x1BC JUMPI PUSH1 0x20 DUP1 PUSH1 0x3 NOT CALLDATASIZE ADD SLT PUSH2 0xA0A JUMPI PUSH8 0xFFFFFFFFFFFFFFFF SWAP1 PUSH1 0x4 CALLDATALOAD DUP3 DUP2 GT PUSH2 0xDAC JUMPI PUSH2 0xC2A SWAP1 CALLDATASIZE SWAP1 PUSH1 0x4 ADD PUSH2 0x1493 JUMP JUMPDEST SWAP3 PUSH2 0xC33 PUSH2 0x173E JUMP JUMPDEST DUP4 GT PUSH2 0xD98 JUMPI PUSH1 0x3 PUSH2 0xC45 DUP2 SLOAD PUSH2 0x14FD JUMP JUMPDEST PUSH1 0x1F DUP2 GT PUSH2 0xD53 JUMPI JUMPDEST POP DUP5 PUSH1 0x1F DUP6 GT PUSH1 0x1 EQ PUSH2 0xCC1 JUMPI SWAP2 PUSH2 0xCB0 SWAP2 DUP6 PUSH32 0x97C820AE21A59E741A8EBA022B1BAE9F9F40D63996D86089D4D29A2B6DB48F7 SWAP7 SWAP6 SWAP5 DUP9 SWAP2 PUSH2 0xCB6 JUMPI JUMPDEST POP PUSH1 0x0 NOT DUP7 DUP4 SHL SHR NOT AND PUSH1 0x1 DUP7 SWAP1 SHL OR SWAP1 SSTORE JUMPDEST PUSH1 0x40 MLOAD SWAP4 DUP4 DUP6 SWAP5 DUP6 MSTORE DUP5 ADD SWAP2 PUSH2 0x17E7 JUMP JUMPDEST SUB SWAP1 LOG1 DUP1 RETURN JUMPDEST SWAP1 POP DUP3 ADD CALLDATALOAD CODESIZE PUSH2 0xC8C JUMP JUMPDEST DUP2 DUP7 MSTORE PUSH1 0x0 DUP1 MLOAD PUSH1 0x20 PUSH2 0x21AC DUP4 CODECOPY DUP2 MLOAD SWAP2 MSTORE SWAP1 PUSH1 0x1F NOT DUP7 AND DUP8 JUMPDEST DUP2 DUP2 LT PUSH2 0xD3C JUMPI POP SWAP2 PUSH2 0xCB0 SWAP4 SWAP2 DUP8 PUSH32 0x97C820AE21A59E741A8EBA022B1BAE9F9F40D63996D86089D4D29A2B6DB48F7 SWAP9 SWAP8 SWAP7 SWAP5 LT PUSH2 0xD24 JUMPI JUMPDEST POP POP PUSH1 0x1 DUP6 DUP2 SHL ADD SWAP1 SSTORE PUSH2 0xC9F JUMP JUMPDEST DUP4 ADD CALLDATALOAD PUSH1 0x0 NOT DUP8 DUP5 SHL PUSH1 0xF8 AND SHR NOT AND SWAP1 SSTORE CODESIZE DUP1 PUSH2 0xD15 JUMP JUMPDEST SWAP2 SWAP3 DUP7 PUSH1 0x1 DUP2 SWAP3 DUP7 DUP10 ADD CALLDATALOAD DUP2 SSTORE ADD SWAP5 ADD SWAP3 ADD PUSH2 0xCDB JUMP JUMPDEST PUSH2 0xD88 SWAP1 DUP3 DUP8 MSTORE PUSH1 0x0 DUP1 MLOAD PUSH1 0x20 PUSH2 0x21AC DUP4 CODECOPY DUP2 MLOAD SWAP2 MSTORE PUSH1 0x1F DUP8 ADD PUSH1 0x5 SHR DUP2 ADD SWAP2 DUP7 DUP9 LT PUSH2 0xD8E JUMPI JUMPDEST PUSH1 0x1F ADD PUSH1 0x5 SHR ADD SWAP1 PUSH2 0x1796 JUMP JUMPDEST CODESIZE PUSH2 0xC4E JUMP JUMPDEST SWAP1 SWAP2 POP DUP2 SWAP1 PUSH2 0xD7B JUMP JUMPDEST PUSH4 0x4E487B71 PUSH1 0xE0 SHL DUP5 MSTORE PUSH1 0x41 PUSH1 0x4 MSTORE PUSH1 0x24 DUP5 REVERT JUMPDEST DUP4 DUP1 REVERT JUMPDEST POP CALLVALUE PUSH2 0x1BC JUMPI DUP1 PUSH1 0x3 NOT CALLDATASIZE ADD SLT PUSH2 0x1BC JUMPI PUSH1 0x2 SLOAD PUSH1 0x40 MLOAD PUSH1 0x1 PUSH1 0x1 PUSH1 0xA0 SHL SUB SWAP1 SWAP2 AND DUP2 MSTORE PUSH1 0x20 SWAP1 RETURN JUMPDEST POP CALLVALUE PUSH2 0x1BC JUMPI PUSH1 0x20 CALLDATASIZE PUSH1 0x3 NOT ADD SLT PUSH2 0x1BC JUMPI PUSH1 0xFF PUSH1 0x40 PUSH1 0x20 SWAP3 PUSH1 0x4 CALLDATALOAD DUP2 MSTORE PUSH1 0x5 DUP5 MSTORE KECCAK256 SLOAD AND PUSH1 0x40 MLOAD SWAP1 ISZERO ISZERO DUP2 MSTORE RETURN JUMPDEST POP CALLVALUE PUSH2 0x1BC JUMPI PUSH1 0x20 CALLDATASIZE PUSH1 0x3 NOT ADD SLT PUSH2 0x1BC JUMPI PUSH1 0x4 CALLDATALOAD PUSH1 0x1 PUSH1 0x1 PUSH1 0xA0 SHL SUB DUP2 AND SWAP1 DUP2 SWAP1 SUB PUSH2 0xA0A JUMPI PUSH1 0x20 PUSH32 0x3DF77BEB5DB05FCDD70A30FC8ADF3F83F9501B68579455ADBD100B8180940394 SWAP2 PUSH2 0xE5B PUSH2 0x173E JUMP JUMPDEST PUSH1 0x2 DUP1 SLOAD PUSH1 0x1 PUSH1 0x1 PUSH1 0xA0 SHL SUB NOT AND DUP3 OR SWAP1 SSTORE PUSH1 0x40 MLOAD SWAP1 DUP2 MSTORE LOG1 DUP1 RETURN JUMPDEST POP CALLVALUE PUSH2 0x1BC JUMPI PUSH1 0x20 CALLDATASIZE PUSH1 0x3 NOT ADD SLT PUSH2 0x1BC JUMPI PUSH2 0xEFF PUSH1 0x40 PUSH1 0x20 SWAP3 PUSH1 0x4 CALLDATALOAD DUP2 MSTORE PUSH1 0x4 DUP5 MSTORE KECCAK256 PUSH2 0xEFA PUSH1 0x40 MLOAD SWAP2 PUSH2 0xEAB DUP4 PUSH2 0x1537 JUMP JUMPDEST PUSH2 0xEF0 PUSH1 0xFF PUSH1 0x4 PUSH1 0x1 DUP1 PUSH1 0xA0 SHL SUB SWAP4 DUP5 DUP2 SLOAD AND DUP8 MSTORE PUSH1 0x1 DUP2 ADD SLOAD DUP10 DUP9 ADD MSTORE PUSH1 0x2 DUP2 ADD SLOAD PUSH1 0x40 DUP9 ADD MSTORE PUSH2 0xEDF PUSH1 0x3 DUP3 ADD PUSH2 0x1637 JUMP JUMPDEST PUSH1 0x60 DUP9 ADD MSTORE ADD SLOAD AND PUSH1 0x80 DUP6 ADD PUSH2 0x1928 JUMP JUMPDEST DUP3 MLOAD AND ISZERO ISZERO PUSH2 0x1A05 JUMP JUMPDEST PUSH2 0x1CDF JUMP JUMPDEST PUSH1 0x40 MLOAD SWAP1 DUP2 MSTORE RETURN JUMPDEST POP CALLVALUE PUSH2 0x1BC JUMPI DUP1 PUSH1 0x3 NOT CALLDATASIZE ADD SLT PUSH2 0x1BC JUMPI PUSH2 0xF20 PUSH2 0x173E JUMP JUMPDEST DUP1 SLOAD PUSH1 0x1 PUSH1 0x1 PUSH1 0xA0 SHL SUB NOT DUP2 AND DUP3 SSTORE DUP2 SWAP1 PUSH1 0x1 PUSH1 0x1 PUSH1 0xA0 SHL SUB AND PUSH32 0x8BE0079C531659141344CD1FD0A4F28419497F9722A3DAAFE3B4186F6B6457E0 DUP3 DUP1 LOG3 DUP1 RETURN JUMPDEST POP CALLVALUE PUSH2 0x1BC JUMPI PUSH1 0x20 CALLDATASIZE PUSH1 0x3 NOT ADD SLT PUSH2 0x1BC JUMPI PUSH1 0x4 CALLDATALOAD DUP1 ISZERO ISZERO DUP1 SWAP2 SUB PUSH2 0xA0A JUMPI PUSH1 0x20 PUSH32 0x25DE6ECC0A07BC4466FD80484CF3004B609D934030530DDDE3AE04B8DA1DA249 SWAP2 PUSH2 0xFAC PUSH2 0x173E JUMP JUMPDEST PUSH1 0x2 DUP1 SLOAD PUSH1 0xFF PUSH1 0xA0 SHL NOT AND PUSH1 0xA0 DUP4 SWAP1 SHL PUSH1 0xFF PUSH1 0xA0 SHL AND OR SWAP1 SSTORE PUSH1 0x40 MLOAD SWAP1 DUP2 MSTORE LOG1 DUP1 RETURN JUMPDEST POP CALLVALUE PUSH2 0x1BC JUMPI PUSH2 0xFDE CALLDATASIZE PUSH2 0x14C6 JUMP JUMPDEST PUSH2 0xFE9 SWAP4 SWAP3 SWAP4 PUSH2 0x1934 JUMP JUMPDEST PUSH2 0x100E PUSH1 0x2 SLOAD PUSH2 0xFFE PUSH1 0xFF DUP3 PUSH1 0xA0 SHR AND PUSH2 0x198A JUMP JUMPDEST PUSH1 0x1 PUSH1 0x1 PUSH1 0xA0 SHL SUB AND ISZERO ISZERO PUSH2 0x19C8 JUMP JUMPDEST DUP4 ISZERO PUSH2 0x128C JUMPI PUSH1 0x40 MLOAD PUSH4 0x31A9108F PUSH1 0xE1 SHL DUP2 MSTORE PUSH1 0x4 DUP2 ADD DUP5 SWAP1 MSTORE PUSH1 0x20 DUP2 PUSH1 0x24 DUP2 PUSH32 0x0 PUSH1 0x1 PUSH1 0x1 PUSH1 0xA0 SHL SUB AND GAS STATICCALL DUP1 ISZERO PUSH2 0x1281 JUMPI PUSH2 0x107C SWAP2 DUP8 SWAP2 PUSH2 0x1262 JUMPI JUMPDEST POP PUSH1 0x1 PUSH1 0x1 PUSH1 0xA0 SHL SUB AND CALLER EQ PUSH2 0x1827 JUMP JUMPDEST DUP3 DUP6 MSTORE PUSH1 0x4 PUSH1 0x20 MSTORE PUSH1 0x40 DUP6 KECCAK256 SLOAD PUSH2 0x109C SWAP1 PUSH1 0x1 PUSH1 0x1 PUSH1 0xA0 SHL SUB AND ISZERO PUSH2 0x185F JUMP JUMPDEST PUSH2 0x10A7 DUP2 ISZERO ISZERO PUSH2 0x189C JUMP JUMPDEST PUSH1 0x40 MLOAD PUSH2 0x10B3 DUP2 PUSH2 0x1537 JUMP JUMPDEST CALLER DUP2 MSTORE DUP6 PUSH1 0x20 DUP3 ADD MSTORE DUP5 PUSH1 0x40 DUP3 ADD MSTORE PUSH2 0x10CD CALLDATASIZE DUP4 DUP6 PUSH2 0x18F1 JUMP JUMPDEST PUSH1 0x60 DUP3 ADD MSTORE PUSH1 0x1 PUSH1 0x80 DUP3 ADD MSTORE DUP4 DUP7 MSTORE PUSH1 0x4 PUSH1 0x20 MSTORE PUSH1 0x40 DUP7 KECCAK256 PUSH1 0x1 DUP1 PUSH1 0xA0 SHL SUB DUP3 MLOAD AND PUSH1 0x1 PUSH1 0x1 PUSH1 0x60 SHL SUB PUSH1 0xA0 SHL DUP3 SLOAD AND OR DUP2 SSTORE PUSH1 0x20 DUP3 ADD MLOAD PUSH1 0x1 DUP3 ADD SSTORE PUSH1 0x40 DUP3 ADD MLOAD PUSH1 0x2 DUP3 ADD SSTORE PUSH1 0x60 DUP3 ADD MLOAD DUP1 MLOAD SWAP1 PUSH8 0xFFFFFFFFFFFFFFFF DUP3 GT PUSH2 0x430 JUMPI PUSH2 0x113C DUP3 PUSH2 0x2ED PUSH1 0x3 DUP7 ADD SLOAD PUSH2 0x14FD JUMP JUMPDEST PUSH1 0x20 SWAP1 PUSH1 0x1F DUP4 GT PUSH1 0x1 EQ PUSH2 0x11F0 JUMPI SWAP2 DUP1 PUSH1 0x80 SWAP5 SWAP3 PUSH1 0x4 SWAP5 DUP13 SWAP3 PUSH2 0x11E5 JUMPI JUMPDEST POP POP DUP2 PUSH1 0x1 SHL SWAP2 PUSH1 0x0 NOT SWAP1 PUSH1 0x3 SHL SHR NOT AND OR PUSH1 0x3 DUP3 ADD SSTORE JUMPDEST ADD SWAP2 ADD MLOAD PUSH1 0x2 DUP2 LT ISZERO PUSH2 0x39F JUMPI SWAP2 PUSH32 0xC250632D93F84096DEC1BD127A3DDB5EBDCA63F82AE872E62D15407EE57E895A SWAP4 SWAP2 PUSH2 0x11D0 SWAP4 PUSH1 0xFF DUP1 NOT DUP4 SLOAD AND SWAP2 AND OR SWAP1 SSTORE PUSH1 0x40 MLOAD SWAP6 DUP8 DUP8 MSTORE PUSH1 0x20 DUP8 ADD MSTORE PUSH1 0x80 PUSH1 0x40 DUP8 ADD MSTORE PUSH1 0x80 DUP7 ADD SWAP2 PUSH2 0x17E7 JUMP JUMPDEST SWAP3 PUSH1 0x1 PUSH1 0x60 DUP3 ADD MSTORE DUP1 CALLER SWAP5 SUB SWAP1 LOG3 PUSH1 0x1 DUP1 SSTORE DUP1 RETURN JUMPDEST ADD MLOAD SWAP1 POP CODESIZE DUP1 PUSH2 0x115A JUMP JUMPDEST SWAP1 PUSH1 0x3 DUP5 ADD DUP11 MSTORE PUSH1 0x20 DUP11 KECCAK256 SWAP2 DUP11 JUMPDEST PUSH1 0x1F NOT DUP6 AND DUP2 LT PUSH2 0x124A JUMPI POP SWAP3 PUSH1 0x80 SWAP5 SWAP3 PUSH1 0x1 SWAP3 PUSH1 0x4 SWAP6 DUP4 PUSH1 0x1F NOT DUP2 AND LT PUSH2 0x1231 JUMPI JUMPDEST POP POP POP DUP2 SHL ADD PUSH1 0x3 DUP3 ADD SSTORE PUSH2 0x1172 JUMP JUMPDEST ADD MLOAD PUSH1 0x0 NOT PUSH1 0xF8 DUP5 PUSH1 0x3 SHL AND SHR NOT AND SWAP1 SSTORE CODESIZE DUP1 DUP1 PUSH2 0x1221 JUMP JUMPDEST SWAP2 SWAP3 PUSH1 0x20 PUSH1 0x1 DUP2 SWAP3 DUP7 DUP6 ADD MLOAD DUP2 SSTORE ADD SWAP5 ADD SWAP3 ADD PUSH2 0x11FE JUMP JUMPDEST PUSH2 0x127B SWAP2 POP PUSH1 0x20 RETURNDATASIZE PUSH1 0x20 GT PUSH2 0x46C JUMPI PUSH2 0x45E DUP2 DUP4 PUSH2 0x1569 JUMP JUMPDEST CODESIZE PUSH2 0x106B JUMP JUMPDEST PUSH1 0x40 MLOAD RETURNDATASIZE DUP9 DUP3 RETURNDATACOPY RETURNDATASIZE SWAP1 REVERT JUMPDEST PUSH1 0x40 MLOAD PUSH3 0x461BCD PUSH1 0xE5 SHL DUP2 MSTORE PUSH1 0x20 PUSH1 0x4 DUP3 ADD MSTORE PUSH1 0x5 PUSH1 0x24 DUP3 ADD MSTORE PUSH5 0x5553443D3 PUSH1 0xDC SHL PUSH1 0x44 DUP3 ADD MSTORE PUSH1 0x64 SWAP1 REVERT JUMPDEST POP CALLVALUE PUSH2 0x1BC JUMPI DUP1 PUSH1 0x3 NOT CALLDATASIZE ADD SLT PUSH2 0x1BC JUMPI PUSH1 0x40 MLOAD PUSH32 0x0 PUSH1 0x1 PUSH1 0x1 PUSH1 0xA0 SHL SUB AND DUP2 MSTORE PUSH1 0x20 SWAP1 RETURN JUMPDEST POP CALLVALUE PUSH2 0x1BC JUMPI DUP1 PUSH1 0x3 NOT CALLDATASIZE ADD SLT PUSH2 0x1BC JUMPI PUSH1 0x20 PUSH1 0xFF PUSH1 0x2 SLOAD PUSH1 0xA0 SHR AND PUSH1 0x40 MLOAD SWAP1 ISZERO ISZERO DUP2 MSTORE RETURN JUMPDEST POP CALLVALUE PUSH2 0x1BC JUMPI PUSH1 0x20 CALLDATASIZE PUSH1 0x3 NOT ADD SLT PUSH2 0x1BC JUMPI PUSH1 0x4 CALLDATALOAD SWAP1 PUSH1 0x1 PUSH1 0x1 PUSH1 0xA0 SHL SUB DUP3 AND DUP3 SUB PUSH2 0x1BC JUMPI PUSH1 0x20 PUSH2 0xEFF DUP4 PUSH2 0x20DC JUMP JUMPDEST POP CALLVALUE PUSH2 0x1BC JUMPI PUSH1 0x20 CALLDATASIZE PUSH1 0x3 NOT ADD SLT PUSH2 0x1BC JUMPI PUSH1 0x4 CALLDATALOAD PUSH2 0x1372 PUSH2 0x1934 JUMP JUMPDEST CALLER DUP3 MSTORE PUSH1 0x6 PUSH1 0x20 MSTORE DUP1 PUSH1 0x40 DUP4 KECCAK256 SLOAD LT PUSH2 0x1425 JUMPI CALLER DUP3 MSTORE PUSH1 0x6 PUSH1 0x20 MSTORE PUSH1 0x40 DUP3 KECCAK256 PUSH2 0x139C DUP3 DUP3 SLOAD PUSH2 0x20CF JUMP JUMPDEST SWAP1 SSTORE PUSH2 0x13AA DUP2 PUSH1 0x7 SLOAD PUSH2 0x20CF JUMP JUMPDEST PUSH1 0x7 SSTORE PUSH1 0x40 MLOAD SWAP1 PUSH4 0xA9059CBB PUSH1 0xE0 SHL PUSH1 0x20 DUP4 ADD MSTORE CALLER PUSH1 0x24 DUP4 ADD MSTORE PUSH1 0x44 DUP3 ADD MSTORE PUSH1 0x44 DUP2 MSTORE PUSH1 0x80 DUP2 ADD DUP2 DUP2 LT PUSH8 0xFFFFFFFFFFFFFFFF DUP3 GT OR PUSH2 0x1411 JUMPI PUSH1 0x40 MSTORE PUSH2 0x7B3 SWAP1 PUSH32 0x0 PUSH2 0x1B18 JUMP JUMPDEST PUSH4 0x4E487B71 PUSH1 0xE0 SHL DUP4 MSTORE PUSH1 0x41 PUSH1 0x4 MSTORE PUSH1 0x24 DUP4 REVERT JUMPDEST PUSH1 0x40 MLOAD PUSH3 0x461BCD PUSH1 0xE5 SHL DUP2 MSTORE PUSH1 0x20 PUSH1 0x4 DUP3 ADD MSTORE PUSH1 0xC PUSH1 0x24 DUP3 ADD MSTORE PUSH12 0x125B9CDD59999A58DA595B9D PUSH1 0xA2 SHL PUSH1 0x44 DUP3 ADD MSTORE PUSH1 0x64 SWAP1 REVERT JUMPDEST SWAP1 POP CALLVALUE PUSH2 0xA0A JUMPI PUSH1 0x20 CALLDATASIZE PUSH1 0x3 NOT ADD SLT PUSH2 0xA0A JUMPI PUSH1 0x4 CALLDATALOAD PUSH1 0x1 PUSH1 0x1 PUSH1 0xA0 SHL SUB DUP2 AND SWAP1 DUP2 SWAP1 SUB PUSH2 0x575 JUMPI DUP3 PUSH1 0x40 SWAP2 PUSH1 0x20 SWAP5 MSTORE PUSH1 0x6 DUP5 MSTORE KECCAK256 SLOAD DUP2 MSTORE RETURN JUMPDEST SWAP2 DUP2 PUSH1 0x1F DUP5 ADD SLT ISZERO PUSH2 0x14C1 JUMPI DUP3 CALLDATALOAD SWAP2 PUSH8 0xFFFFFFFFFFFFFFFF DUP4 GT PUSH2 0x14C1 JUMPI PUSH1 0x20 DUP4 DUP2 DUP7 ADD SWAP6 ADD ADD GT PUSH2 0x14C1 JUMPI JUMP JUMPDEST PUSH1 0x0 DUP1 REVERT JUMPDEST PUSH1 0x60 PUSH1 0x3 NOT DUP3 ADD SLT PUSH2 0x14C1 JUMPI PUSH1 0x4 CALLDATALOAD SWAP2 PUSH1 0x24 CALLDATALOAD SWAP2 PUSH1 0x44 CALLDATALOAD SWAP1 PUSH8 0xFFFFFFFFFFFFFFFF DUP3 GT PUSH2 0x14C1 JUMPI PUSH2 0x14F9 SWAP2 PUSH1 0x4 ADD PUSH2 0x1493 JUMP JUMPDEST SWAP1 SWAP2 JUMP JUMPDEST SWAP1 PUSH1 0x1 DUP3 DUP2 SHR SWAP3 AND DUP1 ISZERO PUSH2 0x152D JUMPI JUMPDEST PUSH1 0x20 DUP4 LT EQ PUSH2 0x1517 JUMPI JUMP JUMPDEST PUSH4 0x4E487B71 PUSH1 0xE0 SHL PUSH1 0x0 MSTORE PUSH1 0x22 PUSH1 0x4 MSTORE PUSH1 0x24 PUSH1 0x0 REVERT JUMPDEST SWAP2 PUSH1 0x7F AND SWAP2 PUSH2 0x150C JUMP JUMPDEST PUSH1 0xA0 DUP2 ADD SWAP1 DUP2 LT PUSH8 0xFFFFFFFFFFFFFFFF DUP3 GT OR PUSH2 0x1553 JUMPI PUSH1 0x40 MSTORE JUMP JUMPDEST PUSH4 0x4E487B71 PUSH1 0xE0 SHL PUSH1 0x0 MSTORE PUSH1 0x41 PUSH1 0x4 MSTORE PUSH1 0x24 PUSH1 0x0 REVERT JUMPDEST SWAP1 PUSH1 0x1F DUP1 NOT SWAP2 ADD AND DUP2 ADD SWAP1 DUP2 LT PUSH8 0xFFFFFFFFFFFFFFFF DUP3 GT OR PUSH2 0x1553 JUMPI PUSH1 0x40 MSTORE JUMP JUMPDEST PUSH1 0x40 MLOAD SWAP1 PUSH1 0x0 DUP3 PUSH1 0x3 SLOAD SWAP2 PUSH2 0x159F DUP4 PUSH2 0x14FD JUMP JUMPDEST DUP1 DUP4 MSTORE SWAP3 PUSH1 0x1 SWAP1 DUP2 DUP2 AND SWAP1 DUP2 ISZERO PUSH2 0x1615 JUMPI POP PUSH1 0x1 EQ PUSH2 0x15C8 JUMPI JUMPDEST POP PUSH2 0x15C6 SWAP3 POP SUB DUP4 PUSH2 0x1569 JUMP JUMPDEST JUMP JUMPDEST PUSH1 0x3 PUSH1 0x0 SWAP1 DUP2 MSTORE SWAP2 POP PUSH1 0x0 DUP1 MLOAD PUSH1 0x20 PUSH2 0x21AC DUP4 CODECOPY DUP2 MLOAD SWAP2 MSTORE JUMPDEST DUP5 DUP4 LT PUSH2 0x15FA JUMPI POP PUSH2 0x15C6 SWAP4 POP POP DUP2 ADD PUSH1 0x20 ADD CODESIZE PUSH2 0x15B9 JUMP JUMPDEST DUP2 SWAP4 POP SWAP1 DUP2 PUSH1 0x20 SWAP3 SLOAD DUP4 DUP6 DUP11 ADD ADD MSTORE ADD SWAP2 ADD SWAP1 SWAP2 DUP6 SWAP3 PUSH2 0x15E1 JUMP JUMPDEST SWAP1 POP PUSH1 0x20 SWAP3 POP PUSH2 0x15C6 SWAP5 SWAP2 POP PUSH1 0xFF NOT AND DUP3 DUP5 ADD MSTORE ISZERO ISZERO PUSH1 0x5 SHL DUP3 ADD ADD CODESIZE PUSH2 0x15B9 JUMP JUMPDEST SWAP1 PUSH1 0x40 MLOAD SWAP2 DUP3 PUSH1 0x0 DUP3 SLOAD SWAP3 PUSH2 0x164B DUP5 PUSH2 0x14FD JUMP JUMPDEST SWAP1 DUP2 DUP5 MSTORE PUSH1 0x1 SWAP5 DUP6 DUP2 AND SWAP1 DUP2 PUSH1 0x0 EQ PUSH2 0x16B8 JUMPI POP PUSH1 0x1 EQ PUSH2 0x1675 JUMPI JUMPDEST POP POP PUSH2 0x15C6 SWAP3 POP SUB DUP4 PUSH2 0x1569 JUMP JUMPDEST SWAP1 SWAP4 SWAP2 POP PUSH1 0x0 MSTORE PUSH1 0x20 SWAP1 DUP2 PUSH1 0x0 KECCAK256 SWAP4 PUSH1 0x0 SWAP2 JUMPDEST DUP2 DUP4 LT PUSH2 0x16A0 JUMPI POP POP PUSH2 0x15C6 SWAP4 POP DUP3 ADD ADD CODESIZE DUP1 PUSH2 0x1667 JUMP JUMPDEST DUP6 SLOAD DUP9 DUP5 ADD DUP6 ADD MSTORE SWAP5 DUP6 ADD SWAP5 DUP8 SWAP5 POP SWAP2 DUP4 ADD SWAP2 PUSH2 0x1688 JUMP JUMPDEST SWAP2 POP POP PUSH2 0x15C6 SWAP5 POP PUSH1 0x20 SWAP3 POP PUSH1 0xFF NOT AND DUP3 DUP5 ADD MSTORE ISZERO ISZERO PUSH1 0x5 SHL DUP3 ADD ADD CODESIZE DUP1 PUSH2 0x1667 JUMP JUMPDEST SWAP2 SWAP1 DUP3 MLOAD SWAP3 DUP4 DUP3 MSTORE PUSH1 0x0 JUMPDEST DUP5 DUP2 LT PUSH2 0x1707 JUMPI POP POP DUP3 PUSH1 0x0 PUSH1 0x20 DUP1 SWAP5 SWAP6 DUP5 ADD ADD MSTORE PUSH1 0x1F DUP1 NOT SWAP2 ADD AND ADD ADD SWAP1 JUMP JUMPDEST PUSH1 0x20 DUP2 DUP4 ADD DUP2 ADD MLOAD DUP5 DUP4 ADD DUP3 ADD MSTORE ADD PUSH2 0x16E6 JUMP JUMPDEST SWAP1 PUSH1 0x2 DUP3 LT ISZERO PUSH2 0x1728 JUMPI MSTORE JUMP JUMPDEST PUSH4 0x4E487B71 PUSH1 0xE0 SHL PUSH1 0x0 MSTORE PUSH1 0x21 PUSH1 0x4 MSTORE PUSH1 0x24 PUSH1 0x0 REVERT JUMPDEST PUSH1 0x0 SLOAD PUSH1 0x1 PUSH1 0x1 PUSH1 0xA0 SHL SUB AND CALLER SUB PUSH2 0x1752 JUMPI JUMP JUMPDEST PUSH1 0x64 PUSH1 0x40 MLOAD PUSH3 0x461BCD PUSH1 0xE5 SHL DUP2 MSTORE PUSH1 0x20 PUSH1 0x4 DUP3 ADD MSTORE PUSH1 0x20 PUSH1 0x24 DUP3 ADD MSTORE PUSH32 0x4F776E61626C653A2063616C6C6572206973206E6F7420746865206F776E6572 PUSH1 0x44 DUP3 ADD MSTORE REVERT JUMPDEST DUP2 DUP2 LT PUSH2 0x17A1 JUMPI POP POP JUMP JUMPDEST PUSH1 0x0 DUP2 SSTORE PUSH1 0x1 ADD PUSH2 0x1796 JUMP JUMPDEST SWAP2 SWAP1 PUSH1 0x1F DUP2 GT PUSH2 0x17BC JUMPI POP POP POP JUMP JUMPDEST PUSH2 0x15C6 SWAP3 PUSH1 0x0 MSTORE PUSH1 0x20 PUSH1 0x0 KECCAK256 SWAP1 PUSH1 0x20 PUSH1 0x1F DUP5 ADD PUSH1 0x5 SHR DUP4 ADD SWAP4 LT PUSH2 0xD8E JUMPI PUSH1 0x1F ADD PUSH1 0x5 SHR ADD SWAP1 PUSH2 0x1796 JUMP JUMPDEST SWAP1 DUP1 PUSH1 0x20 SWAP4 SWAP3 DUP2 DUP5 MSTORE DUP5 DUP5 ADD CALLDATACOPY PUSH1 0x0 DUP3 DUP3 ADD DUP5 ADD MSTORE PUSH1 0x1F ADD PUSH1 0x1F NOT AND ADD ADD SWAP1 JUMP JUMPDEST SWAP1 DUP2 PUSH1 0x20 SWAP2 SUB SLT PUSH2 0x14C1 JUMPI MLOAD PUSH1 0x1 PUSH1 0x1 PUSH1 0xA0 SHL SUB DUP2 AND DUP2 SUB PUSH2 0x14C1 JUMPI SWAP1 JUMP JUMPDEST ISZERO PUSH2 0x182E JUMPI JUMP JUMPDEST PUSH1 0x40 MLOAD PUSH3 0x461BCD PUSH1 0xE5 SHL DUP2 MSTORE PUSH1 0x20 PUSH1 0x4 DUP3 ADD MSTORE PUSH1 0x9 PUSH1 0x24 DUP3 ADD MSTORE PUSH9 0x2737BA1037BBB732B9 PUSH1 0xB9 SHL PUSH1 0x44 DUP3 ADD MSTORE PUSH1 0x64 SWAP1 REVERT JUMPDEST ISZERO PUSH2 0x1866 JUMPI JUMP JUMPDEST PUSH1 0x40 MLOAD PUSH3 0x461BCD PUSH1 0xE5 SHL DUP2 MSTORE PUSH1 0x20 PUSH1 0x4 DUP3 ADD MSTORE PUSH1 0xE PUSH1 0x24 DUP3 ADD MSTORE PUSH14 0x105B1C9958591E481B1A5CDD1959 PUSH1 0x92 SHL PUSH1 0x44 DUP3 ADD MSTORE PUSH1 0x64 SWAP1 REVERT JUMPDEST ISZERO PUSH2 0x18A3 JUMPI JUMP JUMPDEST PUSH1 0x40 MLOAD PUSH3 0x461BCD PUSH1 0xE5 SHL DUP2 MSTORE PUSH1 0x20 PUSH1 0x4 DUP3 ADD MSTORE PUSH1 0xA PUSH1 0x24 DUP3 ADD MSTORE PUSH10 0x4E616D6520656D707479 PUSH1 0xB0 SHL PUSH1 0x44 DUP3 ADD MSTORE PUSH1 0x64 SWAP1 REVERT JUMPDEST PUSH8 0xFFFFFFFFFFFFFFFF DUP2 GT PUSH2 0x1553 JUMPI PUSH1 0x1F ADD PUSH1 0x1F NOT AND PUSH1 0x20 ADD SWAP1 JUMP JUMPDEST SWAP3 SWAP2 SWAP3 PUSH2 0x18FD DUP3 PUSH2 0x18D5 JUMP JUMPDEST SWAP2 PUSH2 0x190B PUSH1 0x40 MLOAD SWAP4 DUP5 PUSH2 0x1569 JUMP JUMPDEST DUP3 SWAP5 DUP2 DUP5 MSTORE DUP2 DUP4 ADD GT PUSH2 0x14C1 JUMPI DUP3 DUP2 PUSH1 0x20 SWAP4 DUP5 PUSH1 0x0 SWAP7 ADD CALLDATACOPY ADD ADD MSTORE JUMP JUMPDEST PUSH1 0x2 DUP3 LT ISZERO PUSH2 0x1728 JUMPI MSTORE JUMP JUMPDEST PUSH1 0x2 PUSH1 0x1 SLOAD EQ PUSH2 0x1945 JUMPI PUSH1 0x2 PUSH1 0x1 SSTORE JUMP JUMPDEST PUSH1 0x40 MLOAD PUSH3 0x461BCD PUSH1 0xE5 SHL DUP2 MSTORE PUSH1 0x20 PUSH1 0x4 DUP3 ADD MSTORE PUSH1 0x1F PUSH1 0x24 DUP3 ADD MSTORE PUSH32 0x5265656E7472616E637947756172643A207265656E7472616E742063616C6C00 PUSH1 0x44 DUP3 ADD MSTORE PUSH1 0x64 SWAP1 REVERT JUMPDEST ISZERO PUSH2 0x1991 JUMPI JUMP JUMPDEST PUSH1 0x40 MLOAD PUSH3 0x461BCD PUSH1 0xE5 SHL DUP2 MSTORE PUSH1 0x20 PUSH1 0x4 DUP3 ADD MSTORE PUSH1 0xF PUSH1 0x24 DUP3 ADD MSTORE PUSH15 0x13DC9858DB1948191A5CD8589B1959 PUSH1 0x8A SHL PUSH1 0x44 DUP3 ADD MSTORE PUSH1 0x64 SWAP1 REVERT JUMPDEST ISZERO PUSH2 0x19CF JUMPI JUMP JUMPDEST PUSH1 0x40 MLOAD PUSH3 0x461BCD PUSH1 0xE5 SHL DUP2 MSTORE PUSH1 0x20 PUSH1 0x4 DUP3 ADD MSTORE PUSH1 0xE PUSH1 0x24 DUP3 ADD MSTORE PUSH14 0x13DC9858DB19481B9BDD081CD95D PUSH1 0x92 SHL PUSH1 0x44 DUP3 ADD MSTORE PUSH1 0x64 SWAP1 REVERT JUMPDEST ISZERO PUSH2 0x1A0C JUMPI JUMP JUMPDEST PUSH1 0x40 MLOAD PUSH3 0x461BCD PUSH1 0xE5 SHL DUP2 MSTORE PUSH1 0x20 PUSH1 0x4 DUP3 ADD MSTORE PUSH1 0xA PUSH1 0x24 DUP3 ADD MSTORE PUSH10 0x139BDD081B1A5CDD1959 PUSH1 0xB2 SHL PUSH1 0x44 DUP3 ADD MSTORE PUSH1 0x64 SWAP1 REVERT JUMPDEST DUP2 DUP2 MUL SWAP3 SWAP2 DUP2 ISZERO SWAP2 DUP5 DIV EQ OR ISZERO PUSH2 0x1A51 JUMPI JUMP JUMPDEST PUSH4 0x4E487B71 PUSH1 0xE0 SHL PUSH1 0x0 MSTORE PUSH1 0x11 PUSH1 0x4 MSTORE PUSH1 0x24 PUSH1 0x0 REVERT JUMPDEST PUSH1 0x4 PUSH1 0x0 SWAP2 DUP3 DUP2 SSTORE DUP3 PUSH1 0x1 DUP3 ADD SSTORE DUP3 PUSH1 0x2 DUP3 ADD SSTORE DUP3 PUSH1 0x3 DUP3 ADD PUSH2 0x1A8A DUP2 SLOAD PUSH2 0x14FD JUMP JUMPDEST DUP1 PUSH2 0x1A97 JUMPI JUMPDEST POP POP POP ADD SSTORE JUMP JUMPDEST DUP3 PUSH1 0x1F DUP3 GT PUSH1 0x1 EQ PUSH2 0x1AAF JUMPI POP POP SSTORE JUMPDEST DUP3 CODESIZE DUP1 PUSH2 0x1A90 JUMP JUMPDEST SWAP1 SWAP2 DUP1 DUP3 MSTORE PUSH2 0x1ACD PUSH1 0x1F PUSH1 0x20 DUP5 KECCAK256 SWAP5 ADD PUSH1 0x5 SHR DUP5 ADD PUSH1 0x1 DUP6 ADD PUSH2 0x1796 JUMP JUMPDEST SSTORE SSTORE PUSH2 0x1AA7 JUMP JUMPDEST PUSH1 0x40 MLOAD PUSH4 0x23B872DD PUSH1 0xE0 SHL PUSH1 0x20 DUP3 ADD MSTORE PUSH1 0x1 PUSH1 0x1 PUSH1 0xA0 SHL SUB SWAP3 DUP4 AND PUSH1 0x24 DUP3 ADD MSTORE SWAP3 SWAP1 SWAP2 AND PUSH1 0x44 DUP4 ADD MSTORE PUSH1 0x64 DUP1 DUP4 ADD SWAP4 SWAP1 SWAP4 MSTORE SWAP2 DUP2 MSTORE PUSH2 0x15C6 SWAP2 PUSH2 0x1B18 PUSH1 0x84 DUP4 PUSH2 0x1569 JUMP JUMPDEST PUSH1 0x1 DUP1 PUSH1 0xA0 SHL SUB AND SWAP1 PUSH1 0x40 MLOAD PUSH1 0x40 DUP2 ADD SWAP1 DUP1 DUP3 LT PUSH8 0xFFFFFFFFFFFFFFFF DUP4 GT OR PUSH2 0x1553 JUMPI PUSH2 0x1BA8 SWAP2 PUSH1 0x40 MSTORE PUSH1 0x20 SWAP4 DUP5 DUP3 MSTORE PUSH32 0x5361666545524332303A206C6F772D6C6576656C2063616C6C206661696C6564 DUP6 DUP4 ADD MSTORE PUSH1 0x0 DUP1 DUP6 DUP8 DUP3 SWAP8 MLOAD SWAP2 ADD DUP3 DUP6 GAS CALL RETURNDATASIZE ISZERO PUSH2 0x1C3E JUMPI RETURNDATASIZE SWAP2 PUSH2 0x1B8D DUP4 PUSH2 0x18D5 JUMP JUMPDEST SWAP3 PUSH2 0x1B9B PUSH1 0x40 MLOAD SWAP5 DUP6 PUSH2 0x1569 JUMP JUMPDEST DUP4 MSTORE RETURNDATASIZE DUP7 DUP9 DUP6 ADD RETURNDATACOPY PUSH2 0x1C42 JUMP JUMPDEST DUP1 MLOAD SWAP2 DUP3 ISZERO SWAP2 DUP5 DUP4 ISZERO PUSH2 0x1C1A JUMPI JUMPDEST POP POP POP SWAP1 POP ISZERO PUSH2 0x1BC3 JUMPI POP JUMP JUMPDEST PUSH1 0x84 SWAP1 PUSH1 0x40 MLOAD SWAP1 PUSH3 0x461BCD PUSH1 0xE5 SHL DUP3 MSTORE PUSH1 0x4 DUP3 ADD MSTORE PUSH1 0x2A PUSH1 0x24 DUP3 ADD MSTORE PUSH32 0x5361666545524332303A204552433230206F7065726174696F6E20646964206E PUSH1 0x44 DUP3 ADD MSTORE PUSH10 0x1BDD081CDD58D8D95959 PUSH1 0xB2 SHL PUSH1 0x64 DUP3 ADD MSTORE REVERT JUMPDEST SWAP2 SWAP4 DUP2 DUP1 SWAP5 POP ADD SUB SLT PUSH2 0xA0A JUMPI DUP3 ADD MLOAD SWAP1 DUP2 ISZERO ISZERO DUP3 SUB PUSH2 0x1BC JUMPI POP DUP1 CODESIZE DUP1 DUP5 PUSH2 0x1BB6 JUMP JUMPDEST PUSH1 0x60 SWAP2 JUMPDEST SWAP2 SWAP3 SWAP1 ISZERO PUSH2 0x1CA4 JUMPI POP DUP2 MLOAD ISZERO PUSH2 0x1C56 JUMPI POP SWAP1 JUMP JUMPDEST EXTCODESIZE ISZERO PUSH2 0x1C5F JUMPI SWAP1 JUMP JUMPDEST PUSH1 0x40 MLOAD PUSH3 0x461BCD PUSH1 0xE5 SHL DUP2 MSTORE PUSH1 0x20 PUSH1 0x4 DUP3 ADD MSTORE PUSH1 0x1D PUSH1 0x24 DUP3 ADD MSTORE PUSH32 0x416464726573733A2063616C6C20746F206E6F6E2D636F6E7472616374000000 PUSH1 0x44 DUP3 ADD MSTORE PUSH1 0x64 SWAP1 REVERT JUMPDEST DUP3 MLOAD SWAP1 SWAP2 POP ISZERO PUSH2 0x1CB7 JUMPI POP DUP1 MLOAD SWAP1 PUSH1 0x20 ADD REVERT JUMPDEST PUSH1 0x40 MLOAD PUSH3 0x461BCD PUSH1 0xE5 SHL DUP2 MSTORE PUSH1 0x20 PUSH1 0x4 DUP3 ADD MSTORE SWAP1 DUP2 SWAP1 PUSH2 0x1CDB SWAP1 PUSH1 0x24 DUP4 ADD SWAP1 PUSH2 0x16DB JUMP JUMPDEST SUB SWAP1 REVERT JUMPDEST PUSH1 0x80 DUP2 ADD MLOAD PUSH1 0x2 DUP2 LT ISZERO PUSH2 0x1728 JUMPI PUSH2 0x1CF8 JUMPI PUSH1 0x20 ADD MLOAD SWAP1 JUMP JUMPDEST PUSH1 0x40 DUP1 SWAP2 ADD MLOAD PUSH1 0x2 SLOAD PUSH2 0x1D10 PUSH1 0xFF DUP3 PUSH1 0xA0 SHR AND PUSH2 0x198A JUMP JUMPDEST PUSH1 0x1 PUSH1 0x1 PUSH1 0xA0 SHL SUB AND SWAP2 PUSH2 0x1D25 DUP4 ISZERO ISZERO PUSH2 0x19C8 JUMP JUMPDEST DUP1 DUP1 MLOAD DUP1 SWAP5 PUSH4 0xF66A1B71 PUSH1 0xE0 SHL DUP3 MSTORE DUP2 DUP1 PUSH2 0x1D42 PUSH1 0x4 DUP3 ADD PUSH2 0x1E23 JUMP JUMPDEST SUB SWAP2 GAS STATICCALL SWAP3 DUP4 ISZERO PUSH2 0x1E02 JUMPI PUSH1 0x0 SWAP4 PUSH2 0x1DD2 JUMPI JUMPDEST POP PUSH1 0x0 DUP4 SGT ISZERO PUSH2 0x1DA2 JUMPI POP SWAP1 PUSH2 0x1D9A PUSH2 0x1D9F SWAP3 PUSH2 0x1D94 PUSH1 0xFF PUSH32 0x0 AND PUSH2 0x1EC7 JUMP JUMPDEST SWAP1 PUSH2 0x1A3E JUMP JUMPDEST PUSH2 0x1ED5 JUMP JUMPDEST SWAP1 JUMP JUMPDEST MLOAD PUSH3 0x461BCD PUSH1 0xE5 SHL DUP2 MSTORE PUSH1 0x20 PUSH1 0x4 DUP3 ADD MSTORE PUSH1 0xA PUSH1 0x24 DUP3 ADD MSTORE PUSH10 0x426164206F7261636C65 PUSH1 0xB0 SHL PUSH1 0x44 DUP3 ADD MSTORE PUSH1 0x64 SWAP1 REVERT JUMPDEST DUP2 PUSH2 0x1DF3 SWAP3 SWAP5 POP RETURNDATASIZE DUP6 GT PUSH2 0x1DFB JUMPI JUMPDEST PUSH2 0x1DEB DUP2 DUP4 PUSH2 0x1569 JUMP JUMPDEST DUP2 ADD SWAP1 PUSH2 0x1E0D JUMP JUMPDEST POP SWAP2 CODESIZE PUSH2 0x1D55 JUMP JUMPDEST POP RETURNDATASIZE PUSH2 0x1DE1 JUMP JUMPDEST POP MLOAD RETURNDATASIZE PUSH1 0x0 DUP3 RETURNDATACOPY RETURNDATASIZE SWAP1 REVERT JUMPDEST SWAP2 SWAP1 DUP3 PUSH1 0x40 SWAP2 SUB SLT PUSH2 0x14C1 JUMPI PUSH1 0x20 DUP3 MLOAD SWAP3 ADD MLOAD SWAP1 JUMP JUMPDEST PUSH1 0x20 DUP1 DUP3 MSTORE PUSH1 0x0 SWAP2 PUSH1 0x3 SLOAD SWAP2 PUSH2 0x1E38 DUP4 PUSH2 0x14FD JUMP JUMPDEST SWAP3 DUP4 DUP3 DUP5 ADD MSTORE PUSH1 0x1 SWAP1 DUP2 DUP2 AND SWAP1 DUP2 PUSH1 0x0 EQ PUSH2 0x1EA4 JUMPI POP PUSH1 0x1 EQ PUSH2 0x1E5D JUMPI JUMPDEST POP POP POP POP SWAP1 JUMP JUMPDEST PUSH1 0x3 PUSH1 0x0 SWAP1 DUP2 MSTORE SWAP4 SWAP5 POP PUSH1 0x0 DUP1 MLOAD PUSH1 0x20 PUSH2 0x21AC DUP4 CODECOPY DUP2 MLOAD SWAP2 MSTORE JUMPDEST DUP6 DUP6 LT PUSH2 0x1E90 JUMPI POP POP POP PUSH1 0x40 SWAP3 POP ADD ADD CODESIZE DUP1 DUP1 DUP1 PUSH2 0x1E56 JUMP JUMPDEST DUP1 SLOAD DUP6 DUP6 ADD PUSH1 0x40 ADD MSTORE SWAP4 DUP3 ADD SWAP4 DUP2 ADD PUSH2 0x1E77 JUMP JUMPDEST SWAP3 POP POP POP PUSH1 0x40 SWAP4 POP PUSH1 0xFF SWAP3 SWAP2 SWAP3 NOT AND DUP4 DUP4 ADD MSTORE ISZERO ISZERO PUSH1 0x5 SHL ADD ADD CODESIZE DUP1 DUP1 DUP1 PUSH2 0x1E56 JUMP JUMPDEST PUSH1 0x4D DUP2 GT PUSH2 0x1A51 JUMPI PUSH1 0xA EXP SWAP1 JUMP JUMPDEST DUP2 ISZERO PUSH2 0x1EDF JUMPI DIV SWAP1 JUMP JUMPDEST PUSH4 0x4E487B71 PUSH1 0xE0 SHL PUSH1 0x0 MSTORE PUSH1 0x12 PUSH1 0x4 MSTORE PUSH1 0x24 PUSH1 0x0 REVERT JUMPDEST PUSH1 0x0 SWAP1 DUP1 DUP3 MSTORE PUSH1 0x4 PUSH1 0x20 MSTORE PUSH1 0x40 SWAP2 DUP3 DUP2 KECCAK256 SWAP4 DUP4 MLOAD PUSH2 0x1F12 DUP2 PUSH2 0x1537 JUMP JUMPDEST DUP6 SLOAD PUSH1 0x1 PUSH1 0x1 PUSH1 0xA0 SHL SUB SWAP1 DUP2 AND DUP3 MSTORE PUSH1 0x1 DUP8 ADD SLOAD PUSH1 0x20 DUP4 ADD SWAP1 DUP2 MSTORE PUSH1 0x2 DUP9 ADD SLOAD DUP8 DUP5 ADD SWAP1 DUP2 MSTORE SWAP7 PUSH1 0xFF PUSH1 0x4 PUSH2 0x1F49 PUSH1 0x3 DUP13 ADD PUSH2 0x1637 JUMP JUMPDEST SWAP11 PUSH1 0x60 DUP8 ADD SWAP12 DUP13 MSTORE ADD SLOAD AND SWAP3 PUSH2 0x1F63 PUSH1 0x80 DUP7 ADD SWAP5 DUP6 PUSH2 0x1928 JUMP JUMPDEST PUSH2 0x1F71 DUP2 DUP7 MLOAD AND ISZERO ISZERO PUSH2 0x1A05 JUMP JUMPDEST PUSH2 0x1F7A DUP6 PUSH2 0x1CDF JUMP JUMPDEST SWAP9 DUP8 SWAP5 MLOAD PUSH1 0x2 DUP2 LT ISZERO PUSH2 0x20AE JUMPI PUSH2 0x207F JUMPI POP PUSH1 0x2 SLOAD PUSH1 0xFF DUP2 PUSH1 0xA0 SHR AND DUP1 PUSH2 0x2074 JUMPI JUMPDEST PUSH2 0x1FCC JUMPI JUMPDEST POP PUSH1 0xFF SWAP3 SWAP4 SWAP5 MLOAD AND SWAP3 MLOAD SWAP9 MLOAD SWAP7 DUP7 MSTORE PUSH1 0x5 PUSH1 0x20 MSTORE DUP6 KECCAK256 SLOAD AND SWAP1 SWAP7 SWAP6 SWAP5 SWAP4 SWAP3 PUSH2 0x1FC7 PUSH2 0x158B JUMP JUMPDEST SWAP3 SWAP2 SWAP1 JUMP JUMPDEST DUP3 DUP1 MLOAD DUP1 SWAP3 PUSH4 0xF66A1B71 PUSH1 0xE0 SHL DUP3 MSTORE DUP2 DUP6 DUP2 PUSH2 0x1FEA PUSH1 0x4 DUP3 ADD PUSH2 0x1E23 JUMP JUMPDEST SUB SWAP3 AND GAS STATICCALL SWAP1 DUP2 ISZERO PUSH2 0x206A JUMPI DUP9 SWAP2 PUSH2 0x204C JUMPI JUMPDEST POP DUP8 DUP2 SGT ISZERO PUSH2 0x1FA1 JUMPI PUSH1 0xFF SWAP4 SWAP5 POP PUSH2 0x2045 SWAP1 PUSH2 0x1D9A PUSH2 0x203D DUP7 PUSH32 0x0 AND PUSH2 0x1EC7 JUMP JUMPDEST SWAP2 DUP8 MLOAD PUSH2 0x1A3E JUMP JUMPDEST SWAP4 SWAP3 PUSH2 0x1FA1 JUMP JUMPDEST PUSH2 0x2063 SWAP2 POP DUP4 RETURNDATASIZE DUP6 GT PUSH2 0x1DFB JUMPI PUSH2 0x1DEB DUP2 DUP4 PUSH2 0x1569 JUMP JUMPDEST POP CODESIZE PUSH2 0x1FFD JUMP JUMPDEST DUP4 MLOAD RETURNDATASIZE DUP11 DUP3 RETURNDATACOPY RETURNDATASIZE SWAP1 REVERT JUMPDEST POP DUP2 DUP2 AND ISZERO ISZERO PUSH2 0x1F9C JUMP JUMPDEST SWAP8 SWAP5 SWAP1 SWAP2 SWAP3 POP PUSH1 0xFF SWAP4 POP SWAP9 SWAP6 SWAP9 MLOAD AND SWAP5 MLOAD SWAP6 MLOAD SWAP3 DUP9 MSTORE PUSH1 0x5 PUSH1 0x20 MSTORE DUP8 KECCAK256 SLOAD AND SWAP3 SWAP6 SWAP5 SWAP4 SWAP3 PUSH1 0x1 SWAP3 PUSH2 0x1FC7 PUSH2 0x158B JUMP JUMPDEST PUSH4 0x4E487B71 PUSH1 0xE0 SHL DUP10 MSTORE PUSH1 0x21 PUSH1 0x4 MSTORE PUSH1 0x24 DUP10 REVERT JUMPDEST SWAP2 SWAP1 DUP3 ADD DUP1 SWAP3 GT PUSH2 0x1A51 JUMPI JUMP JUMPDEST SWAP2 SWAP1 DUP3 SUB SWAP2 DUP3 GT PUSH2 0x1A51 JUMPI JUMP JUMPDEST PUSH1 0x7 SLOAD SWAP1 DUP2 ISZERO PUSH2 0x21A4 JUMPI PUSH1 0x40 MLOAD PUSH4 0x70A08231 PUSH1 0xE0 SHL DUP2 MSTORE ADDRESS PUSH1 0x4 DUP3 ADD MSTORE PUSH1 0x1 PUSH1 0x1 PUSH1 0xA0 SHL SUB SWAP1 PUSH1 0x20 DUP2 PUSH1 0x24 DUP2 PUSH32 0x0 DUP7 AND GAS STATICCALL SWAP1 DUP2 ISZERO PUSH2 0x2198 JUMPI PUSH1 0x0 SWAP2 PUSH2 0x2165 JUMPI JUMPDEST POP SWAP2 PUSH2 0x1D9A SWAP2 PUSH2 0x2150 DUP6 PUSH2 0x1D9F SWAP7 SWAP6 PUSH2 0x20CF JUMP JUMPDEST SWAP2 AND PUSH1 0x0 MSTORE PUSH1 0x6 PUSH1 0x20 MSTORE PUSH1 0x40 PUSH1 0x0 KECCAK256 SLOAD PUSH2 0x1A3E JUMP JUMPDEST SWAP1 PUSH1 0x20 DUP3 RETURNDATASIZE DUP3 GT PUSH2 0x2190 JUMPI JUMPDEST DUP2 PUSH2 0x217E PUSH1 0x20 SWAP4 DUP4 PUSH2 0x1569 JUMP JUMPDEST DUP2 ADD SUB SLT PUSH2 0x1BC JUMPI POP MLOAD PUSH2 0x1D9A PUSH2 0x213C JUMP JUMPDEST RETURNDATASIZE SWAP2 POP PUSH2 0x2171 JUMP JUMPDEST PUSH1 0x40 MLOAD RETURNDATASIZE PUSH1 0x0 DUP3 RETURNDATACOPY RETURNDATASIZE SWAP1 REVERT JUMPDEST POP POP PUSH1 0x0 SWAP1 JUMP INVALID 0xC2 JUMPI GAS 0xE SWAP15 MSIZE EXTCODECOPY STOP 0xF9 MSIZE 0xF8 0xC9 0x2F SLT 0xDB 0x28 PUSH10 0xC3395A3B0502D05E2516 PREVRANDAO PUSH16 0x71F85BA2646970667358221220583971 SWAP5 0xFB 0xD9 LOG1 0xF DUP15 COINBASE SWAP9 0xB8 0xD8 INVALID 0x21 0xE1 0xBC INVALID GT 0x4D 0xAC 0x4B ADDMOD 0xE4 0xE3 PUSH13 0xB0BD4A28D15D64736F6C634300 ADDMOD EQ STOP CALLER "},"methodIdentifiers":{"ariaNFT()":"4803d23b","ariaToken()":"967bcbda","ariaTokenDecimals()":"ebd46096","currentPriceInAria(uint256)":"72214e87","disputeAsset(uint256)":"9c3517bc","getClaimableRewardsFor(address)":"3131714b","getListingDetails(uint256)":"fb05da2e","isDisputed(uint256)":"7ccc586e","listAssetAria(uint256,uint256,string)":"f4532cd6","listAssetUsd(uint256,uint256,string)":"535d55d7","listings(uint256)":"de74e57b","oracle()":"7dc0d1d0","owner()":"8da5cb5b","pricePair()":"863a6629","purchaseAsset(uint256)":"a457e1c0","renounceOwnership()":"715018a6","setOracle(address)":"7adbf973","setPricePair(string)":"80af3da4","setUseOracle(bool)":"6804f613","stake(uint256)":"a694fc3a","stakedBalances(address)":"1460fa87","totalStaked()":"817b1cd2","transferOwnership(address)":"f2fde38b","unlistAsset(uint256)":"dda547f4","unstake(uint256)":"2e17de78","useOracle()":"44878724"}}}}}