{"contracts/IQIEOracle.sol":{"MockQIEOracle":{"abi":[{"inputs":[],"stateMutability":"nonpayable","type":"constructor"},{"inputs":[{"internalType":"string","name":"pair","type":"string"},{"internalType":"uint256","name":"timestamp","type":"uint256"}],"name":"getHistoricalPrice","outputs":[{"internalType":"int256","name":"price","type":"int256"}],"stateMutability":"view","type":"function"},{"inputs":[{"internalType":"string","name":"pair","type":"string"}],"name":"getLatestPrice","outputs":[{"internalType":"int256","name":"price","type":"int256"},{"internalType":"uint256","name":"timestamp","type":"uint256"}],"stateMutability":"view","type":"function"},{"inputs":[{"internalType":"string","name":"pair","type":"string"},{"internalType":"uint256","name":"maxAge","type":"uint256"}],"name":"isFresh","outputs":[{"internalType":"bool","name":"","type":"bool"}],"stateMutability":"view","type":"function"},{"inputs":[],"name":"owner","outputs":[{"internalType":"address","name":"","type":"address"}],"stateMutability":"view","type":"function"},{"inputs":[{"internalType":"string","name":"pair","type":"string"},{"internalType":"int256","name":"price","type":"int256"}],"name":"updatePrice","outputs":[],"stateMutability":"nonpayable","type":"function"}],"evm":{"bytecode":{"linkReferences":{},"object":"604060808152346101eb57600180546001600160a01b031916331781556100246101f0565b906008825260209167105492504bd554d160c21b83820152816100456101f0565b916302faf0808352848301904282528587519180519060005b8281106101d657505082908101600081520301902092518355519101556100836101f0565b60078152661155120bd554d160ca1b838201528161009f6101f0565b91642e90edd0008352848301904282528587519180519060005b8281106101c157505082908101600081520301902092518355519101556100de6101f0565b60078152661253948bd554d160ca1b83820152816100fa6101f0565b9162124f808352848301904282528587519180519060005b8281106101ac57505082908101600081520301902092518355519101556101376101f0565b9160088352670a48abe929c888ab60c31b818401526101546101f0565b926306422c40845281840191428352855182819351908360005b838110610197575050508101600081520301902092518355519101555161039290816102268239f35b8281018201518782015286945085910161016e565b81810184015185820152889650899301610112565b818101840151858201528896508993016100b9565b8181018401518582015288965089930161005e565b600080fd5b60408051919082016001600160401b0381118382101761020f57604052565b634e487b7160e01b600052604160045260246000fdfe60406080815260048036101561001457600080fd5b6000803560e01c80632a632795146101a85780638da5cb5b1461017f57806394fa3e361461015b578063a1c6dded146100fa5763f66a1b711461005657600080fd5b346100f75760203660031901126100f75781359067ffffffffffffffff82116100f7575061008a61008f9136908401610289565b610323565b6001610099610253565b91805483520154916020820192808452156100be575051905182519182526020820152f35b606490602085519162461bcd60e51b835282015260136024820152725072696365206e6f7420617661696c61626c6560681b6044820152fd5b80fd5b50823461015757610117906020610110366102f1565b9390610323565b6001610121610253565b918054835201549182910152420392428411610144575060209350519111158152f35b634e487b7160e01b815260118552602490fd5b5080fd5b50823461015757602090610177610171366102f1565b50610323565b549051908152f35b50823461015757816003193601126101575760015490516001600160a01b039091168152602090f35b5091903461024f578160031936011261024f57803567ffffffffffffffff811161024b576101d99036908301610289565b6001549092906001600160a01b0316330361021b57505060016101fa610253565b9160243583526102106020840191428352610323565b925183555191015580f35b906020606492519162461bcd60e51b8352820152600a60248201526927b7363c9037bbb732b960b11b6044820152fd5b8380fd5b8280fd5b604051906040820182811067ffffffffffffffff82111761027357604052565b634e487b7160e01b600052604160045260246000fd5b81601f820112156102ec5780359067ffffffffffffffff928383116102735760405193601f8401601f19908116603f011685019081118582101761027357604052828452602083830101116102ec57816000926020809301838601378301015290565b600080fd5b60406003198201126102ec576004359067ffffffffffffffff82116102ec5761031c91600401610289565b9060243590565b604051908181519160005b8381106103475750506020918101600081520301902090565b6020828201810151868301528593500161032e56fea26469706673582212209da40bda02c6551a530cbea5c9eaa8d09a08903eded7da3b89d839eed45066b564736f6c63430008140033","opcodes":"PUSH1 0x40 PUSH1 0x80 DUP2 MSTORE CALLVALUE PUSH2 0x1EB JUMPI PUSH1 0x1 DUP1 SLOAD PUSH1 0x1 PUSH1 0x1 PUSH1 0xA0 SHL SUB NOT AND CALLER OR DUP2 SSTORE PUSH2 0x24 PUSH2 0x1F0 JUMP JUMPDEST SWAP1 PUSH1 0x8 DUP3 MSTORE PUSH1 0x20 SWAP2 PUSH8 0x105492504BD554D1 PUSH1 0xC2 SHL DUP4 DUP3 ADD MSTORE DUP2 PUSH2 0x45 PUSH2 0x1F0 JUMP JUMPDEST SWAP2 PUSH4 0x2FAF080 DUP4 MSTORE DUP5 DUP4 ADD SWAP1 TIMESTAMP DUP3 MSTORE DUP6 DUP8 MLOAD SWAP2 DUP1 MLOAD SWAP1 PUSH1 0x0 JUMPDEST DUP3 DUP2 LT PUSH2 0x1D6 JUMPI POP POP DUP3 SWAP1 DUP2 ADD PUSH1 0x0 DUP2 MSTORE SUB ADD SWAP1 KECCAK256 SWAP3 MLOAD DUP4 SSTORE MLOAD SWAP2 ADD SSTORE PUSH2 0x83 PUSH2 0x1F0 JUMP JUMPDEST PUSH1 0x7 DUP2 MSTORE PUSH7 0x1155120BD554D1 PUSH1 0xCA SHL DUP4 DUP3 ADD MSTORE DUP2 PUSH2 0x9F PUSH2 0x1F0 JUMP JUMPDEST SWAP2 PUSH5 0x2E90EDD000 DUP4 MSTORE DUP5 DUP4 ADD SWAP1 TIMESTAMP DUP3 MSTORE DUP6 DUP8 MLOAD SWAP2 DUP1 MLOAD SWAP1 PUSH1 0x0 JUMPDEST DUP3 DUP2 LT PUSH2 0x1C1 JUMPI POP POP DUP3 SWAP1 DUP2 ADD PUSH1 0x0 DUP2 MSTORE SUB ADD SWAP1 KECCAK256 SWAP3 MLOAD DUP4 SSTORE MLOAD SWAP2 ADD SSTORE PUSH2 0xDE PUSH2 0x1F0 JUMP JUMPDEST PUSH1 0x7 DUP2 MSTORE PUSH7 0x1253948BD554D1 PUSH1 0xCA SHL DUP4 DUP3 ADD MSTORE DUP2 PUSH2 0xFA PUSH2 0x1F0 JUMP JUMPDEST SWAP2 PUSH3 0x124F80 DUP4 MSTORE DUP5 DUP4 ADD SWAP1 TIMESTAMP DUP3 MSTORE DUP6 DUP8 MLOAD SWAP2 DUP1 MLOAD SWAP1 PUSH1 0x0 JUMPDEST DUP3 DUP2 LT PUSH2 0x1AC JUMPI POP POP DUP3 SWAP1 DUP2 ADD PUSH1 0x0 DUP2 MSTORE SUB ADD SWAP1 KECCAK256 SWAP3 MLOAD DUP4 SSTORE MLOAD SWAP2 ADD SSTORE PUSH2 0x137 PUSH2 0x1F0 JUMP JUMPDEST SWAP2 PUSH1 0x8 DUP4 MSTORE PUSH8 0xA48ABE929C888AB PUSH1 0xC3 SHL DUP2 DUP5 ADD MSTORE PUSH2 0x154 PUSH2 0x1F0 JUMP JUMPDEST SWAP3 PUSH4 0x6422C40 DUP5 MSTORE DUP2 DUP5 ADD SWAP2 TIMESTAMP DUP4 MSTORE DUP6 MLOAD DUP3 DUP2 SWAP4 MLOAD SWAP1 DUP4 PUSH1 0x0 JUMPDEST DUP4 DUP2 LT PUSH2 0x197 JUMPI POP POP POP DUP2 ADD PUSH1 0x0 DUP2 MSTORE SUB ADD SWAP1 KECCAK256 SWAP3 MLOAD DUP4 SSTORE MLOAD SWAP2 ADD SSTORE MLOAD PUSH2 0x392 SWAP1 DUP2 PUSH2 0x226 DUP3 CODECOPY RETURN JUMPDEST DUP3 DUP2 ADD DUP3 ADD MLOAD DUP8 DUP3 ADD MSTORE DUP7 SWAP5 POP DUP6 SWAP2 ADD PUSH2 0x16E JUMP JUMPDEST DUP2 DUP2 ADD DUP5 ADD MLOAD DUP6 DUP3 ADD MSTORE DUP9 SWAP7 POP DUP10 SWAP4 ADD PUSH2 0x112 JUMP JUMPDEST DUP2 DUP2 ADD DUP5 ADD MLOAD DUP6 DUP3 ADD MSTORE DUP9 SWAP7 POP DUP10 SWAP4 ADD PUSH2 0xB9 JUMP JUMPDEST DUP2 DUP2 ADD DUP5 ADD MLOAD DUP6 DUP3 ADD MSTORE DUP9 SWAP7 POP DUP10 SWAP4 ADD PUSH2 0x5E JUMP JUMPDEST PUSH1 0x0 DUP1 REVERT JUMPDEST PUSH1 0x40 DUP1 MLOAD SWAP2 SWAP1 DUP3 ADD PUSH1 0x1 PUSH1 0x1 PUSH1 0x40 SHL SUB DUP2 GT DUP4 DUP3 LT OR PUSH2 0x20F JUMPI PUSH1 0x40 MSTORE JUMP JUMPDEST PUSH4 0x4E487B71 PUSH1 0xE0 SHL PUSH1 0x0 MSTORE PUSH1 0x41 PUSH1 0x4 MSTORE PUSH1 0x24 PUSH1 0x0 REVERT INVALID PUSH1 0x40 PUSH1 0x80 DUP2 MSTORE PUSH1 0x4 DUP1 CALLDATASIZE LT ISZERO PUSH2 0x14 JUMPI PUSH1 0x0 DUP1 REVERT JUMPDEST PUSH1 0x0 DUP1 CALLDATALOAD PUSH1 0xE0 SHR DUP1 PUSH4 0x2A632795 EQ PUSH2 0x1A8 JUMPI DUP1 PUSH4 0x8DA5CB5B EQ PUSH2 0x17F JUMPI DUP1 PUSH4 0x94FA3E36 EQ PUSH2 0x15B JUMPI DUP1 PUSH4 0xA1C6DDED EQ PUSH2 0xFA JUMPI PUSH4 0xF66A1B71 EQ PUSH2 0x56 JUMPI PUSH1 0x0 DUP1 REVERT JUMPDEST CALLVALUE PUSH2 0xF7 JUMPI PUSH1 0x20 CALLDATASIZE PUSH1 0x3 NOT ADD SLT PUSH2 0xF7 JUMPI DUP2 CALLDATALOAD SWAP1 PUSH8 0xFFFFFFFFFFFFFFFF DUP3 GT PUSH2 0xF7 JUMPI POP PUSH2 0x8A PUSH2 0x8F SWAP2 CALLDATASIZE SWAP1 DUP5 ADD PUSH2 0x289 JUMP JUMPDEST PUSH2 0x323 JUMP JUMPDEST PUSH1 0x1 PUSH2 0x99 PUSH2 0x253 JUMP JUMPDEST SWAP2 DUP1 SLOAD DUP4 MSTORE ADD SLOAD SWAP2 PUSH1 0x20 DUP3 ADD SWAP3 DUP1 DUP5 MSTORE ISZERO PUSH2 0xBE JUMPI POP MLOAD SWAP1 MLOAD DUP3 MLOAD SWAP2 DUP3 MSTORE PUSH1 0x20 DUP3 ADD MSTORE RETURN JUMPDEST PUSH1 0x64 SWAP1 PUSH1 0x20 DUP6 MLOAD SWAP2 PUSH3 0x461BCD PUSH1 0xE5 SHL DUP4 MSTORE DUP3 ADD MSTORE PUSH1 0x13 PUSH1 0x24 DUP3 ADD MSTORE PUSH19 0x5072696365206E6F7420617661696C61626C65 PUSH1 0x68 SHL PUSH1 0x44 DUP3 ADD MSTORE REVERT JUMPDEST DUP1 REVERT JUMPDEST POP DUP3 CALLVALUE PUSH2 0x157 JUMPI PUSH2 0x117 SWAP1 PUSH1 0x20 PUSH2 0x110 CALLDATASIZE PUSH2 0x2F1 JUMP JUMPDEST SWAP4 SWAP1 PUSH2 0x323 JUMP JUMPDEST PUSH1 0x1 PUSH2 0x121 PUSH2 0x253 JUMP JUMPDEST SWAP2 DUP1 SLOAD DUP4 MSTORE ADD SLOAD SWAP2 DUP3 SWAP2 ADD MSTORE TIMESTAMP SUB SWAP3 TIMESTAMP DUP5 GT PUSH2 0x144 JUMPI POP PUSH1 0x20 SWAP4 POP MLOAD SWAP2 GT ISZERO DUP2 MSTORE RETURN JUMPDEST PUSH4 0x4E487B71 PUSH1 0xE0 SHL DUP2 MSTORE PUSH1 0x11 DUP6 MSTORE PUSH1 0x24 SWAP1 REVERT JUMPDEST POP DUP1 REVERT JUMPDEST POP DUP3 CALLVALUE PUSH2 0x157 JUMPI PUSH1 0x20 SWAP1 PUSH2 0x177 PUSH2 0x171 CALLDATASIZE PUSH2 0x2F1 JUMP JUMPDEST POP PUSH2 0x323 JUMP JUMPDEST SLOAD SWAP1 MLOAD SWAP1 DUP2 MSTORE RETURN JUMPDEST POP DUP3 CALLVALUE PUSH2 0x157 JUMPI DUP2 PUSH1 0x3 NOT CALLDATASIZE ADD SLT PUSH2 0x157 JUMPI PUSH1 0x1 SLOAD SWAP1 MLOAD PUSH1 0x1 PUSH1 0x1 PUSH1 0xA0 SHL SUB SWAP1 SWAP2 AND DUP2 MSTORE PUSH1 0x20 SWAP1 RETURN JUMPDEST POP SWAP2 SWAP1 CALLVALUE PUSH2 0x24F JUMPI DUP2 PUSH1 0x3 NOT CALLDATASIZE ADD SLT PUSH2 0x24F JUMPI DUP1 CALLDATALOAD PUSH8 0xFFFFFFFFFFFFFFFF DUP2 GT PUSH2 0x24B JUMPI PUSH2 0x1D9 SWAP1 CALLDATASIZE SWAP1 DUP4 ADD PUSH2 0x289 JUMP JUMPDEST PUSH1 0x1 SLOAD SWAP1 SWAP3 SWAP1 PUSH1 0x1 PUSH1 0x1 PUSH1 0xA0 SHL SUB AND CALLER SUB PUSH2 0x21B JUMPI POP POP PUSH1 0x1 PUSH2 0x1FA PUSH2 0x253 JUMP JUMPDEST SWAP2 PUSH1 0x24 CALLDATALOAD DUP4 MSTORE PUSH2 0x210 PUSH1 0x20 DUP5 ADD SWAP2 TIMESTAMP DUP4 MSTORE PUSH2 0x323 JUMP JUMPDEST SWAP3 MLOAD DUP4 SSTORE MLOAD SWAP2 ADD SSTORE DUP1 RETURN JUMPDEST SWAP1 PUSH1 0x20 PUSH1 0x64 SWAP3 MLOAD SWAP2 PUSH3 0x461BCD PUSH1 0xE5 SHL DUP4 MSTORE DUP3 ADD MSTORE PUSH1 0xA PUSH1 0x24 DUP3 ADD MSTORE PUSH10 0x27B7363C9037BBB732B9 PUSH1 0xB1 SHL PUSH1 0x44 DUP3 ADD MSTORE REVERT JUMPDEST DUP4 DUP1 REVERT JUMPDEST DUP3 DUP1 REVERT JUMPDEST PUSH1 0x40 MLOAD SWAP1 PUSH1 0x40 DUP3 ADD DUP3 DUP2 LT PUSH8 0xFFFFFFFFFFFFFFFF DUP3 GT OR PUSH2 0x273 JUMPI PUSH1 0x40 MSTORE JUMP JUMPDEST PUSH4 0x4E487B71 PUSH1 0xE0 SHL PUSH1 0x0 MSTORE PUSH1 0x41 PUSH1 0x4 MSTORE PUSH1 0x24 PUSH1 0x0 REVERT JUMPDEST DUP2 PUSH1 0x1F DUP3 ADD SLT ISZERO PUSH2 0x2EC JUMPI DUP1 CALLDATALOAD SWAP1 PUSH8 0xFFFFFFFFFFFFFFFF SWAP3 DUP4 DUP4 GT PUSH2 0x273 JUMPI PUSH1 0x40 MLOAD SWAP4 PUSH1 0x1F DUP5 ADD PUSH1 0x1F NOT SWAP1 DUP2 AND PUSH1 0x3F ADD AND DUP6 ADD SWAP1 DUP2 GT DUP6 DUP3 LT OR PUSH2 0x273 JUMPI PUSH1 0x40 MSTORE DUP3 DUP5 MSTORE PUSH1 0x20 DUP4 DUP4 ADD ADD GT PUSH2 0x2EC JUMPI DUP2 PUSH1 0x0 SWAP3 PUSH1 0x20 DUP1 SWAP4 ADD DUP4 DUP7 ADD CALLDATACOPY DUP4 ADD ADD MSTORE SWAP1 JUMP JUMPDEST PUSH1 0x0 DUP1 REVERT JUMPDEST PUSH1 0x40 PUSH1 0x3 NOT DUP3 ADD SLT PUSH2 0x2EC JUMPI PUSH1 0x4 CALLDATALOAD SWAP1 PUSH8 0xFFFFFFFFFFFFFFFF DUP3 GT PUSH2 0x2EC JUMPI PUSH2 0x31C SWAP2 PUSH1 0x4 ADD PUSH2 0x289 JUMP JUMPDEST SWAP1 PUSH1 0x24 CALLDATALOAD SWAP1 JUMP JUMPDEST PUSH1 0x40 MLOAD SWAP1 DUP2 DUP2 MLOAD SWAP2 PUSH1 0x0 JUMPDEST DUP4 DUP2 LT PUSH2 0x347 JUMPI POP POP PUSH1 0x20 SWAP2 DUP2 ADD PUSH1 0x0 DUP2 MSTORE SUB ADD SWAP1 KECCAK256 SWAP1 JUMP JUMPDEST PUSH1 0x20 DUP3 DUP3 ADD DUP2 ADD MLOAD DUP7 DUP4 ADD MSTORE DUP6 SWAP4 POP ADD PUSH2 0x32E JUMP INVALID LOG2 PUSH5 0x6970667358 0x22 SLT KECCAK256 SWAP14 LOG4 SIGNEXTEND 0xDA MUL 0xC6 SSTORE BYTE MSTORE8 0xC 0xBE 0xA5 0xC9 0xEA 0xA8 0xD0 SWAP11 ADDMOD SWAP1 RETURNDATACOPY 0xDE 0xD7 0xDA EXTCODESIZE DUP10 0xD8 CODECOPY 0xEE 0xD4 POP PUSH7 0xB564736F6C6343 STOP ADDMOD EQ STOP CALLER "},"methodIdentifiers":{"getHistoricalPrice(string,uint256)":"94fa3e36","getLatestPrice(string)":"f66a1b71","isFresh(string,uint256)":"a1c6dded","owner()":"8da5cb5b","updatePrice(string,int256)":"2a632795"}}}}}