{
  "_format": "hh-sol-artifact-1",
  "contractName": "AriaMarketplace",
  "sourceName": "contracts/AriaMarketplace.sol",
  "abi": [
    {
      "inputs": [
        {
          "internalType": "address",
          "name": "_nftAddress",
          "type": "address"
        },
        {
          "internalType": "address",
          "name": "_tokenAddress",
          "type": "address"
        },
        {
          "internalType": "uint8",
          "name": "_ariaTokenDecimals",
          "type": "uint8"
        }
      ],
      "stateMutability": "nonpayable",
      "type": "constructor"
    },
    {
      "anonymous": false,
      "inputs": [
        {
          "indexed": true,
          "internalType": "uint256",
          "name": "tokenId",
          "type": "uint256"
        },
        {
          "indexed": true,
          "internalType": "address",
          "name": "by",
          "type": "address"
        }
      ],
      "name": "AssetDisputed",
      "type": "event"
    },
    {
      "anonymous": false,
      "inputs": [
        {
          "indexed": true,
          "internalType": "uint256",
          "name": "tokenId",
          "type": "uint256"
        },
        {
          "indexed": true,
          "internalType": "address",
          "name": "seller",
          "type": "address"
        },
        {
          "indexed": false,
          "internalType": "uint256",
          "name": "ariaPrice",
          "type": "uint256"
        },
        {
          "indexed": false,
          "internalType": "uint256",
          "name": "usdPriceE8",
          "type": "uint256"
        },
        {
          "indexed": false,
          "internalType": "string",
          "name": "name",
          "type": "string"
        },
        {
          "indexed": false,
          "internalType": "enum AriaMarketplace.PricingMode",
          "name": "mode",
          "type": "uint8"
        }
      ],
      "name": "AssetListed",
      "type": "event"
    },
    {
      "anonymous": false,
      "inputs": [
        {
          "indexed": true,
          "internalType": "uint256",
          "name": "tokenId",
          "type": "uint256"
        },
        {
          "indexed": true,
          "internalType": "address",
          "name": "buyer",
          "type": "address"
        },
        {
          "indexed": false,
          "internalType": "address",
          "name": "seller",
          "type": "address"
        },
        {
          "indexed": false,
          "internalType": "uint256",
          "name": "paidAria",
          "type": "uint256"
        },
        {
          "indexed": false,
          "internalType": "enum AriaMarketplace.PricingMode",
          "name": "mode",
          "type": "uint8"
        }
      ],
      "name": "AssetPurchased",
      "type": "event"
    },
    {
      "anonymous": false,
      "inputs": [
        {
          "indexed": true,
          "internalType": "uint256",
          "name": "tokenId",
          "type": "uint256"
        }
      ],
      "name": "AssetUnlisted",
      "type": "event"
    },
    {
      "anonymous": false,
      "inputs": [
        {
          "indexed": false,
          "internalType": "bool",
          "name": "enabled",
          "type": "bool"
        }
      ],
      "name": "OracleStatusChanged",
      "type": "event"
    },
    {
      "anonymous": false,
      "inputs": [
        {
          "indexed": false,
          "internalType": "address",
          "name": "oracle",
          "type": "address"
        }
      ],
      "name": "OracleUpdated",
      "type": "event"
    },
    {
      "anonymous": false,
      "inputs": [
        {
          "indexed": true,
          "internalType": "address",
          "name": "previousOwner",
          "type": "address"
        },
        {
          "indexed": true,
          "internalType": "address",
          "name": "newOwner",
          "type": "address"
        }
      ],
      "name": "OwnershipTransferred",
      "type": "event"
    },
    {
      "anonymous": false,
      "inputs": [
        {
          "indexed": false,
          "internalType": "string",
          "name": "pair",
          "type": "string"
        }
      ],
      "name": "PricePairUpdated",
      "type": "event"
    },
    {
      "inputs": [],
      "name": "ariaNFT",
      "outputs": [
        {
          "internalType": "contract IERC721",
          "name": "",
          "type": "address"
        }
      ],
      "stateMutability": "view",
      "type": "function"
    },
    {
      "inputs": [],
      "name": "ariaToken",
      "outputs": [
        {
          "internalType": "contract IERC20",
          "name": "",
          "type": "address"
        }
      ],
      "stateMutability": "view",
      "type": "function"
    },
    {
      "inputs": [],
      "name": "ariaTokenDecimals",
      "outputs": [
        {
          "internalType": "uint8",
          "name": "",
          "type": "uint8"
        }
      ],
      "stateMutability": "view",
      "type": "function"
    },
    {
      "inputs": [
        {
          "internalType": "uint256",
          "name": "tokenId",
          "type": "uint256"
        }
      ],
      "name": "currentPriceInAria",
      "outputs": [
        {
          "internalType": "uint256",
          "name": "",
          "type": "uint256"
        }
      ],
      "stateMutability": "view",
      "type": "function"
    },
    {
      "inputs": [
        {
          "internalType": "uint256",
          "name": "tokenId",
          "type": "uint256"
        }
      ],
      "name": "disputeAsset",
      "outputs": [],
      "stateMutability": "nonpayable",
      "type": "function"
    },
    {
      "inputs": [
        {
          "internalType": "address",
          "name": "user",
          "type": "address"
        }
      ],
      "name": "getClaimableRewardsFor",
      "outputs": [
        {
          "internalType": "uint256",
          "name": "",
          "type": "uint256"
        }
      ],
      "stateMutability": "view",
      "type": "function"
    },
    {
      "inputs": [
        {
          "internalType": "uint256",
          "name": "tokenId",
          "type": "uint256"
        }
      ],
      "name": "getListingDetails",
      "outputs": [
        {
          "internalType": "address",
          "name": "seller",
          "type": "address"
        },
        {
          "internalType": "uint256",
          "name": "staticPrice",
          "type": "uint256"
        },
        {
          "internalType": "uint256",
          "name": "currentPrice",
          "type": "uint256"
        },
        {
          "internalType": "string",
          "name": "name",
          "type": "string"
        },
        {
          "internalType": "bool",
          "name": "useDynamic",
          "type": "bool"
        },
        {
          "internalType": "string",
          "name": "pair",
          "type": "string"
        },
        {
          "internalType": "uint256",
          "name": "priceInUSD_E8",
          "type": "uint256"
        },
        {
          "internalType": "bool",
          "name": "disputed",
          "type": "bool"
        }
      ],
      "stateMutability": "view",
      "type": "function"
    },
    {
      "inputs": [
        {
          "internalType": "uint256",
          "name": "",
          "type": "uint256"
        }
      ],
      "name": "isDisputed",
      "outputs": [
        {
          "internalType": "bool",
          "name": "",
          "type": "bool"
        }
      ],
      "stateMutability": "view",
      "type": "function"
    },
    {
      "inputs": [
        {
          "internalType": "uint256",
          "name": "tokenId",
          "type": "uint256"
        },
        {
          "internalType": "uint256",
          "name": "ariaPrice",
          "type": "uint256"
        },
        {
          "internalType": "string",
          "name": "name",
          "type": "string"
        }
      ],
      "name": "listAssetAria",
      "outputs": [],
      "stateMutability": "nonpayable",
      "type": "function"
    },
    {
      "inputs": [
        {
          "internalType": "uint256",
          "name": "tokenId",
          "type": "uint256"
        },
        {
          "internalType": "uint256",
          "name": "usdPriceE8",
          "type": "uint256"
        },
        {
          "internalType": "string",
          "name": "name",
          "type": "string"
        }
      ],
      "name": "listAssetUsd",
      "outputs": [],
      "stateMutability": "nonpayable",
      "type": "function"
    },
    {
      "inputs": [
        {
          "internalType": "uint256",
          "name": "",
          "type": "uint256"
        }
      ],
      "name": "listings",
      "outputs": [
        {
          "internalType": "address",
          "name": "seller",
          "type": "address"
        },
        {
          "internalType": "uint256",
          "name": "ariaPrice",
          "type": "uint256"
        },
        {
          "internalType": "uint256",
          "name": "usdPriceE8",
          "type": "uint256"
        },
        {
          "internalType": "string",
          "name": "name",
          "type": "string"
        },
        {
          "internalType": "enum AriaMarketplace.PricingMode",
          "name": "mode",
          "type": "uint8"
        }
      ],
      "stateMutability": "view",
      "type": "function"
    },
    {
      "inputs": [],
      "name": "oracle",
      "outputs": [
        {
          "internalType": "contract IQIEOracle",
          "name": "",
          "type": "address"
        }
      ],
      "stateMutability": "view",
      "type": "function"
    },
    {
      "inputs": [],
      "name": "owner",
      "outputs": [
        {
          "internalType": "address",
          "name": "",
          "type": "address"
        }
      ],
      "stateMutability": "view",
      "type": "function"
    },
    {
      "inputs": [],
      "name": "pricePair",
      "outputs": [
        {
          "internalType": "string",
          "name": "",
          "type": "string"
        }
      ],
      "stateMutability": "view",
      "type": "function"
    },
    {
      "inputs": [
        {
          "internalType": "uint256",
          "name": "tokenId",
          "type": "uint256"
        }
      ],
      "name": "purchaseAsset",
      "outputs": [],
      "stateMutability": "nonpayable",
      "type": "function"
    },
    {
      "inputs": [],
      "name": "renounceOwnership",
      "outputs": [],
      "stateMutability": "nonpayable",
      "type": "function"
    },
    {
      "inputs": [
        {
          "internalType": "address",
          "name": "_oracle",
          "type": "address"
        }
      ],
      "name": "setOracle",
      "outputs": [],
      "stateMutability": "nonpayable",
      "type": "function"
    },
    {
      "inputs": [
        {
          "internalType": "string",
          "name": "_pair",
          "type": "string"
        }
      ],
      "name": "setPricePair",
      "outputs": [],
      "stateMutability": "nonpayable",
      "type": "function"
    },
    {
      "inputs": [
        {
          "internalType": "bool",
          "name": "_status",
          "type": "bool"
        }
      ],
      "name": "setUseOracle",
      "outputs": [],
      "stateMutability": "nonpayable",
      "type": "function"
    },
    {
      "inputs": [
        {
          "internalType": "uint256",
          "name": "amount",
          "type": "uint256"
        }
      ],
      "name": "stake",
      "outputs": [],
      "stateMutability": "nonpayable",
      "type": "function"
    },
    {
      "inputs": [
        {
          "internalType": "address",
          "name": "",
          "type": "address"
        }
      ],
      "name": "stakedBalances",
      "outputs": [
        {
          "internalType": "uint256",
          "name": "",
          "type": "uint256"
        }
      ],
      "stateMutability": "view",
      "type": "function"
    },
    {
      "inputs": [],
      "name": "totalStaked",
      "outputs": [
        {
          "internalType": "uint256",
          "name": "",
          "type": "uint256"
        }
      ],
      "stateMutability": "view",
      "type": "function"
    },
    {
      "inputs": [
        {
          "internalType": "address",
          "name": "newOwner",
          "type": "address"
        }
      ],
      "name": "transferOwnership",
      "outputs": [],
      "stateMutability": "nonpayable",
      "type": "function"
    },
    {
      "inputs": [
        {
          "internalType": "uint256",
          "name": "tokenId",
          "type": "uint256"
        }
      ],
      "name": "unlistAsset",
      "outputs": [],
      "stateMutability": "nonpayable",
      "type": "function"
    },
    {
      "inputs": [
        {
          "internalType": "uint256",
          "name": "amount",
          "type": "uint256"
        }
      ],
      "name": "unstake",
      "outputs": [],
      "stateMutability": "nonpayable",
      "type": "function"
    },
    {
      "inputs": [],
      "name": "useOracle",
      "outputs": [
        {
          "internalType": "bool",
          "name": "",
          "type": "bool"
        }
      ],
      "stateMutability": "view",
      "type": "function"
    }
  ],
  "bytecode": "0x60e0346200023457601f6200246638819003918201601f19168301916001600160401b03831184841017620002395780849260609460405283398101031262000234576200004d816200024f565b60406200005d602084016200024f565b9201519160ff83168303620002345760008054336001600160a01b03198216811783556040516001600160a01b03959093909290919086167f8be0079c531659141344cd1fd0a4f28419497f9722a3daafe3b4186f6b6457e08380a360018080556002805460ff60a01b1916600160a01b179055600354909181831c918316801562000229575b602083101462000215579086939291601f8211620001e5575b50507f415249412f55534400000000000000000000000000000000000000000000001060035550169081151580620001d9575b15620001ab57506080521660a05260c0526040516122019081620002658239608051818181610204015281816108c00152818161103001526112cf015260a05181818161078f0152818161089901528181610b51015281816113ed015261210a015260c05181818161059301528181611d6f01526120180152f35b62461bcd60e51b81526020600482015260096024820152682d32b9379030b2323960b91b6044820152606490fd5b50838316151562000130565b60038152601f60208220920160051c8201915b828110620002075750620000fd565b8181558895508301620001f8565b634e487b7160e01b81526022600452602490fd5b91607f1691620000e4565b600080fd5b634e487b7160e01b600052604160045260246000fd5b51906001600160a01b0382168203620002345756fe608080604052600436101561001357600080fd5b600090813560e01c9081631460fa8714611459575080632e17de78146113555780633131714b1461132457806344878724146112fe5780634803d23b146112b9578063535d55d714610fcf5780636804f61314610f61578063715018a614610f0757806372214e8714610e775780637adbf97314610e085780637ccc586e14610dd95780637dc0d1d014610db057806380af3da414610bf5578063817b1cd214610bd7578063863a662914610ba75780638da5cb5b14610b80578063967bcbda14610b3b5780639c3517bc14610a44578063a457e1c0146107ea578063a694fc3a1461073c578063dda547f41461063a578063de74e57b146105b7578063ebd4609614610579578063f2fde38b146104ad578063f4532cd6146101bf5763fb05da2e1461013f57600080fd5b346101bc5760203660031901126101bc576101ab610196610161600435611ef5565b95989460409892939491979851998a9960018060a01b03168a5260208a015260408901526101008060608a01528801906116db565b911515608087015285820360a08701526116db565b9160c0840152151560e08301520390f35b80fd5b50346101bc576101ce366114c6565b6101d9939293611934565b831561047e576040516331a9108f60e11b8152600481018490526001600160a01b03906020816024817f000000000000000000000000000000000000000000000000000000000000000086165afa801561047357610242918891610444575b5082163314611827565b838652600460205261025a816040882054161561185f565b61026582151561189c565b6040519061027282611537565b338252602082018681526040830188815261028e3686886118f1565b9160608501928352896080860152878a52600460205260408a20938551166001600160601b0360a01b8554161784555160018401555160028301555180519067ffffffffffffffff8211610430576102f6826102ed60038601546114fd565b600386016117ad565b602090601f83116001146103be579180608094926004948c926103b3575b50508160011b916000199060031b1c19161760038201555b01910151600281101561039f57917fc250632d93f84096dec1bd127a3ddb5ebdca63f82ae872e62d15407ee57e895a939161038a9360ff801983541691161790556040519586528660208701526080604087015260808601916117e7565b92600060608201528033940390a36001805580f35b634e487b7160e01b87526021600452602487fd5b015190503880610314565b90600384018a5260208a20918a5b601f19851681106104185750926080949260019260049583601f198116106103ff575b505050811b01600382015561032c565b015160001960f88460031b161c191690553880806103ef565b919260206001819286850151815501940192016103cc565b634e487b7160e01b89526041600452602489fd5b610466915060203d60201161046c575b61045e8183611569565b810190611808565b38610238565b503d610454565b6040513d89823e3d90fd5b60405162461bcd60e51b8152602060048201526007602482015266050726963653d360cc1b6044820152606490fd5b50346101bc5760203660031901126101bc576004356001600160a01b0381811691829003610575576104dd61173e565b811561052157600054826001600160601b0360a01b821617600055167f8be0079c531659141344cd1fd0a4f28419497f9722a3daafe3b4186f6b6457e0600080a380f35b60405162461bcd60e51b815260206004820152602660248201527f4f776e61626c653a206e6577206f776e657220697320746865207a65726f206160448201526564647265737360d01b6064820152608490fd5b8280fd5b50346101bc57806003193601126101bc57602060405160ff7f0000000000000000000000000000000000000000000000000000000000000000168152f35b50346101bc5760203660031901126101bc57604090600435815260046020522060018060a01b0381541660018201549161063661062b60028301549260ff600461060360038401611637565b920154169360405196879687526020870152604086015260a0606086015260a08501906116db565b91608084019061171b565b0390f35b50346101bc5760203660031901126101bc57600435610657611934565b80825260046020526040822060405161066f81611537565b6106b560ff600460018060a01b039485815416855260018101546020860152600281015460408601526106a460038201611637565b606086015201541660808301611928565b6106c3828251161515611a05565b5116330361070a5780825260046020526106df60408320611a67565b7f64ccd31338f15e54e45fc8900243f6c5144beba6e0b0d7c84bcd5990bb5a86578280a26001805580f35b60405162461bcd60e51b815260206004820152600a6024820152692737ba1039b2b63632b960b11b6044820152606490fd5b50346101bc5760203660031901126101bc57600435610759611934565b80156107ba576107b39033835260066020526040832061077a8282546120c2565b9055610788816007546120c2565b60075530337f0000000000000000000000000000000000000000000000000000000000000000611ad4565b6001805580f35b60405162461bcd60e51b81526020600482015260086024820152670416d6f756e743d360c41b6044820152606490fd5b50346101bc57602080600319360112610a0a57600435610808611934565b80835260048252604083209160405161082081611537565b83546001600160a01b039081168252600185015483830152600285015460408301529360ff9060049061085560038201611637565b60608501520154169361086c608083019586611928565b61087a818351161515611a05565b808251163314610a0e5761088d82611cdf565b916108bd8383835116337f0000000000000000000000000000000000000000000000000000000000000000611ad4565b817f0000000000000000000000000000000000000000000000000000000000000000168783835116823b15610a0a57604051632142170760e11b81526001600160a01b0391909116600482015233602482015260448101889052918290606490829084905af180156109ff576109cf575b508487526004845261094260408820611a67565b8487526005845260408720805460ff81166109c2575b5050511693519160028310156109ae57906109819291604051958652850152604084019061171b565b7f5fee9e3a83d9e77e867858377ef35972c9f352f6994667ded9d1885b7065ac4460603393a36001805580f35b634e487b7160e01b86526021600452602486fd5b60ff191690553880610958565b67ffffffffffffffff81989298116109eb57604052953861092e565b634e487b7160e01b82526041600452602482fd5b6040513d8a823e3d90fd5b5080fd5b60405162461bcd60e51b815260048101849052600e60248201526d21b0b73737ba10313abc9037bbb760911b6044820152606490fd5b50346101bc57602080600319360112610a0a576004359081835260048152610ab260408420604051610a7581611537565b610aa960ff600460018060a01b0394858154168552600181015488860152600281015460408601526106a460038201611637565b51161515611a05565b8183526005815260ff604084205416610b04578183526005905260408220805460ff1916600117905533907fe707468dd4c72e05a688bbdfcce49578e16fc9de4fa629a4db9ced143184b9548380a380f35b6064906040519062461bcd60e51b82526004820152601060248201526f105b1c9958591e48191a5cdc1d5d195960821b6044820152fd5b50346101bc57806003193601126101bc576040517f00000000000000000000000000000000000000000000000000000000000000006001600160a01b03168152602090f35b50346101bc57806003193601126101bc57546040516001600160a01b039091168152602090f35b50346101bc57806003193601126101bc57610636610bc361158b565b6040519182916020835260208301906116db565b50346101bc57806003193601126101bc576020600754604051908152f35b50346101bc57602080600319360112610a0a5767ffffffffffffffff90600435828111610dac57610c2a903690600401611493565b92610c3361173e565b8311610d98576003610c4581546114fd565b601f8111610d53575b5084601f8511600114610cc15791610cb091857f097c820ae21a59e741a8eba022b1bae9f9f40d63996d86089d4d29a2b6db48f79695948891610cb6575b5060001986831b1c1916600186901b1790555b6040519383859485528401916117e7565b0390a180f35b905082013538610c8c565b8186526000805160206121ac83398151915290601f198616875b818110610d3c575091610cb09391877f097c820ae21a59e741a8eba022b1bae9f9f40d63996d86089d4d29a2b6db48f79897969410610d24575b5050600185811b019055610c9f565b83013560001987841b60f8161c191690553880610d15565b919286600181928689013581550194019201610cdb565b610d88908287526000805160206121ac833981519152601f870160051c810191868810610d8e575b601f0160051c0190611796565b38610c4e565b9091508190610d7b565b634e487b7160e01b84526041600452602484fd5b8380fd5b50346101bc57806003193601126101bc576002546040516001600160a01b039091168152602090f35b50346101bc5760203660031901126101bc5760ff60406020926004358152600584522054166040519015158152f35b50346101bc5760203660031901126101bc576004356001600160a01b03811690819003610a0a5760207f3df77beb5db05fcdd70a30fc8adf3f83f9501b68579455adbd100b818094039491610e5b61173e565b600280546001600160a01b03191682179055604051908152a180f35b50346101bc5760203660031901126101bc57610eff604060209260043581526004845220610efa60405191610eab83611537565b610ef060ff600460018060a01b039384815416875260018101548988015260028101546040880152610edf60038201611637565b606088015201541660808501611928565b8251161515611a05565b611cdf565b604051908152f35b50346101bc57806003193601126101bc57610f2061173e565b80546001600160a01b03198116825581906001600160a01b03167f8be0079c531659141344cd1fd0a4f28419497f9722a3daafe3b4186f6b6457e08280a380f35b50346101bc5760203660031901126101bc57600435801515809103610a0a5760207f25de6ecc0a07bc4466fd80484cf3004b609d934030530ddde3ae04b8da1da24991610fac61173e565b6002805460ff60a01b191660a083901b60ff60a01b16179055604051908152a180f35b50346101bc57610fde366114c6565b610fe9939293611934565b61100e600254610ffe60ff8260a01c1661198a565b6001600160a01b031615156119c8565b831561128c576040516331a9108f60e11b8152600481018490526020816024817f00000000000000000000000000000000000000000000000000000000000000006001600160a01b03165afa80156112815761107c918791611262575b506001600160a01b03163314611827565b8285526004602052604085205461109c906001600160a01b03161561185f565b6110a781151561189c565b6040516110b381611537565b3381528560208201528460408201526110cd3683856118f1565b60608201526001608082015283865260046020526040862060018060a01b038251166001600160601b0360a01b8254161781556020820151600182015560408201516002820155606082015180519067ffffffffffffffff82116104305761113c826102ed60038601546114fd565b602090601f83116001146111f0579180608094926004948c926111e5575b50508160011b916000199060031b1c19161760038201555b01910151600281101561039f57917fc250632d93f84096dec1bd127a3ddb5ebdca63f82ae872e62d15407ee57e895a93916111d09360ff801983541691161790556040519587875260208701526080604087015260808601916117e7565b92600160608201528033940390a36001805580f35b01519050388061115a565b90600384018a5260208a20918a5b601f198516811061124a5750926080949260019260049583601f19811610611231575b505050811b016003820155611172565b015160001960f88460031b161c19169055388080611221565b919260206001819286850151815501940192016111fe565b61127b915060203d60201161046c5761045e8183611569565b3861106b565b6040513d88823e3d90fd5b60405162461bcd60e51b815260206004820152600560248201526405553443d360dc1b6044820152606490fd5b50346101bc57806003193601126101bc576040517f00000000000000000000000000000000000000000000000000000000000000006001600160a01b03168152602090f35b50346101bc57806003193601126101bc57602060ff60025460a01c166040519015158152f35b50346101bc5760203660031901126101bc57600435906001600160a01b03821682036101bc576020610eff836120dc565b50346101bc5760203660031901126101bc57600435611372611934565b3382526006602052806040832054106114255733825260066020526040822061139c8282546120cf565b90556113aa816007546120cf565b6007556040519063a9059cbb60e01b60208301523360248301526044820152604481526080810181811067ffffffffffffffff821117611411576040526107b3907f0000000000000000000000000000000000000000000000000000000000000000611b18565b634e487b7160e01b83526041600452602483fd5b60405162461bcd60e51b815260206004820152600c60248201526b125b9cdd59999a58da595b9d60a21b6044820152606490fd5b905034610a0a576020366003190112610a0a576004356001600160a01b038116908190036105755782604091602094526006845220548152f35b9181601f840112156114c15782359167ffffffffffffffff83116114c157602083818601950101116114c157565b600080fd5b60606003198201126114c15760043591602435916044359067ffffffffffffffff82116114c1576114f991600401611493565b9091565b90600182811c9216801561152d575b602083101461151757565b634e487b7160e01b600052602260045260246000fd5b91607f169161150c565b60a0810190811067ffffffffffffffff82111761155357604052565b634e487b7160e01b600052604160045260246000fd5b90601f8019910116810190811067ffffffffffffffff82111761155357604052565b604051906000826003549161159f836114fd565b8083529260019081811690811561161557506001146115c8575b506115c692500383611569565b565b6003600090815291506000805160206121ac8339815191525b8483106115fa57506115c69350508101602001386115b9565b81935090816020925483858a010152019101909185926115e1565b9050602092506115c694915060ff191682840152151560051b820101386115b9565b906040519182600082549261164b846114fd565b9081845260019485811690816000146116b85750600114611675575b50506115c692500383611569565b9093915060005260209081600020936000915b8183106116a05750506115c693508201013880611667565b85548884018501529485019487945091830191611688565b9150506115c694506020925060ff191682840152151560051b8201013880611667565b919082519283825260005b848110611707575050826000602080949584010152601f8019910116010190565b6020818301810151848301820152016116e6565b9060028210156117285752565b634e487b7160e01b600052602160045260246000fd5b6000546001600160a01b0316330361175257565b606460405162461bcd60e51b815260206004820152602060248201527f4f776e61626c653a2063616c6c6572206973206e6f7420746865206f776e65726044820152fd5b8181106117a1575050565b60008155600101611796565b9190601f81116117bc57505050565b6115c6926000526020600020906020601f840160051c83019310610d8e57601f0160051c0190611796565b908060209392818452848401376000828201840152601f01601f1916010190565b908160209103126114c157516001600160a01b03811681036114c15790565b1561182e57565b60405162461bcd60e51b81526020600482015260096024820152682737ba1037bbb732b960b91b6044820152606490fd5b1561186657565b60405162461bcd60e51b815260206004820152600e60248201526d105b1c9958591e481b1a5cdd195960921b6044820152606490fd5b156118a357565b60405162461bcd60e51b815260206004820152600a6024820152694e616d6520656d70747960b01b6044820152606490fd5b67ffffffffffffffff811161155357601f01601f191660200190565b9291926118fd826118d5565b9161190b6040519384611569565b8294818452818301116114c1578281602093846000960137010152565b60028210156117285752565b600260015414611945576002600155565b60405162461bcd60e51b815260206004820152601f60248201527f5265656e7472616e637947756172643a207265656e7472616e742063616c6c006044820152606490fd5b1561199157565b60405162461bcd60e51b815260206004820152600f60248201526e13dc9858db1948191a5cd8589b1959608a1b6044820152606490fd5b156119cf57565b60405162461bcd60e51b815260206004820152600e60248201526d13dc9858db19481b9bdd081cd95d60921b6044820152606490fd5b15611a0c57565b60405162461bcd60e51b815260206004820152600a602482015269139bdd081b1a5cdd195960b21b6044820152606490fd5b81810292918115918404141715611a5157565b634e487b7160e01b600052601160045260246000fd5b60046000918281558260018201558260028201558260038201611a8a81546114fd565b80611a97575b5050500155565b82601f8211600114611aaf575050555b823880611a90565b9091808252611acd601f60208420940160051c840160018501611796565b5555611aa7565b6040516323b872dd60e01b60208201526001600160a01b0392831660248201529290911660448301526064808301939093529181526115c691611b18608483611569565b60018060a01b031690604051604081019080821067ffffffffffffffff83111761155357611ba8916040526020938482527f5361666545524332303a206c6f772d6c6576656c2063616c6c206661696c6564858301526000808587829751910182855af13d15611c3e573d91611b8d836118d5565b92611b9b6040519485611569565b83523d868885013e611c42565b805191821591848315611c1a575b505050905015611bc35750565b6084906040519062461bcd60e51b82526004820152602a60248201527f5361666545524332303a204552433230206f7065726174696f6e20646964206e6044820152691bdd081cdd58d8d9595960b21b6064820152fd5b919381809450010312610a0a578201519081151582036101bc575080388084611bb6565b6060915b91929015611ca45750815115611c56575090565b3b15611c5f5790565b60405162461bcd60e51b815260206004820152601d60248201527f416464726573733a2063616c6c20746f206e6f6e2d636f6e74726163740000006044820152606490fd5b825190915015611cb75750805190602001fd5b60405162461bcd60e51b815260206004820152908190611cdb9060248301906116db565b0390fd5b6080810151600281101561172857611cf8576020015190565b604080910151600254611d1060ff8260a01c1661198a565b6001600160a01b031691611d258315156119c8565b808051809463f66a1b7160e01b82528180611d4260048201611e23565b03915afa928315611e0257600093611dd2575b506000831315611da2575090611d9a611d9f92611d9460ff7f000000000000000000000000000000000000000000000000000000000000000016611ec7565b90611a3e565b611ed5565b90565b5162461bcd60e51b815260206004820152600a602482015269426164206f7261636c6560b01b6044820152606490fd5b81611df39294503d8511611dfb575b611deb8183611569565b810190611e0d565b509138611d55565b503d611de1565b50513d6000823e3d90fd5b91908260409103126114c1576020825192015190565b602080825260009160035491611e38836114fd565b9283828401526001908181169081600014611ea45750600114611e5d575b5050505090565b600360009081529394506000805160206121ac8339815191525b858510611e905750505060409250010138808080611e56565b805485850160400152938201938101611e77565b925050506040935060ff929192191683830152151560051b010138808080611e56565b604d8111611a5157600a0a90565b8115611edf570490565b634e487b7160e01b600052601260045260246000fd5b6000908082526004602052604091828120938351611f1281611537565b85546001600160a01b03908116825260018701546020830190815260028801548784019081529660ff6004611f4960038c01611637565b9a606087019b8c5201541692611f63608086019485611928565b611f71818651161515611a05565b611f7a85611cdf565b9887945160028110156120ae5761207f575060025460ff8160a01c1680612074575b611fcc575b5060ff929394511692519851968652600560205285205416909695949392611fc761158b565b929190565b828051809263f66a1b7160e01b8252818581611fea60048201611e23565b0392165afa90811561206a57889161204c575b5087811315611fa15760ff93945061204590611d9a61203d867f000000000000000000000000000000000000000000000000000000000000000016611ec7565b918751611a3e565b9392611fa1565b6120639150833d8511611dfb57611deb8183611569565b5038611ffd565b83513d8a823e3d90fd5b508181161515611f9c565b97949091925060ff93509895985116945195519288526005602052872054169295949392600192611fc761158b565b634e487b7160e01b89526021600452602489fd5b91908201809211611a5157565b91908203918211611a5157565b6007549081156121a4576040516370a0823160e01b81523060048201526001600160a01b03906020816024817f000000000000000000000000000000000000000000000000000000000000000086165afa90811561219857600091612165575b5091611d9a9161215085611d9f96956120cf565b91166000526006602052604060002054611a3e565b906020823d8211612190575b8161217e60209383611569565b810103126101bc575051611d9a61213c565b3d9150612171565b6040513d6000823e3d90fd5b505060009056fec2575a0e9e593c00f959f8c92f12db2869c3395a3b0502d05e2516446f71f85ba264697066735822122058397194fbd9a10f8e4198b8d8fe21e1bcfe114dac4b08e4e36cb0bd4a28d15d64736f6c63430008140033",
  "linkReferences": {},
  "deployedLinkReferences": {}
}