{
  "_format": "hh-sol-artifact-1",
  "contractName": "QIEOracleTestnet",
  "sourceName": "contracts/QIEOracleTestnet.sol",
  "abi": [
    {
      "inputs": [
        {
          "internalType": "string",
          "name": "_description",
          "type": "string"
        },
        {
          "internalType": "uint8",
          "name": "_decimals",
          "type": "uint8"
        }
      ],
      "stateMutability": "nonpayable",
      "type": "constructor"
    },
    {
      "anonymous": false,
      "inputs": [
        {
          "indexed": true,
          "internalType": "int256",
          "name": "current",
          "type": "int256"
        },
        {
          "indexed": true,
          "internalType": "uint256",
          "name": "roundId",
          "type": "uint256"
        },
        {
          "indexed": false,
          "internalType": "uint256",
          "name": "updatedAt",
          "type": "uint256"
        }
      ],
      "name": "AnswerUpdated",
      "type": "event"
    },
    {
      "anonymous": false,
      "inputs": [
        {
          "indexed": true,
          "internalType": "address",
          "name": "previousOwner",
          "type": "address"
        },
        {
          "indexed": true,
          "internalType": "address",
          "name": "newOwner",
          "type": "address"
        }
      ],
      "name": "OwnershipTransferred",
      "type": "event"
    },
    {
      "inputs": [],
      "name": "decimals",
      "outputs": [
        {
          "internalType": "uint8",
          "name": "",
          "type": "uint8"
        }
      ],
      "stateMutability": "view",
      "type": "function"
    },
    {
      "inputs": [],
      "name": "description",
      "outputs": [
        {
          "internalType": "string",
          "name": "",
          "type": "string"
        }
      ],
      "stateMutability": "view",
      "type": "function"
    },
    {
      "inputs": [
        {
          "internalType": "uint80",
          "name": "_roundId",
          "type": "uint80"
        }
      ],
      "name": "getRoundData",
      "outputs": [
        {
          "internalType": "uint80",
          "name": "roundId",
          "type": "uint80"
        },
        {
          "internalType": "int256",
          "name": "answer",
          "type": "int256"
        },
        {
          "internalType": "uint256",
          "name": "startedAt",
          "type": "uint256"
        },
        {
          "internalType": "uint256",
          "name": "updatedAt",
          "type": "uint256"
        },
        {
          "internalType": "uint80",
          "name": "answeredInRound",
          "type": "uint80"
        }
      ],
      "stateMutability": "view",
      "type": "function"
    },
    {
      "inputs": [],
      "name": "latestRound",
      "outputs": [
        {
          "internalType": "uint80",
          "name": "",
          "type": "uint80"
        }
      ],
      "stateMutability": "view",
      "type": "function"
    },
    {
      "inputs": [],
      "name": "latestRoundData",
      "outputs": [
        {
          "internalType": "uint80",
          "name": "roundId",
          "type": "uint80"
        },
        {
          "internalType": "int256",
          "name": "answer",
          "type": "int256"
        },
        {
          "internalType": "uint256",
          "name": "startedAt",
          "type": "uint256"
        },
        {
          "internalType": "uint256",
          "name": "updatedAt",
          "type": "uint256"
        },
        {
          "internalType": "uint80",
          "name": "answeredInRound",
          "type": "uint80"
        }
      ],
      "stateMutability": "view",
      "type": "function"
    },
    {
      "inputs": [],
      "name": "owner",
      "outputs": [
        {
          "internalType": "address",
          "name": "",
          "type": "address"
        }
      ],
      "stateMutability": "view",
      "type": "function"
    },
    {
      "inputs": [],
      "name": "renounceOwnership",
      "outputs": [],
      "stateMutability": "nonpayable",
      "type": "function"
    },
    {
      "inputs": [
        {
          "internalType": "uint80",
          "name": "",
          "type": "uint80"
        }
      ],
      "name": "rounds",
      "outputs": [
        {
          "internalType": "int256",
          "name": "answer",
          "type": "int256"
        },
        {
          "internalType": "uint256",
          "name": "startedAt",
          "type": "uint256"
        },
        {
          "internalType": "uint256",
          "name": "updatedAt",
          "type": "uint256"
        },
        {
          "internalType": "uint80",
          "name": "answeredInRound",
          "type": "uint80"
        }
      ],
      "stateMutability": "view",
      "type": "function"
    },
    {
      "inputs": [
        {
          "internalType": "address",
          "name": "newOwner",
          "type": "address"
        }
      ],
      "name": "transferOwnership",
      "outputs": [],
      "stateMutability": "nonpayable",
      "type": "function"
    },
    {
      "inputs": [
        {
          "internalType": "int256",
          "name": "_answer",
          "type": "int256"
        }
      ],
      "name": "updateAnswer",
      "outputs": [],
      "stateMutability": "nonpayable",
      "type": "function"
    },
    {
      "inputs": [],
      "name": "version",
      "outputs": [
        {
          "internalType": "uint256",
          "name": "",
          "type": "uint256"
        }
      ],
      "stateMutability": "view",
      "type": "function"
    }
  ],
  "bytecode": "0x608060405234610269576109d88038038061001981610282565b9283398101906040818303126102695780516001600160401b03929083811161026957820191601f938285850112156102695783519181831161025357602092601f199561006c85888a85011601610282565b95828752858383010111610269579084929160005b82811061026e575050826000918701015201519260ff841684036102695760008054336001600160a01b0319821681178355916001600160a01b03909116907f8be0079c531659141344cd1fd0a4f28419497f9722a3daafe3b4186f6b6457e09080a38051918211610253576003928354956001968781811c91168015610249575b83821014610233578881116101ed575b508197841160011461017e5750506aff0000000000000000000094958291600092610173575b505060001982841b1c191690851b1790555b6002549260045560501b169060018060581b0319161760025560405161073090816102a88239f35b015190503880610139565b83979291971684600052876000209760005b8281106101d857505091869791846aff00000000000000000000989594106101c0575b505050811b01905561014b565b015160001983861b60f8161c191690553880806101b3565b848401518a5598880198938101938101610190565b85600052826000208980870160051c82019285881061022a575b0160051c019088905b82811061021e575050610113565b60008155018890610210565b92508192610207565b634e487b7160e01b600052602260045260246000fd5b90607f1690610103565b634e487b7160e01b600052604160045260246000fd5b600080fd5b818101850151888201860152869401610081565b6040519190601f01601f191682016001600160401b038111838210176102535760405256fe60806040908082526004908136101561001757600080fd5b600090813560e01c9081632ede662f1461060e57508063313ce567146105e957806354fd4d50146105ca578063668a0f02146105a2578063715018a6146105485780637284e416146103ea5780638da5cb5b146103c25780639a6fc8f514610326578063a87a20ce14610248578063f2fde38b1461017a5763feaf968c1461009e57600080fd5b346101775780600319360112610177576001600160501b03908160025416928315610142575061013e9184828560609452600160205220908551956100e287610670565b825496878152600184015492836020830152600360028601549586858501520154169485910152519586958693608093969591929660a08601976001600160501b03809516875260208701526040860152606085015216910152565b0390f35b606490602086519162461bcd60e51b8352820152600f60248201526e139bc819185d18481c1c995cd95b9d608a1b6044820152fd5b80fd5b509134610244576020366003190112610244576001600160a01b03823581811693919290849003610240576101ad6106a2565b83156101ee57505082546001600160a01b0319811683178455167f8be0079c531659141344cd1fd0a4f28419497f9722a3daafe3b4186f6b6457e08380a380f35b906020608492519162461bcd60e51b8352820152602660248201527f4f776e61626c653a206e6577206f776e657220697320746865207a65726f206160448201526564647265737360d01b6064820152fd5b8480fd5b8280fd5b50919034610244576020366003190112610244578035906102676106a2565b6002546001600160501b0391828216908382146103135750916020918160017f0559884fd3a460db3073b7fc896cc77986f16e378210ded43186175bf646fc5f95011690816001600160501b03198092161760025582600388516102ca81610670565b8881528681014281528a82019042825260608301968088528d52600189528b8d20925183555160018301555160028201550192511690825416179055600254169351428152a380f35b634e487b7160e01b875260119052602486fd5b5090346103be5760203660031901126103be578035916001600160501b03918284169081850361024457811515806103b0575b1561037d575091848261013e9460609452600160205220908551956100e287610670565b606490602087519162461bcd60e51b8352820152600d60248201526c125b9d985b1a59081c9bdd5b99609a1b6044820152fd5b508360025416821115610359565b5080fd5b5082346103be57816003193601126103be57905490516001600160a01b039091168152602090f35b50913461024457826003193601126102445780518360035460019581871c87831697881561053e575b6020938483108a1461052b57848798999a848952918260001461050f5750506001146104bb575b5050601f801995869203011683019583871067ffffffffffffffff8811176104a8575085929391838652818452845191828186015281955b8387106104905750508394508582601f949501015201168101030190f35b86810182015189880189015295810195889550610472565b634e487b7160e01b835260419052602482fd5b600385528492507fc2575a0e9e593c00f959f8c92f12db2869c3395a3b0502d05e2516446f71f85b5b8284106104f95750505083018101388061043a565b80548885018601528796509284019281016104e4565b925093505060ff191682860152151560051b840101388061043a565b634e487b7160e01b865260228952602486fd5b90607f1690610413565b50346101775780600319360112610177576105616106a2565b80546001600160a01b03198116825581906001600160a01b03167f8be0079c531659141344cd1fd0a4f28419497f9722a3daafe3b4186f6b6457e08280a380f35b5082346103be57816003193601126103be576020906001600160501b03600254169051908152f35b5091903461024457826003193601126102445760209250549051908152f35b5082346103be57816003193601126103be5760209060ff60025460501c169051908152f35b905083833461066c57602036600319011261066c5735906001600160501b0391828116809103610240578482916080965260016020522090815492600183015490600360028501549401541693855260208501528301526060820152f35b8380fd5b6080810190811067ffffffffffffffff82111761068c57604052565b634e487b7160e01b600052604160045260246000fd5b6000546001600160a01b031633036106b657565b606460405162461bcd60e51b815260206004820152602060248201527f4f776e61626c653a2063616c6c6572206973206e6f7420746865206f776e65726044820152fdfea2646970667358221220bcfa5cfe92e25392e4d8c8f312b443d44d460ea818cc4cf80ca701d2cca9f12764736f6c63430008140033",
  "linkReferences": {},
  "deployedLinkReferences": {}
}